:020000040802F0
:10000000B800012005560208A37D0208A57D02085C
:10001000AF7D0208B37D0208B77D02080000000032
:10002000000000000000000000000000BB7D02088E
:10003000BD7D020800000000BF7D0208C57C0208EB
:100040001F5602081F5602081F5602081F560208B4
:100050001F5602081F5602081F5602081F560208A4
:100060001F5602081F5602081F5602081F56020894
:100070001F5602081F5602081F5602081F56020884
:100080001F5602081F5602081F5602081F56020874
:100090001F5602081F5602081F5602081F56020864
:1000A0001F5602081F5602081F5602081F56020854
:1000B0001F560208A5550208215502081F560208BE
:1000C0001F5602081F5602081F5602081F56020834
:1000D0001F56020891600208BF600208ED60020826
:1000E0001F5602089F5202081F5602081F56020898
:1000F0001F5602081F5602081F5602081F56020804
:100100001F5602081F5602081F5602081F560208F3
:100110001F5602081F5602081F5602081F560208E3
:100120001F5602081F5602081F5602081F560208D3
:100130001F5602081F5602081F5602081F560208C3
:100140001F5602081F5602081F5602081F560208B3
:100150001F5602081F5602081F5602081F560208A3
:100160001F5602081F5602081F5602081F56020893
:100170001F5602081F5602081F5602081F56020883
:100180001F5602081F560208DFF80CD008F046FA86
:1001900000480047D9580208B800012000B589B0CE
:1001A0004FF4A06000F08CFE0121022002F0D5F98E
:1001B00042F2CF00ADF818000020ADF81A0001207F
:1001C00007900020ADF820008DF8220006A9FE4817
:1001D00003F06FFC6020ADF804000120ADF80600CC
:1001E0000220ADF81000C001ADF81400012003900A
:1001F00001A9F54803F078FD0121F34804F0D3F894
:1002000001221146F04804F0F5F80021EE4803F011
:10021000D9FC1D208DF8000001208DF80100002080
:100220008DF8020001208DF80300684600F04DFEB5
:1002300009B000BD0EB50121084602F08EF940F26A
:100240001710ADF800000020ADF802004FF6FF7067
:1002500001900020ADF808008DF80A0069464FF0C3
:10026000804003F026FC0121880703F08DFC00216B
:100270004FF0804003F0A6FC0EBD00B589B04FF4EE
:10028000A06000F01DFE0121042002F066F90020AC
:10029000ADF80400ADF806004FF49D700290002008
:1002A000ADF80C008DF80E0001A9C84803F001FC60
:1002B0007021C64804F0E9F8022300221146C34821
:1002C00004F040F90020ADF8100040F2091006904B
:1002D00004A9BE4803F082FC01220321BB4804F0BC
:1002E00089F80121B94804F099F80121B74803F0D1
:1002F0004BFC0020B549243108600021B34803F0CD
:1003000061FC1E208DF8000000208DF801008DF8A2
:10031000020001208DF80300684600F0D6FD09B008
:1003200000BD2DE9F04F95B004460D4692469B4620
:10033000A74EA84FA849A948CDE91210A849A94835
:10034000CDE9101000BF00BF00BFA749A748CDE905
:100350000E1022462B462046294607F070FE00224A
:10036000A34BCDE90A0107F0DCFE804689464046F2
:100370004946DDE9122307F062FECDE90001DDE91F
:10038000102307F0B5FD9B4A9B4BCDE90401504675
:10039000594607F04EFECDE90201DDE9042307F0DE
:1003A0004EFE32463B46CDE9060107F048FECDE958
:1003B0000A0140464946DDE90E2307F03AFE32467F
:1003C0003B46CDE9060107F03AFECDE90801DDE93B
:1003D0000A2307F08DFDCDE90C01DDE90C0115B014
:1003E000BDE8F08F00B58BB001211F2002F06CF842
:1003F00002208DF8280000208DF82A0001208DF8B9
:100400002B0003208DF829000120099009A97B48C1
:1004100001F074FC02220021784801F06BFD0120FC
:100420008DF8280000208DF82A0001208DF82B007F
:1004300003208DF829004FF48060099009A96F48C6
:1004400001F05CFC01208DF8280000208DF82A00C6
:1004500001208DF82B0003208DF82900062009903B
:1004600009A9674801F04AFC01208DF82800002006
:100470008DF82A0001208DF82B0003208DF829002B
:100480003020099009A95E4801F038FC01208DF860
:10049000280000208DF82A0001208DF82B00032071
:1004A0008DF829004FF48070099009A9554801F092
:1004B00025FC02208DF8280000208DF82A0001205C
:1004C0008DF82B0003208DF829000120099009A93F
:1004D0004C4801F013FC022200214A4801F00AFDB9
:1004E0000121022002F039F842F2CF00ADF81800E5
:1004F0000020ADF81A00012007900020ADF8200080
:100500008DF8220006A9304803F0D3FA6020ADF838
:1005100004000120ADF806000220ADF81000C00173
:10052000ADF814000120039001A9274803F0DCFB7B
:100530000121254803F037FF01221146224803F02C
:1005400059FF0021204803F03DFB0121084602F03D
:1005500004F840F21710ADF818000020ADF81A00AA
:100560004FF6FF7007900020ADF820008DF82200B4
:1005700006A94FF0804003F09CFA0121880703F0A0
:1005800003FB0121880703F01DFB0121042001F07A
:10059000E4FF0020ADF81800ADF81A0040F2491051
:1005A00007900020ADF820008DF8220006A907482A
:1005B00003F07FFA7021054803F067FF0223002251
:1005C0001146024820E000000004004000080040FE
:1005D000103D29931ADA903F38842A357BA0353FA5
:1005E0008FC2F5285C8FDA3F32FE7DC6059A9540B2
:1005F00000408F40CDCCCCCCCC4C3A4000040240E3
:10060000000802400010024003F09CFF0020ADF8FB
:1006100004004FF48C70039001A9BB4803F0DEFA8C
:1006200001220321B84803F0E5FE0121B64803F09A
:10063000F5FE0121B44803F0A7FA0020B2492431A5
:1006400008600021B04803F0BDFA1E208DF80000BC
:1006500001208DF8010000208DF8020001208DF8A6
:100660000300684600F031FC1D208DF800000120D9
:100670008DF8010000208DF8020001208DF80300A4
:10068000684600F022FC0BB000BD30B589B00446CE
:10069000002540F20250844226D99C48844223D24D
:1006A0004010B0FBF4F5681E80B2ADF818000020D1
:1006B000ADF81A00012007900020ADF820008DF859
:1006C000220006A9924803F0F4F96020ADF8040076
:1006D0000120ADF806000220ADF810000020ADF8B2
:1006E00014000120039073E040F20250844225D8A8
:1006F000802C23D98748B0FBF4F5681E80B2ADF892
:1007000018000020ADF81A00132007900020ADF863
:1007100020008DF8220006A97D4803F0CAF9602068
:10072000ADF804000120ADF806000220ADF810007D
:100730000020ADF814000A20039049E0802C26D850
:100740004AF21040B0FBF4F5681E80B2ADF8180014
:100750000020ADF81A0040F2CF7007900020ADF8ED
:1007600020008DF8220006A9694803F0A2F9602054
:10077000ADF804000120ADF806000220ADF810002D
:100780000020ADF814004FF47A70039020E05F4829
:1007900084421DD90020ADF81800ADF81A000120E0
:1007A00007900020ADF820008DF8220006A95848D7
:1007B00003F07FF96020ADF804000120ADF80600D9
:1007C0000220ADF810000020ADF8140001200390C5
:1007D00001A94F4803F088FA09B030BD70B505464D
:1007E0000C462846FFF751FF4B480470002048494B
:1007F0002431086024B90021454803F0E3F903E0FF
:100800000121434803F0DEF970BD10B5002400213A
:10081000424A1160516001213B4803F0D3F90CE0DA
:10082000012007F09DFA641CB4F57A7F05D90024F5
:1008300000213A4A1160516003E0394800780028ED
:10084000EED000BF00203649087000212E4803F08A
:10085000B9F900202C4924310860304903C910BD82
:100860002DE9F047814600240026484604F0CFFADF
:10087000002004F0AFFA0A2007F072FA4FF4FA747D
:1008800012E044F62060B0FBF4F0C6B2142120461A
:10089000FFF7A4FF012E03DA012007F061FA02E05E
:1008A000304607F05DFA323441F288308442E8D3B2
:1008B000012004F08FFA0A2007F052FAFFF7A5FF93
:1008C000074607F0F9FC0546002004F083FA2846A5
:1008D00007F0A3FC07461E21FFF780FF284607F01C
:1008E0009CFC47F23051B1FBF0F0C6B2304607F045
:1008F00037FA012004F06EFA0A2007F031FAFFF708
:1009000084FFBDE8F08700000008004000BD01053D
:10091000000400404016400000000020200000209D
:100920002800002000B587B00121084601F0CCFD69
:100930000121080301F022FEE020059002208DF83D
:10094000180000208DF81A0003208DF819000120EE
:100950008DF81B0005A9F44801F0D0F94FF4807020
:10096000059001208DF8180000208DF81A00032052
:100970008DF8190001208DF81B0005A9EA4801F047
:10098000BDF905221146E84801F0B4FA0522062116
:10099000E54801F0AFFA05220721E34801F0AAFA81
:1009A0000121080301F03FFE00214FF4805001F0C7
:1009B0003AFE0020ADF800004FF48270ADF802005E
:1009C0000020ADF804000220ADF806000120ADF8CB
:1009D00008004002ADF80A002020ADF80C0000200D
:1009E000ADF80E000720ADF810006946CF4802F0C0
:1009F000BFFD0121CD4802F0B5FE07B000BD10B526
:100A00000446CA4800884FF6C7710840C7490880A5
:100A100008460088204308800121C44802F0A2FE55
:100A200010BD70B5044600BF0221C04802F064FF4B
:100A30000028F9D02146BD4802F015FF00BF012172
:100A4000BA4802F059FF0028F9D0B84802F008FF70
:100A5000C5B2284670BD10B5FF20FFF7E2FF04467F
:100A6000204610BD10B54FF4FA7007F079F94FF435
:100A70008071AD4801F031FAFFF7EDFF10BD10B500
:100A8000FFF750FF3820FFF7BAFF4FF48071A648F8
:100A900001F023FA10BD2DE9F14F8CB000200A902F
:100AA0000990089000BF00BF00BF00210691079188
:100AB0000E460F4605900C9804F0A9F90020059009
:100AC0005AE0FFF7CFFF0990099800F08000002856
:100AD00049D109988DF82800FFF7BDFF8DF829004E
:100AE000FFF7B9FF8DF82A00FFF7B5FF8DF82B004F
:100AF0009DF8280000069DF8291000EB01409DF8A4
:100B00002A1000EB01209DF82B100844089088491A
:100B1000089808400890089800090890089807F07D
:100B20006FFB0022834BCDE9000107F0FAFA824AFD
:100B3000824BCDE9020107F082FA80468946099886
:100B400000F0400020B100BF00210691079101E0B4
:100B500046464F4600208DF828008DF829008DF874
:100B60002A008DF82B004FF480716F4801F0B3F923
:100B70000598401CC0B2059005980428A1DB3046BA
:100B80003946DDE9062307F083FB08D230463946B3
:100B9000DDE9062307F04DFA04460D4607E032462C
:100BA0003B46DDE9060107F044FA04460D462246BD
:100BB0002B466148614907F03CFA0022604BCDE9C1
:100BC000020107F0AEFA82468B4652465B4620464B
:100BD000294607F0A6FA04460D46204629460DB0E0
:100BE000BDE8F08F2DE9F04F8FB004460D4600228E
:100BF000544B2046294607F04BFB36D20022524B7D
:100C00002046294607F030FB2FD200224F4B2046CA
:100C1000294607F011FA4E4A4E4BCDE9040107F080
:100C20000EFA80464C4A4D4B07F006FACDE9060114
:100C300008F008FC4A4A4B4BCDE9080107F0F9F9E6
:100C400000224FF08043CDE90A0107F06AFA82469C
:100C5000454A464B07F065FA00223C4BCDE90C01B2
:100C600007F05FFA06460F4658E00022404B204648
:100C7000294607F00DFB4FD200223E4B2046294665
:100C800007F0F2FA48D22046294608F0EDF9CDE9FE
:100C900004012046294608F0E7F9804689462046A7
:100CA000294608F0E1F9344A344BCDE9000107F058
:100CB000C6F9824642464B4607F0C1F9CDE902012A
:100CC000DDE9042307F0BBF9CDE9080120462946F8
:100CD00008F0CAF982462A4A2A4B07F0B0F9804642
:100CE000294A2A4B07F004F9CDE90601DDE908237A
:100CF00007F0FEF802460B46CDE90A010020244920
:100D000007F00FFA4FF03332224BCDE90C0107F018
:100D100090F906460F4601E0002637463046394630
:100D20000FB0BDE8F08F000000000240003001402D
:100D3000F0FFFF0F00007041F6285C8FC2F51340F2
:100D40000024D340000014400000694000005940D6
:100D5000B45208E412472EBF5B0E2DD73F8DC33F20
:100D60006CEC12D55B03D93F88CE19EEAF60A3BE01
:100D700000406F40006AF8400E7007C2835A7B3E05
:100D800042823D810B0D2F3F23090CA36A05573F7B
:100D90000000F03F3313714010B502460B460AB90C
:100DA000002010BD14784FF6FF70834201D100205F
:100DB000F7E7012102E0505C4440491C581E88427C
:100DC000F9DA2046EDE710B5374804F0FDFE10BD16
:100DD0002DE9F04391B00446884615461E4600278B
:100DE000202109A807F047F8202101A807F043F8BF
:100DF0002EA109A807F04AF8214609A807F046F8ED
:100E0000414609A807F042F82AA109A807F03EF8D0
:100E1000002240F22551244803F095FD09A807F06F
:100E200053F81FFA80F94A4609A91F4805F034F81B
:100E30004FF4967006F094FF012240F225511A48B3
:100E400003F081FD23E01C48006804F041FEB0B1CE
:100E500006F083FF19490968401A1E280FD9324647
:100E600001A9114805F068F801A807F02DF8A0F1D4
:100E700002094A4601A9284606F0E4FF08E00120DD
:100E800006F06EFF7F1CB7F57A6F00D900E0DAE755
:100E900000BF202109A806F0EEFF202101A806F0DE
:100EA000EAFF11B0BDE8F083004800402444544CF0
:100EB0004F472C000D0A00004C0000205800002075
:100EC00032490143324A1160704770B50021002356
:100ED0000F22C4781CB32E4C246804F4E064C4F5DB
:100EE000E064C4F30721C1F10404E3B20A41447889
:100EF0009C40E1B28478144021430C07210E254C1C
:100F000005786155047804F01F050124AC4005788C
:100F10006D11AD0005F1E025C5F8004109E0047848
:100F200004F01F050124AC401B4D0678761145F8EE
:100F3000264070BD194A0A400243154B1B1F1A6018
:100F4000704739B1124A121D12680243104B1B1D23
:100F50001A6006E00E4A121D126882430C4B1B1DDC
:100F60001A607047042808D14FF0E021096941F068
:100F700004014FF0E022116107E04FF0E021096920
:100F800021F004014FF0E022116170470000FA05E2
:100F90000CED00E000E400E080E100E080FFFF1FD6
:100FA00010B50121080201F03EFB00214FF48070D2
:100FB00001F039FB10BD30B5024600200023506817
:100FC000F84C20400D790C6844EA05242043506019
:100FD0009068F54C2040D1E903542C438D682C4394
:100FE0004D7944EA450420439060D06A20F47000B3
:100FF0000C7D641EE4B2234340EA0350D06230BD4E
:1010000000210160017141718160C16001610121B4
:10101000017570470021E54A1168E54A1140D0E9A1
:1010200000231A4383681A43C3681A431143E14AF1
:10103000C2F8041370470021016041608160C16003
:10104000704721B1826842F00102826003E0826849
:1010500022F00102826070470A4600214168D64BA7
:1010600019401143416070474162826270470A46ED
:101070000021416821F01F0111434160704738B1E0
:10108000CA49096841F40001CA4AC2F8041306E0DB
:10109000C649096821F40001C64AC2F80413704722
:1010A00038B1C249096841F48001C24AC2F8041348
:1010B00006E0BE49096821F48001BE4AC2F8041363
:1010C0007047F0B504460D4600200021092D11DDC2
:1010D000E068A5F10A0606EB4607072606FA07F1BF
:1010E0008843A5F10A0606EB460603FA06F1084313
:1010F000E0600CE0206905EB4507072606FA07F1DA
:10110000884305EB450603FA06F108432061072AE8
:101110000FDA606B561E06EB86071F2606FA07F1EC
:101120008843561E06EB860605FA06F108436063FF
:1011300022E00D2A0FDA206BD61F06EB86071F264A
:1011400006FA07F18843D61F06EB860605FA06F174
:101150000843206310E0E06AA2F10D0606EB860763
:101160001F2606FA07F18843A2F10D0606EB860654
:1011700005FA06F10843E062F0BD816841F0804164
:1011800081607047014600208A6802F080420AB1FF
:10119000012000E00020704721B1826842F48062A3
:1011A000826003E0826822F480628260704721B12D
:1011B000826842F00202826003E0826822F002024A
:1011C0008260704710B50A4600210023416821F46F
:1011D0006041531E41EA4331416010BD21B1426874
:1011E00042F40062426003E0426822F4006242601E
:1011F00070470146C86C80B270476C48001D00689B
:10120000704721B1826842F48072826003E0826894
:1012100022F480728260704721B1826842F40072C9
:10122000826003E0826822F400728260704738B105
:101230005E49096841F400515E4AC2F8041306E0B1
:101240005A49096821F400515A4AC2F804137047F8
:10125000F0B504461546002000220026092911DDBC
:10126000E068A1F10A0707EB470C072707FA0CF221
:101270009043A1F10A0707EB470703FA07F210436F
:10128000E0600CE0206901EB410C072707FA0CF243
:10129000904301EB410703FA07F210432061A06B72
:1012A000C0F30156EF1C06F1010CA7EB0C0707EB8E
:1012B000870C1F2707FA0CF29043EF1C06F1010C74
:1012C000A7EB0C0707EB870701FA07F21043A063AF
:1012D000F0BD10B50A4600210023816B21F44011B6
:1012E000531E41EA0351816310BD08B500230093EA
:1012F0000090009B0B440093009B1A6008BD0A46B7
:101300000021816821F470211143816070470A46F1
:101310000021816821F44011114381607047816888
:1013200041F4800181607047014600208A6802F420
:1013300080020AB1012000E00020704721B142681C
:1013400042F48062426003E0426822F480624260BC
:10135000704721B1426842F48052426003E0426823
:1013600022F480524260704708B502460020009087
:10137000009201F12800009B18440090009800683A
:1013800080B208BD10B50B460021D9B2012404FA81
:1013900001F11AB144680C43446002E044688C4394
:1013A000446010BDFFFEFFFCFDF7FFC004230140B9
:1013B000E030FCFF00200140FFFD3FFF024600201F
:1013C00013680B400BB1012000E000207047CA43B6
:1013D0000260704770B502460020002300240B1203
:1013E000556801268E4005EA060415681D4015B1B2
:1013F0000CB1012000E0002070BD00220A12D3438E
:1014000003607047012010498860704701460E480C
:1014100001600068704710B502460B46002100BF0E
:1014200004E052F82100084C2060491C9942F8D38E
:101430000548006810BD04480068704702490871FB
:101440007047014800797047003002400020414950
:101450000860091D0860091D0860091D08603E48F4
:101460003C4914310860704700213A498279002ACA
:101470003AD00A46126803689A430B461A600A1D5E
:10148000126803689A430B1D1A60027911440A68B6
:1014900003681A430A602F4A0832126803689A43A5
:1014A0002C4B08331A601A1D126803689A43294BA3
:1014B0000C331A604279102A0ED11A1F1268036881
:1014C0001A43244B08331A601A1D126803681A4322
:1014D000204B0C331A600DE01E49427911440A6812
:1014E00003681A430A6005E0027911440A68036838
:1014F0009A430A6070470021016001710C2141711B
:101500000021817170471349103109680143114A64
:10151000103211607047014600200E4A14321268E2
:101520000A400AB1012000E0002070470949143147
:101530000860704701460020064A143212680A40CB
:101540000AB1012000E00020704702491431086010
:1015500070470000003C0140FFFF7F00FE4A107012
:10156000704730B1FC49096841F48071FA4A116052
:1015700005E0F949096821F48071F74A1160704764
:1015800030B1F549096841F40071F34A116005E092
:10159000F149096821F40071EF4A1160704730B1D8
:1015A000ED49096841F48061EB4A116005E0EA49C0
:1015B000096821F48061E84A11607047E6480068D4
:1015C00040F40060E44908607047E348006840F474
:1015D0008050E14908607047DF481030006800F033
:1015E000004028B1DD48DC49091D0860DC4808607E
:1015F0007047D9481030006840F00040D64910319B
:10160000086070470920D4490C31096801F4803121
:10161000B1F5803F01D1012020E0CF490C310968AC
:1016200001F0100109B1062018E0CB490C3109681E
:1016300001F4807109B1022010E0C7490C3109683A
:1016400001F0EF0109B1072008E0C3490C31096836
:1016500001F0020109B1082000E00920704708B537
:1016600009200090FFF7CEFF009002E0FFF7CAFFCD
:1016700000909DF800000128F8D09DF8000008BDFA
:1016800070B504460A460026092502B909E0012A78
:1016900001D1160205E0022A01D1160201E04FF441
:1016A0004076FFF7DCFF0546092D2DD1AA48103002
:1016B000006820F44070A8491031086008460068AE
:1016C000304308600846006820F0F80008600846CB
:1016D000006844F0020108439F4910310860084641
:1016E000006840F480300860FFF7B9FF05469A486B
:1016F0001030006820F00200974910310860084659
:10170000006820F0F8000860284670BD30B5024639
:1017100000250924FFF7A3FF044602B909E0012AC6
:1017200001D1150205E0022A01D1150201E04FF4B2
:101730004075092C20D188481030006820F4407092
:10174000854910310860084600682843086008464B
:10175000006840F0040008600846006840F48030EB
:101760000860FFF77CFF04467B481030006820F0DB
:101770000400794910310860204630BD30B502467A
:1017800000250924FFF76BFF044602B909E0012A8E
:1017900001D1150205E0022A01D1150201E04FF442
:1017A0004075092C20D16C481030006820F440703E
:1017B00069491031086008460068284308600846F7
:1017C000006840F0040008600846006840F480307B
:1017D0000860FFF744FF04465F481030006820F0BF
:1017E00004005D4910310860204630BD30B5024626
:1017F00000250924FFF733FF044602B909E0012A56
:1018000001D1150205E0022A01D1150201E04FF4D1
:101810004075092C20D150481030006820F44070E9
:101820004D491031086008460068284308600846A2
:10183000006840F4004008600846006840F48030CA
:101840000860FFF70CFF044643481030006820F49E
:101850000040414910310860204630BD70B5064651
:1018600014461D460922FFF7FAFE0246092A1ED138
:1018700039481030006820F4407037491031086052
:101880000846006840F4407008600846006840F070
:101890000100086034607560FFF7E1FE02462E48E3
:1018A0001030006820F001002B491031086010460C
:1018B00070BD30B502460C460925FFF7D0FE05463F
:1018C000092D1DD124481030006820F440702249B1
:1018D000103108600846006840F40070086008464F
:1018E000006840F0010008601460FFF7B8FE05468C
:1018F00019481030006820F00100174910310860C5
:10190000284630BD30B502460C460925FFF7A7FE34
:101910000546092D1DD110481030006820F4407094
:101920000D49103108600846006840F48070086076
:101930000846006840F0010008601480FFF78FFE41
:10194000054605481030006820F0010002491031BA
:101950000860284630BD0000003C02402301674576
:10196000AB89EFCD30B502460C460925FFF777FE6F
:101970000546092D17D19B48006820F4407099490D
:1019800008600846006808600846006840F00100EA
:1019900008601470FFF763FE05469248006820F067
:1019A000010090490860284630BD8E48001D00683F
:1019B00000F0010028B18C488A49083908608B483A
:1019C000086070478748001D006840F001008549A5
:1019D000091D0860704730B502460C460925FFF71F
:1019E0003EFE0546092D10D13CB17E48801D008881
:1019F00090437C49891D088007E07A48801D008853
:101A000091B208437749891D088030BD30B5024640
:101A10000C460925FFF723FE0546092D10D13CB1E0
:101A200070480A30008890436E490A31088007E008
:101A30006C480A30008891B208436A490A3108802C
:101A400030BDFF21674AD21D127802F07F0140EAC3
:101A50000102644BDB1D1A70704730B502460C461C
:101A60000925FFF7FCFD0546092D10D144B15D485D
:101A7000801D008891B208435A49891D088006E0FC
:101A80005848801D008890435649891D088030BD04
:101A900030B502460C460925FFF7E1FD0546092D44
:101AA00010D144B14F480A30008891B208434D49E3
:101AB0000A31088006E04B480A30008890434949C3
:101AC0000A31088030BD10B502460924FFF7C7FD72
:101AD0000446092C02D14348401D027010BDF0B5E8
:101AE00004460D46FF260927FFF7B9FD0746092FD3
:101AF0000BD13C48001D007800F00F0645EA0600B7
:101B0000104320433749091D0870F0BD3549091DB0
:101B1000097821F01001334A121D1170114609781D
:101B20000143117070472F49091D097821F00C01FC
:101B30002C4A121D1170114609780143117070472B
:101B400000B509222748001D007840F00200254911
:101B5000091D0870FFF783FD0246104600BD2148AD
:101B6000001D0068C0F3471070471E48801D0088A4
:101B700070471C480A30008870471A48801D00884A
:101B8000704718480A300088704700201549491DE1
:101B90000978AA2901D0012000E0002070471148EF
:101BA000001D007800F00C00704729B10D4A126842
:101BB00002430C4B1A6004E00A4A12688243094B44
:101BC0001A60704701460020064A121F12680A4038
:101BD0000AB1012000E0002070470249091F086097
:101BE00070470000103C02403B2A19087F6E5D4C94
:101BF00010B50446D148844208D10121084600F0BE
:101C0000CEFC0021012000F0CAFC76E0CC488442E2
:101C100008D10121022000F0C2FC0021022000F0C6
:101C2000BEFC6AE0C748844208D10121042000F0CC
:101C3000B6FC0021042000F0B2FC5EE0C248844201
:101C400008D10121082000F0AAFC0021082000F0A2
:101C5000A6FC52E0BD48844208D10121102000F0CA
:101C60009EFC0021102000F09AFC46E0B848844217
:101C700008D10121202000F092FC0021202000F05A
:101C80008EFC3AE0B348844208D10121402000F0A4
:101C900086FC0021402000F082FC2EE0AE48844209
:101CA00008D10121802000F07AFC0021802000F082
:101CB00076FC22E0A948844208D10121801500F079
:101CC0006EFC0021A01500F06AFC16E0A4488442D6
:101CD00008D10121401500F062FC0021601500F0E0
:101CE0005EFC0AE09F48844207D10121001500F004
:101CF00056FC0021201500F052FC10BDF0B50A463C
:101D000000210023002400BF3DE0012505FA01F376
:101D1000156805EA03049C4234D105684F00032688
:101D2000BE40B543056015794E00B54006683543A1
:101D300005601579012D02D01579022D16D185681F
:101D40004F000326BE40B543856055794E00B5402F
:101D5000866835438560456801268E40B5434560F9
:101D6000456896798E40B6B235434560C5684F00E8
:101D70000326BE40B543C560D5794E00B540C66860
:101D80003543C560491C1029BFD3F0BD2DE9F0478C
:101D90000C46DDE90867002100258C4600BF62E0A3
:101DA0004FF0010808FA01F504EA050CAC4559D1D9
:101DB000D0F800804FEA410A4FF0030909FA0AF906
:101DC00028EA0908C0F80080D0F800804FEA4109ED
:101DD00002FA09F948EA0908C0F80080012A01D08E
:101DE000022A29D1D0F808804FEA410A4FF00309AE
:101DF00009FA0AF928EA0908C0F80880D0F808802A
:101E00004FEA410903FA09F948EA0908C0F80880CD
:101E1000D0F804904FF0010808FA01F829EA0809FF
:101E2000C0F80490D0F8048006FA01F91FFA89F985
:101E300048EA0908C0F80480D0F80C804FEA410A4B
:101E40004FF0030909FA0AF928EA0908C0F80C80DA
:101E5000D0F80C804FEA410907FA09F948EA090865
:101E6000C0F80C80491C10299AD3BDE8F0874FF6C2
:101E7000FF7101600021017141718171C171704771
:101E800008B54FF480320092009A0A430092009AFB
:101E9000C261C161009AC261C2690092C2690092C6
:101EA00008BD0246002013690B400BB1012000E081
:101EB000002070470146086980B270470246002042
:101EC00053690B400BB1012000E000207047014630
:101ED000486980B2704701837047418370470AB1F7
:101EE000018300E0418370474161704742694A4085
:101EF00042617047F0B5002300244D07ED0E02FA51
:101F000005F3CE1000F1200555F826504E07F70EC8
:101F10000F26BE40B543CF1000F1200646F82750EB
:101F2000CE1000F1200555F8265045EA0304CE10E6
:101F300000F1200545F82640F0BD000000000240F9
:101F40000004024000080240000C02400010024061
:101F50000014024000180240001C02400020024011
:101F600000240240002802400E49086070470D49D5
:101F7000486070470B49886070474AF6AA200949B3
:101F8000086070474CF6CC4006490860704701462F
:101F90000020044AD2680A400AB1012000E0002073
:101FA000704700000030004010B50121080700F024
:101FB00029FB00214FF0805000F024FB10BD524956
:101FC0000862704701460020504A106820F0E00087
:101FD0000843106070474C49086170474A49A03176
:101FE000086070474849A4310860704701460020E6
:101FF000464A106820F44040084310607047424948
:102000000864704740494864704730B13F490968E7
:1020100041F440213D4A116005E03C49096821F442
:1020200040213A4A1160704718B10121364AD16205
:1020300002E00021344AD162704718B10121324ACE
:10204000916202E00021304A916270472E49486255
:10205000704710B5024600202C4B186840F6034329
:1020600098431043294B1860294B1B6843F0040325
:10207000274C2360012901D130BF00E020BF244B51
:102080001B6823F00403224C236010BD10B50246E8
:1020900000201E4B186840F60343984310431B4B27
:1020A00018601B4B1B6843F00403194C2360012983
:1020B00001D130BF00E020BF154B1B6823F00403A3
:1020C000134C236010BD1148006840F002000F4916
:1020D00008600F48006840F004000D49086000BF28
:1020E00000BF30BF704701460020084A52680A40CE
:1020F0000AB1012000E0002070470449096841EA64
:102100008001024A1160704700000E4200700040DA
:1021100010ED00E0F948006840F00100F749086060
:102120000020F64908310860F4480068F449084086
:10213000F2490860F348091D0860F348EF4984310B
:102140000860F0481038091D0860EC48006820F469
:102150008020EA4908600020E8490C310860E7491E
:102160008C31086070470021E44A921C11701146BE
:102170000870704710B501460022002300204A1164
:10218000012A02D1DD4C236808E0022A03D1DB4C8E
:102190007034236802E0D94C7434236801F01F02C4
:1021A000012494401C400CB1012000E0002010BD2F
:1021B00038B5002000900024002500BF3120FFF733
:1021C000D9FF05460098401C00900098B0F5A04F3C
:1021D00001D0002DF2D03120FFF7CCFF08B101244F
:1021E00000E00024204638BD01460020C34A1068A4
:1021F00020F0F80040EAC10010607047C349086051
:1022000070470021BD4A703211701170012802D050
:1022100004280AD104E00121B84A7032117005E0A7
:102220000521B64A7032117000E000BF00BF704750
:10223000B7490860704770B5049C41EA82150126D1
:10224000C6EB530645EA0645054345EA0465AB4E31
:10225000361D356070BDAD4908667047820142EA9F
:102260000172A64B84331A607047A849886670478C
:1022700010B5830143EA016343EA02739F4C88343B
:10228000236010BDA14908677047A049C864704722
:1022900002460020994B0833186820F0EC6042EAAF
:1022A00001031843954B083318607047024600201D
:1022B000924B0833186820F0784042EA0103184333
:1022C0008E4B083318607047014600208B4A083255
:1022D000106820F0030008431060704787480830FA
:1022E000006800F00C00704701460020834A083265
:1022F000106820F0F000084310607047014600208D
:102300007E4A0832106820F4E0500843106070479D
:1023100001460020794A0832106820F4604040EA03
:10232000C10010607047F0B5002100220024022592
:1023300000260223714F08373F6807F00C0121B1D6
:10234000042905D0082937D105E0724F076036E02F
:10235000714F076033E0694F3F1D3F68C7F38056F8
:10236000664F3F1D3F6807F03F036EB16A4FB7FBF2
:10237000F3F7DFF888C10CF1040CDCF800C0CCF3F3
:10238000881C07FB0CF40CE0624FB7FBF3F7DFF897
:102390006CC10CF1040CDCF800C0CCF3881C07FB0A
:1023A0000CF4564F3F1D3F68C7F301477F1C7D006B
:1023B000B4FBF5F7076002E0564F076000BF00BFAF
:1023C0004E4F08373F6807F0F0010909534F7A5C18
:1023D0000768D7404760494F08373F6807F4E05126
:1023E000890A4E4F7A5C4768D7408760434F083769
:1023F0003F6807F46041490B484F7A5C4768D74013
:10240000C760F0BD002100F44072B2F5407F0AD1F0
:102410003A4A0832116821F4F811414A0240114346
:10242000364A08321160354A70321268C0F30B0325
:102430001A43324B70331A6070473549443908608B
:102440007047334940390860704736490860704723
:1024500001460020294A8C32106820F01F004A1ED5
:102460001043264A8C321060704701460020234AF0
:102470008C32106820F4F8504A1E40EA02201F4AAD
:102480008C3210607047014600201C4A8C32106864
:1024900020F4401008431060704701460020174A9E
:1024A0008C32106820F440000843106070470146E9
:1024B0000020124A8C32106820F44030084310602B
:1024C000704719490860704739B10C4A30321268B8
:1024D00002430A4B30331A6006E0084A3032126871
:1024E0008243064B30331A607047F9B1034A3432E5
:1024F00012680243014B34331A601CE0003802407A
:10250000FFFFF6EA103000240030002000004742B0
:10251000800E47420024F40000127A0001000020DF
:10252000FFFCFF0F5C014742E01147428F4A1268EF
:1025300082438E4B1A60704739B18C4A121D126863
:1025400002438A4B1B1D1A6006E0884A121D12685E
:102550008243864B1B1D1A60704739B1834A0C3287
:1025600012680243814B0C331A6006E07F4A0C323A
:10257000126882437D4B0C331A60704739B17B4A35
:10258000103212680243794B10331A6006E0774A22
:10259000103212688243754B10331A60704739B19C
:1025A000724A243A12680243704B243B1A6006E0D8
:1025B0006E4A243A126882436C4B243B1A6070477F
:1025C00039B16A4A203A12680243684B203B1A60CC
:1025D00006E0664A203A12688243644B203B1A6048
:1025E000704739B1614A1C3A126802435F4B1C3B89
:1025F0001A6006E05D4A1C3A126882435B4B1C3B42
:102600001A60704739B1594A143A12680243574B5D
:10261000143B1A6006E0554A143A12688243534B41
:10262000143B1A60704739B1504A103A126802439D
:102630004E4B103B1A6006E04C4A103A1268824337
:102640004A4B103B1A60704739B1484A1C32126835
:102650000243464B1C331A6006E0444A1C3212689F
:102660008243424B1C331A60704739B13F4A2032D3
:10267000126802433D4B20331A6006E03B4A203289
:1026800012688243394B20331A60704739B1374A98
:10269000243212680243354B24331A6006E0334A71
:1026A000243212688243314B24331A60704739B1A7
:1026B0002E4A2C32126802432C4B2C331A6006E04F
:1026C0002A4A2C3212688243284B2C331A607047F6
:1026D00039B1264A303212680243244B30331A6033
:1026E00006E0224A303212688243204B30331A60AF
:1026F0007047012808D11D493C31096841F00801A3
:102700001A4A3C32116007E018493C31096821F04F
:102710000801164A3C321160704739B1134A273A12
:1027200012780243114B273B1A7006E00F4A273AF2
:10273000127882430D4B273B1A7070470B4840308C
:10274000006840F0807009494031086070470146D8
:102750000020064A283A12680A400AB1012000E027
:10276000002070470149263908707047343802400C
:1027700008B50022009200200021CA22F94B1A60FD
:1027800053221A60F74A183A126822F0A002F54B59
:10279000183B1A6000BFF34A183A126802F0200191
:1027A000009A521C0092009AB2F5003F01D0002915
:1027B000F1D0EC4A183A126802F020020AB1012066
:1027C00000E00020FF22E74B1A6008BD08B5002298
:1027D000009200200021E34A183A126802F04002F9
:1027E000E2B9421EDF4B183B1A6000BFDD4A183ABF
:1027F000126802F04001009A521C0092009AB2F551
:10280000803F01D00029F1D0D64A183A126802F070
:1028100040020AB1012002E0002000E0012008BDD2
:1028200038B50020009000240025CA20CD4908605A
:1028300053200860FFF7CAFF00B952E00020C949E1
:102840002439086042F20110091D0860081D006863
:1028500000F00700091D086000BFC2481838006872
:1028600000F004040098401C00900098B0F5803FF0
:1028700001D0002CF1D0BB481838006800F00400EB
:1028800008B900252DE0B7481C3800680020B5497C
:102890001C3908604FF6FF70B24910390860B24821
:1028A000091F08600020AF490C390860091D086045
:1028B000091D0860AB4908310860AA491831086051
:1028C000A84920310860091D0860A6491839086028
:1028D000A4491C310860FFF74BFF08B9002500E050
:1028E0000125FF209F490860284638BD9D481838BB
:1028F000006820F080009B4918390860704730B5A7
:1029000004460025CA209749086053200860FFF755
:102910005DFF00B91DE093481C38006820F04000BE
:1029200090491C39086008460068216808438D49B1
:102930001C3908608B491439A06808600846006893
:10294000A18840EA0140874914390860FFF7CEFFAB
:102950000125FF2083490860284630BD0021016021
:102960007F214160FF218160704718B1FF217D4ABE
:10297000116004E0CA217B4A116053211160704745
:1029800030B504460025CA20764908605320086007
:10299000FFF71CFF00B914E044B172481C3800680E
:1029A00040F010006F491C39086007E06D481C3882
:1029B000006820F010006B491C390860FFF796FF93
:1029C0000125FF2067490860284630BDCA21654AB5
:1029D00011605321116040B162491C39096841F00E
:1029E0002001604A1C3A116007E05E491C39096801
:1029F00001F0DF015B4A1C3A1160FF21594A116066
:102A000070470146002204E0501CC2B2A1F10A0046
:102A1000C1B20A29F8DA100741EA1060704701468E
:102A200000BF080900EB8000420001F00F001044D5
:102A3000C0B270472DE9F04105460C46002600273C
:102A400055B948481C38006800F0400000B102E069
:102A50000020E07000BF0EE042481C38006800F023
:102A6000400020B12078FFF7DAFF064602E00020A0
:102A7000E07000BF00BF55B120780004617840EAE3
:102A80000120A1780843E17840EA014611E020786E
:102A9000FFF7B7FF4FEA00486078FFF7B2FF48EA58
:102AA0000028A078FFF7ADFF48EA0008E07848EA80
:102AB0000046CA202B49086053200860FFF786FEB5
:102AC00008B9002714E02948304026492439086015
:102AD000FFF70CFF23481C38006800F0200030B9D5
:102AE000FFF746FE08B9002702E0012700E00127B2
:102AF000FF201C4908603846BDE8F0810021C17004
:102B0000017041708170704770B506460C46002513
:102B1000144824380068154900EA0105C5F305404A
:102B20002070C5F30620607005F07F00A07005F4EA
:102B30008000000CE0705EB92078FFF770FF207015
:102B40006078FFF76CFF6070A078FFF768FFA070F7
:102B500070BD00200349091D086802492039096831
:102B60007047000024280040FF007F007F7F7F0027
:102B70002DE9F04105460C46002600274DB9607846
:102B800000F01000102804D1607820F010000A3006
:102B9000607005B908E06078FFF741FF0646A0784D
:102BA000FFF73DFF064600BF55B1E07800046178AD
:102BB00040EA0120A1780843217840EA413611E03B
:102BC000E078FFF71EFF4FEA00486078FFF719FF33
:102BD00048EA0028A078FFF714FF48EA00082078A8
:102BE00048EA4036CA20FE49086053200860FFF7D3
:102BF000EDFD08B9002714E0FA483040F8492039C3
:102C00000860FFF773FEF6481C38006800F02000EB
:102C100030B9FFF7ADFD08B9002702E0012700E059
:102C20000127FF20EE4908603846BDE8F081012108
:102C30000170817041700021C170704770B5064607
:102C40000C460025E64820380068E64900EA010500
:102C5000280CE070C5F30420607005F03F00A07000
:102C6000C5F3423020705EB9E078FFF7D8FEE0701F
:102C70006078FFF7D4FE6070A078FFF7D0FEA070F8
:102C800070BD2DE9F04105460E46144600276DB98A
:102C9000D3481C38006800F0400000B102E000207A
:102CA000E07000BFA06800B91AE019E0CC481C38F9
:102CB000006800F0400020B12078FFF7B0FE074622
:102CC00002E00020E07000BFA06820B9207BFFF781
:102CD000A6FE074604E0207BFFF7A1FE074600BFE3
:102CE00095B120780004617840EA0120A17808437A
:102CF000E17840EA0140217B40EA0160A168084395
:102D0000616840EA01071BE02078FFF77AFE4FEA8E
:102D100000486078FFF775FE48EA0028A078FFF7C2
:102D200070FE48EA0008E07848EA0048207BFFF798
:102D300068FE48EA0060A1680843616840EA01074C
:102D4000CA20A749086053200860B6F5807F03D1E8
:102D5000A3480838076002E0A148001F0760FF2071
:102D60009F490860BDE8F0810021C1700170417089
:102D700081708160012101730021416070472DE95C
:102D8000F04106460F4614460025B7F5807F03D173
:102D900093480838056802E09148001F0568C5F3AC
:102DA00005402070C5F30620607005F07F00A0701C
:102DB00005F48000000CE070C5F30560207305F099
:102DC0008040A06005F0803060607EB92078FFF719
:102DD00026FE20706078FFF722FE6070A078FFF773
:102DE0001EFEA070207BFFF71AFE2073BDE8F08165
:102DF00038B502460024009400230020CA24784DF0
:102E00002C6053242C6041B1754C1C3C2468144345
:102E1000734D1C3D2C6001201EE0714C1C3C24684D
:102E200094436F4D1C3D2C6000BF6D4C183C2468D2
:102E300004EA1223009C641C0094009CB4F5803FBB
:102E400001D0002BF1D0664C183C246804EA12240F
:102E50000CB9002000E00120FF24614D2C6038BD3A
:102E600030B50023CA245E4D2C6053242C6041EA07
:102E70000203B0F5807F03D1594C2034236002E077
:102E8000574C24342360FF24554D2C6030BD01463F
:102E90000020B1F5807F05D1514A20321268C2F37B
:102EA0000E0004E04E4A24321268C2F30E0070474E
:102EB000CA214B4A11605321116049491C390968E4
:102EC00021F00701464A1C3A116011460968014386
:102ED0001160FF21424A11607047CA21404A1160C7
:102EE000532111603E4910390860FF21116070477D
:102EF0003B481038006880B2704718B5014600237F
:102F0000009300220020CA23354C23605323236002
:102F100049B1334B1C3B1B6843F48063304C1C3C71
:102F2000236001201FE02E4B1C3B1B6823F48063B1
:102F30002B4C1C3C236000BF294B183B1B6803F043
:102F40000402009B5B1C0093009BB3F5803F01D003
:102F5000002AF1D0224B183B1B6803F004030BB985
:102F6000002000E00120FF231D4C236018BDCA2271
:102F70001B4B1A6053221A60194A1C3A126822F439
:102F80008022174B1C3B1A601A46126840EA010364
:102F90001A43134B1C3B1A60FF22114B1A607047F7
:102FA0000F481C38006800F480207047CA220C4B80
:102FB0001A6053221A600A4A1C3A126822F4E0028C
:102FC000074B1C3B1A601A46126840EA01031A4379
:102FD000034B1C3B1A60FF22014B1A607047000034
:102FE000242800403FFFFF0070B504460D46002630
:102FF000CA20F649086053200860FFF7E7FB00B9D4
:1030000007E044EA0500F1490C390860FFF76EFC5F
:103010000126FF20ED490860304670BD30B50446FA
:103020000025CA20E949086053200860FFF7CEFB5D
:1030300000B914E044B1E5481C38006840F0800055
:10304000E2491C39086007E0E0481C38006820F0BD
:103050008000DE491C390860FFF748FC0125FF208D
:10306000DA490860284630BDCA21D84A1160532188
:10307000116040B1D5491C39096841F40001D34AB7
:103080001C3A116007E0D1491C39096821F400019C
:10309000CE4A1C3A1160FF21CC4A11607047CA2108
:1030A000CA4A116053211160C8491C39096821F4CA
:1030B0000021C64A1C3A116011460968014311609B
:1030C000FF21C24A1160704770B5034600200024FA
:1030D000CA25BE4E356053253560BC4D183D2D6860
:1030E00005F4803555B100E0641CB84D183D2D68DD
:1030F00005F4803515B1B4F5003FF5D1B34D183D59
:103100002D6805F480353DB943EA01051543AF4EFE
:1031100018363560012000E00020FF25AB4E3560F9
:1031200070BD10B50A460021A84B1C3B1B6840F639
:10313000080423EA04011AB140F40063194300E0D3
:103140000143CA23A14C2360532323609F4B1C3BA4
:103150001960FF23236010BD2DE9F04180460C4625
:1031600015460026002799480C300068984900EA67
:103170000106964810300068964900EA0107C6F338
:1031800005402070C6F30620607006F07F00A07036
:1031900006F48000000CE0700020E870C7F3042003
:1031A000687007F03F00A870C7F342302870B8F18C
:1031B000000F17D12078FFF732FC20706078FFF7FE
:1031C0002EFC6070A078FFF72AFCA0706878FFF7EB
:1031D00026FC6870A878FFF722FCA8702878FFF713
:1031E0001EFC2870BDE8F0817848143000687047F4
:1031F00041B9764A1C32126822EA4002734B1C33F2
:103200001A6007E0714A1C32126842EA40026F4BB2
:103210001C331A60704739B16C4A1C321268024381
:103220006A4B1C331A6006E0684A1C3212688243FB
:10323000664B1C331A60704764491C31096821F4DD
:10324000C051624A1C321160114609680143116085
:1032500070475E491C31096821F4E0615B4A1C3209
:1032600011601146096801431160704757491C31CC
:10327000096821F4C041554A1C32116011460968A1
:1032800001431160704740B150491C31096841F059
:1032900080014E4A1C32116007E04C491C3109681C
:1032A00021F08001494A1C321160704740B1474902
:1032B0001C31096821F40041444A1C32116007E0C6
:1032C00042491C31096841F40041404A1C321160F6
:1032D000704708B5002200923C4A2C320092009AB6
:1032E00002EB80020092009A116008BD08B5014609
:1032F0000020009035482C300090009800EB8100B1
:1033000000900098006808BD30491C31096821F41C
:1033100080312E4A1C321160114609680143116048
:1033200070472A491C31096821F40031274A1C32B0
:1033300011601146096801431160704723491C312F
:10334000096821F48021214A1C3211601146096864
:10335000014311607047F0B504460D460027002672
:10336000CA201A49086053200860184818380068B5
:1033700000F0080050B100E0761C144818380068CE
:1033800000F0080010B1B6F5805FF5D10F4818388D
:10339000006800F0080098B90C481C38006800F07C
:1033A000100058B945EA0400084908310860FFF7E1
:1033B000DFF908B9002704E0012702E0002700E058
:1033C0000027FF20014908603846F0BD242800404E
:1033D0007F7F7F003FFFFF00CA223D4B1A605322D0
:1033E0001A6091B13A4A1C3A126820F004031A4359
:1033F000374B1C3B1A60364A1C32126800F004033B
:103400001A43334B1C331A6011E0314A1C3A1268DC
:1034100020F004039A432E4B1C3B1A602C4A1C32AA
:10342000126800F004039A43294B1C331A60FF22F0
:10343000274B1A60704710B5014600200022244B2C
:10344000183B1B68234C03EA040202EA01030BB198
:10345000012000E0002010BD81B241F080011C4A33
:10346000183A126802F0800262EA0101184A183A1A
:103470001160704730B50146002000220023144C33
:103480001C34246804F00402114C1C3C24680C40D9
:1034900002EAD13544EA05030D4C183C246804EADD
:1034A00011121BB194B20CB1012000E0002030BD1C
:1034B000002101098AB242F08002054B183B1B68CB
:1034C00003F0800363EA0202014B183B1A60704765
:1034D000242800407F3F010010B50446FB48844289
:1034E00008D101218014FFF79EF80021A014FFF7F6
:1034F0009AF83CE0F648844208D101210014FFF715
:1035000081F800212014FFF77DF830E0F148844273
:1035100008D10121C013FFF775F80021E013FFF770
:1035200071F824E0EC48844208D101214014FFF7EF
:103530007AF800216014FFF776F818E0E748844233
:1035400009D101210805FFF76EF800214FF4801022
:10355000FFF769F80BE0E248844208D101214805F1
:10356000FFF761F800214FF40010FFF75CF810BD81
:1035700010B50022028802F441520B884C88234384
:103580008C882343CC8823430C8923434C892343D1
:103590008C892343CC8923431A430280838B4FF2C7
:1035A000FF74234083830B8A038210BD2DE9F04F03
:1035B0000025022300244FF00109002200260027E5
:1035C00094469046B0F81CA04FF2400B0AEA0B0A52
:1035D000A0F81CA04FF0020AA0F820A0858BD1F81B
:1035E00008A0BAF1020F01D100BF82E0B1F804A037
:1035F000BAF1000F02D14FF0010901E04FF00209CA
:10360000DFF8E0A2DAF800A00AF4000ABAF1000F2D
:1036100009D0DFF8D0A2DAF800A02AF4000ADFF817
:10362000C4B2CBF800A0DFF8BCA20AF17C0ADAF839
:1036300000A0CAF3881CDFF8ACA20AF17C0ADAF811
:1036400000A0CAF30278DFF89CA2AAF1040ADAF813
:1036500000A00AF03F07DFF88CA2AAF1040ADAF80A
:1036600000A00AF4800ABAF5800F08D1DFF878A22A
:10367000BAFBF7FA0AFB0CFABAFBF8F607E0DFF838
:103680006CA2BAFBF7FA0AFB0CFABAFBF8F6B1F82F
:1036900006A0BAF5007F0ED14FEA162A0AEB8A0A75
:1036A0004FEA4A0AD1F808B0BAFBFBFA0AF1050A58
:1036B0001FFA8AF20FE04FEA491AB6FBFAFA0AEB50
:1036C0008A0A4FEA4A0AD1F808B0BAFBFBFA0AF1B3
:1036D000050A1FFA8AF24FF00A0AB2FBFAF202F068
:1036E0000104A2EB040ACAF34F034FF6FF7A0AEA79
:1036F0000424022B01DBFF2B01DD02230024B1F89F
:1037000006A04AEA040A4AEA030AA0F820A0B1F88F
:1037100004A0B1F80CB04AEA0B0AB1F802B04AEAC8
:103720000B0AB1F800B04AEA0B0A4AF4006A4AEA06
:1037300005058583BDE8F08F0021018041808180EF
:10374000C180018141818181C1810721018270474E
:103750000021018041808180C1800221816000219F
:103760008181704721B1028842F04002028004E06A
:1037700002884FF6BF731A400280704721B1828BD6
:1037800042F48062828304E0828B4FF6FF331A405A
:103790008283704702884FF2FF731A4002800288CA
:1037A0000A4302807047B1F5804F04D1028842F489
:1037B0008042028004E002884BF6FF731A400280C8
:1037C00070474FF6FF62914204D0028842F4807243
:1037D000028004E002884FF6FF631A4002807047BF
:1037E00021B1828842F00402828004E082884FF690
:1037F000FB731A408280704721B1828842F0100228
:10380000828004E082884FF6EF731A40828070470E
:1038100030B500220023848B4FF240052C40848376
:1038200002240484828B0C88B4F5007F01D00C88BC
:1038300014B94FF4807308E00C88B4F5407F03D0CE
:103840000C88B4F5807F00D100238C888D892C43AF
:103850004D882C431C4344F400642243828330BDD2
:103860000146888970478181704721B1028842F4FE
:103870000052028004E002884DF6FF731A40028075
:103880007047018841F48051018070470246002052
:10389000012901D0108B00E0908A70470146088A08
:1038A00070471AB183880B43838002E083888B437F
:1038B0008380704730B5002400230C110125A540FA
:1038C000ABB2AAB185881D43858014E00030014069
:1038D00000380040003C00400034014000500140EE
:1038E000005401400838024000127A000024F4001D
:1038F00085889D43858030BD0246002013890B409A
:103900000BB1012000E000207047CA4302817047DC
:10391000F0B50246002000240023002501F00F0727
:103920000126BE40B4B20B1101269E40B3B2968868
:1039300006EA03051689264016B10DB1012000E004
:103940000020F0BD10B5002201F00F040123A340B8
:103950009AB2D343038110BD10B50446FE48844299
:1039600008D101210846FEF75EFE00210120FEF786
:103970005AFE9DE0B4F1804F08D101210846FEF7C0
:1039800041FE00210120FEF73DFE91E0F348844214
:1039900008D101210220FEF735FE00210220FEF7AA
:1039A00031FE85E0EE48844208D101210420FEF773
:1039B00029FE00210420FEF725FE79E0E948844233
:1039C00008D101210820FEF71DFE00210820FEF786
:1039D00019FE6DE0E448844208D101211020FEF771
:1039E00011FE00211020FEF70DFE61E0DF48844249
:1039F00008D101212020FEF705FE00212020FEF73E
:103A000001FE55E0DA48844208D101210220FEF788
:103A10000AFE00210220FEF706FE49E0D548844256
:103A200009D101210804FEF7FEFD00214FF480308A
:103A3000FEF7F9FD3CE0D048844209D10121480459
:103A4000FEF7F1FD00214FF40030FEF7ECFD2FE012
:103A5000CA48844209D101218804FEF7E4FD00210F
:103A60004FF48020FEF7DFFD22E0C548844208D1F4
:103A700001214020FEF7C6FD00214020FEF7C2FDD7
:103A800016E0C048844208D101218020FEF7BAFD2B
:103A900000218020FEF7B6FD0AE0BB48844207D132
:103AA00001218015FEF7AEFD0021A015FEF7AAFD4D
:103AB00010BD00220288A84B98420ED0AC4B984211
:103AC0000BD0B0F1804F08D0A44B984205D0A44B46
:103AD000984202D0A34B984204D14FF68F731A40FC
:103AE0004B881A43A04B984207D0A04B984204D071
:103AF0004FF6FF431A400B891A4302804B68C3629A
:103B00000B880385944B984202D0994B984201D17F
:103B10008B7A03860123838270474FF0FF31416027
:103B2000002101800181418081727047018582827C
:103B300070470A46002101884FF68F7319401143E0
:103B40000180704741627047C16270470146486A10
:103B500070470146088D704721B1028842F0020289
:103B6000028004E002884FF6FD731A40028070471D
:103B700021B1028842F00402028004E002884FF67C
:103B8000FB731A400280704721B1028842F0800224
:103B9000028004E002884FF67F731A40028070476B
:103BA00002884FF6F7731A40028002880A430280A7
:103BB000704702884FF6FF431A40028002880A438A
:103BC0000280704721B1028842F00102028004E0C5
:103BD00002884FF6FE731A400280704770B50024C9
:103BE00000220023058C4FF6FE7635400584028CBA
:103BF0008388048B4FF68F752C40B51E2C400D88A2
:103C00002C43751E2A408D892A434D882A43524DE4
:103C1000A84202D0564DA84213D14FF6F7752A405C
:103C2000CD892A434FF6FB752A408D882A434FF6EB
:103C3000FF652B404FF6FF552B400D8A2B434D8AD5
:103C40002B43838004838D684563028470BD70B507
:103C5000002400220023058C4FF6EF7635400584C2
:103C6000028C8388048B48F6FF752C404FF6FF4585
:103C70002C400D884FF6FF7606EA05252C434FF6BB
:103C8000DF752A408D8906EA05152A434D8806EA24
:103C900005152A43304DA84202D0354DA8421DD10A
:103CA0004FF67F752A40CD894FF6FF7606EA051557
:103CB0002A434FF6BF752A408D8806EA05152A4328
:103CC0004FF6FF352B404FF2FF752B400D8A06EA69
:103CD00085052B434D8A06EA85052B4383800483A3
:103CE0008D688563028470BD70B5002400220023B6
:103CF000058C4FF6FF6635400584028C8388848BE3
:103D00004FF68F752C404FF6FC752C400D882C43D8
:103D10004FF6FF552A408D894FF6FF7606EA0525B6
:103D20002A434D8806EA05252A430B4DA84202D0B6
:103D30000F4DA84238D14FF2FF752A40CD894FF67A
:103D4000FF7606EA05252A434FF6FF352A408D887F
:103D500006EA05252A4319E000000140000400405E
:103D600000080040000C004000100040001400401B
:103D7000000401400040014000440140004801406F
:103D800000180040001C0040002000404EF6FF7567
:103D90002B404DF6FF752B400D8A06EA05152B4387
:103DA0004D8A06EA05152B43838084838D68C5639D
:103DB000028470BD70B5002200230024058C4EF6ED
:103DC000FF7635400584038C8488828B48F6FF7526
:103DD0002A404FF6FF452A400D884FF6FF7606EA47
:103DE00005252A434DF6FF752B408D8906EA0535DA
:103DF0002B434D8806EA05352B43FE4DA84202D0E1
:103E0000FD4DA84208D14BF6FF752C400D8A4FF6A8
:103E1000FF7606EA85152C43848082838D680564CD
:103E2000038470BD00210180418081808160818197
:103E3000C18101824182704770B503460020002491
:103E40001846183001258D40ACB21D8CA5431D8449
:103E500009B108290AD100EB610005684FF68F7699
:103E6000354005600568154305600FE00D1FC5F37B
:103E70004E052844056848F6FF763540056005681C
:103E80004FF6FF7606EA02263543056070BD4163B2
:103E9000704781637047C1637047016470470A4689
:103EA0000021018B4FF68F73194011430183704736
:103EB0000A460021018B48F6FF7319404FF6FF7345
:103EC00003EA02231943018370470A460021818BCC
:103ED0004FF68F7319401143818370470A460021C2
:103EE000818B48F6FF7319404FF6FF7303EA0223F4
:103EF0001943818370470A460021018B4FF6F773FF
:103F000019401143018370470A460021018B4FF28B
:103F1000FF7319404FF6FF7303EA0223194301832D
:103F200070470A460021818B4FF6F7731940114301
:103F3000818370470A460021818B4FF2FF7319403D
:103F40004FF6FF7303EA02231943818370470A4641
:103F50000021018B4FF6FB73194011430183704719
:103F60000A460021018B4FF6FF3319404FF6FF73CD
:103F700003EA02231943018370470A460021818B1B
:103F80004FF6FB7319401143818370470A460021A5
:103F9000818B4FF6FF3319404FF6FF7303EA02237C
:103FA0001943818370470A460021018B4FF67F73C6
:103FB00019401143018370470A460021018BC1F368
:103FC0000E014FF6FF7303EA022319430183704782
:103FD0000A460021818B4FF67F731940114381837C
:103FE00070470A460021818BC1F30E014FF6FF7323
:103FF00003EA02231943818370470A460021018C9A
:104000004FF6FD7319401143018470470A460021A1
:10401000018C4FF6F77319401143018470470A462B
:104020000021018C4FF6DF7319404FF6FF7303EA4E
:1040300002131943018470470A460021018C4FF690
:104040007F7319404FF6FF7303EA0213194301848B
:1040500070470A460021018C4FF6FF5319404FF676
:10406000FF7303EA02231943018470470A460021C3
:10407000018C4FF2FF7319404FF6FF7303EA0223DE
:104080001943018470470A460021018C4DF6FF73E5
:1040900019404FF6FF7303EA023319430184704756
:1040A00030B5002301248C40A3B2048C9C430484CB
:1040B000048C02FA01F5ADB22C43048430BD30B556
:1040C000002304248C40A3B2048C9C430484048CFD
:1040D00002FA01F5ADB22C43048430BD828B4FF25D
:1040E000FF331A408283828B4FF6FF7303EA01236A
:1040F0001A4382837047F0B50C4615460021002212
:104100000026078C4EF6FF7C07EA0C070784818B9C
:10411000028C4FF6FF7707EA043640F6FF47394036
:104120004FF6FF7707EA052739434FF6FF7707EA8F
:104130000337394345F6FF773A4046F480573A4310
:1041400081830284F0BD828B4FF6F3731A40828321
:10415000828B0A4382837047F0B50C4615460021D6
:1041600000220026078C4FF6FF6C07EA0C07078435
:10417000818B028C4FF6FF7707EA04264FF60C7707
:1041800039404FF6FF7707EA03172F4339434FF2C1
:10419000FF573A4046F480773A4381830284F0BD6A
:1041A000028B4FF2FF331A400283028B4FF6FF73EC
:1041B00003EA01231A4302837047F0B50C46154603
:1041C000002100220026078C4FF6EF7C07EA0C073F
:1041D0000784018B028C4FF6FF7707EA041640F63E
:1041E000FF4739404FF6FF7707EA033739434FF669
:1041F000FF7703E0000001400004014007EA0527C3
:1042000039434FF65F773A4046F010073A4301834F
:104210000284F0BD028B4FF6F3731A400283028BC7
:104220000A4302837047F0B50C4615460021002270
:10423000068C4FF6FE773E400684018B028C4FF6CB
:104240000C7631407E1C06EA03162E4331434FF6AE
:10425000F576324044F00106324301830284F0BD1A
:1042600070B505460C46208850B92389A28861881C
:104270002846FFF7D8FFE1882846FFF7CBFF25E067
:10428000208804280AD12389A28861882846FFF75C
:1042900094FFE1882846FFF783FF17E0208808286D
:1042A0000AD12389A28861882846FFF755FFE18853
:1042B0002846FFF748FF09E02389A288618828463D
:1042C000FFF719FFE1882846FFF708FF70BD0021BE
:1042D00001804180012181800021C18001817047DE
:1042E0002DE9F04105460C4600260127608808B9F3
:1042F000022600E00026A088012801D1022700E064
:1043000001272088A0B92389A28861882846FFF761
:104310008AFFE1882846FFF77DFF23893A46314628
:104320002846FFF74AFFE1882846FFF739FF13E0E8
:104330002389A28861882846FFF73FFFE188284645
:10434000FFF72EFF23893A4631462846FFF76BFFD9
:10435000E1882846FFF75EFFBDE8F0810146486B23
:1043600070470146886B70470146C86B704701462D
:10437000086C70470A884B881A438B881A43CB888D
:104380001A430B891A434B891A438B891A43A0F8A5
:10439000442070470021018041808180C1800181DB
:1043A00041818181704731B1B0F8442042F400422C
:1043B000A0F8442005E0B0F84420C2F30E02A0F8B3
:1043C0004420704721B1828842F00402828004E0D8
:1043D00082884FF6FB731A408280704721B1828831
:1043E00042F00102828004E082884FF6FE731A4098
:1043F000828070471AB183890B43838102E08389ED
:104400008B43838170478182704702460020138A64
:104410000B400BB1012000E000207047CA4302822C
:10442000704730B50246002000230024158A05EAB3
:104430000103958905EA010413B10CB1012000E0E4
:10444000002030BDCA430282704741EA0203A0F84F
:10445000483070471AB183890B43838102E0838916
:104460008B438381704721B1828842F008028280A9
:1044700004E082884FF6F7731A4082807047018902
:104480004FF6F8721140018170470A4600210189F8
:104490004FF68F73194011430181704730B50446C0
:1044A0000D4629462046FFF7F0FF208940F007001F
:1044B000208130BD2DE9F04104460D4616461F46C9
:1044C000602D06D13B46012231462046FFF775FE9E
:1044D00005E03B46012231462046FFF7A4FE29466F
:1044E0002046FFF7D2FF208940F007002081BDE879
:1044F000F08130B50C4600210189C9B24FF6FF7535
:1045000005EA0325154325432943018130BD2DE9E3
:10451000F04105460E4617469846002443463A4663
:1045200031462846FFF7E5FF2C894FF6F870044026
:1045300044F007044FF68F70044044F070042C815F
:10454000BDE8F081F0B504460D4616461F463B46D1
:10455000324629462046FFF7CCFF208940F48040B0
:104560002081F0BD82884FF68F731A408280828846
:104570000A438280704702894FF6F8731A4002811D
:1045800002890A430281704702894FF67F731A40FD
:10459000028102890A4302817047F0B50C46154634
:1045A0001E460021002200230189028B038C4FF656
:1045B000F877394021434FF6FC473A4040F2011763
:1045C0003A434FF6DD773B404FF6FF7707EA061791
:1045D0002F433B43018102830384F0BD21B18288D4
:1045E00042F08002828004E082884FF67F731A4096
:1045F00082807047A0F850107047000010B5044644
:10460000FA48844208D101211020FEF70CF800215D
:104610001020FEF708F857E0F548844209D101213F
:104620004804FDF7EFFF00214FF40030FDF7EAFFEB
:104630004AE0F048844209D101218804FDF7E2FFF5
:1046400000214FF48020FDF7DDFF3DE0EA48844281
:1046500009D10121C804FDF7D5FF00214FF4002046
:10466000FDF7D0FF30E0E548844209D1012108057B
:10467000FDF7C8FF00214FF48010FDF7C3FF23E0D2
:10468000DF48844208D101212020FDF7CCFF002122
:104690002020FDF7C8FF17E0DA48844209D1012144
:1046A0008807FDF7AFFF00214FF08040FDF7AAFF1C
:1046B0000AE0D548844207D101214005FDF7A2FF59
:1046C00000216005FDF79EFF10BD2DE9FF4705465F
:1046D0000E460024A14600BFA046B08900B100BF2D
:1046E0002C8A24F44054F08804432C82AC8941F293
:1046F0000C608443B08831890843718908430443BE
:10470000AC81AC8A24F44074B0890443AC8268461E
:10471000FDF709FEB548854202D0B948854202D16D
:10472000DDF80C9001E0DDF80890A88900F4004065
:1047300040B109EBC90000EB091031684900B0FB3A
:10474000F1F707E009EBC90000EB091031688900B7
:10475000B0FBF1F76420B7FBF0F0040120096421FD
:1047600001FB1078A88900F4004040B1322000EB32
:10477000C800B0FBF1F000F00700044308E032206D
:1047800000EB08106421B0FBF1F000F00F000443CF
:104790002C81BDE8FF874FF4165101600021818014
:1047A000C18001810C21418100218181704710B5B8
:1047B00002460020108A20F470600B884C88234346
:1047C0008C882343CC8823431843108210BD0021DA
:1047D000018041808180C180704721B1828942F48B
:1047E0000052828104E082894DF6FF731A40828173
:1047F0007047028B02F47F420283028B0A430283DA
:10480000704721B1828942F40042828103E08289AB
:10481000C2F30E028281704721B1828A42F40062A3
:10482000828204E0828A4FF2FF731A4082827047CC
:10483000C1F308028280704701468888C0F30800EF
:104840007047028A4FF6F0731A400282028A0A43C6
:104850000282704721B1828942F00202828104E023
:1048600082894FF6FD731A408281704782894FF228
:10487000FF731A40828182890A4382817047028ACB
:104880004FF6DF731A400282028A0A43028270479F
:1048900021B1028A42F48042028204E0028A4BF68D
:1048A000FF731A4002827047818941F001018181C2
:1048B000704721B1828A42F00802828204E0828A33
:1048C0004FF6F7731A4082827047028BD2B202838E
:1048D000028B42EA01220283704721B1828A42F0B0
:1048E0002002828204E0828A4FF6DF731A408282BD
:1048F000704721B1828A42F01002828204E0828AEB
:104900004FF6EF731A4082827047828A4FF6FB732C
:104910001A408282828A0A438282704721B1828A47
:1049200042F00202828204E0828A4FF6FD731A404E
:10493000828270471AB1838A0B43838202E0838AA2
:104940008B4383827047F0B5034600240026002580
:10495000002040F66A17B94200D100BF1846C1F3E3
:10496000421401F01F06012707FA06F5012C01D1B8
:104970000C3004E0022C01D1103000E014301AB1E8
:1049800007682F43076002E00768AF430760F0BD88
:1049900002460020B1F5007F00D100BF13880B4014
:1049A0000BB1012000E00020704701F40072B2F565
:1049B000007F00D100BFCA430280704770B5024635
:1049C000002400230025002040F66A16B14200D1E1
:1049D00000BFC1F3421501F01F03012606FA03F3DD
:1049E000012D13D19689334017E0000000100140DB
:1049F0000044004000480040004C0040005000408F
:104A00000014014000780040007C0040022D02D1DB
:104A1000168A334001E0968A33400C12012606FACA
:104A200004F41688344013B10CB1012000E00020DA
:104A300070BD10B50022002340F66A14A14200D1D7
:104A400000BF0A1201249440A3B2DC43048010BDCD
:104A500010B50121C802FDF7D5FD00214FF400601B
:104A6000FDF7D0FD10BD00211B4A126822F4C07171
:104A70000143194A1160704708B500210091164999
:104A8000096821F07F01009100F07F01009A114335
:104A90000091114A0099116008BD01200F4908607A
:104AA000704700F07F010C4A121F1160704740F000
:104AB0008001094A121F1160704700200649091D34
:104AC000096809B1012000E0002070470020024978
:104AD000091D086070470000042C0040A4800542B6
:104AE00000B58DB001210420FDF7EEFC0121080284
:104AF000FDF744FD01200B9003208DF830000020CD
:104B00008DF833000BA93048FDF7F8F801210802B1
:104B1000FDF789FD00214FF48070FDF784FD002032
:104B200007900A900990089007A8FCF773FA0020F4
:104B300001908DF808008DF8090003900590012080
:104B40008DF8180001A92148FCF735FA01211F480A
:104B5000FCF777FA0DB000BD10B5072301220A213A
:104B60001A48FCF7AEFA1948FCF707FB00BF022110
:104B70001648FCF723FC0028F9D01448FCF739FB51
:104B800010BD2DE9F14F00BFDFF844A0DFF844B0BD
:104B9000009803F035FB80464FF066320E4B03F071
:104BA0004EFA064600220D4B03F0BBFA04460D46B2
:104BB00052465B462046294603F0B3FA04460D46AA
:104BC00020462946BDE8F88F000802400020014039
:104BD0004C67319DC574C63F66660A400000B04010
:104BE00038B50124FDF796FA0120FDF7BCFA02E082
:104BF000FDF7DEFA0446012CFAD10020FDF72BFB6D
:104C0000072002234FF4A87208210090C804FDF782
:104C100012FB0120FDF71FFB00BF3648006800F0C3
:104C200000700028F9D033480830006820F00300F5
:104C30003049083108600846006840F0020008600A
:104C400000BF2C480830006800F00C000828F8D19C
:104C50000020FDF749FB4FF4A050FDF74FFB4FF448
:104C60008050FDF755FB38BD10B50121C802FDF796
:104C700074FCFFF7EDFE4FF4C070FFF7F4FE7F20E9
:104C8000FFF7FAFE4120FFF712FF10BD10B545F205
:104C90005550FDF769F90520FDF769F96420FDF726
:104CA00069F9FDF76FF910BD7FB505460020039047
:104CB0003221284603F0DFF8002407E00E482044A4
:104CC00090F8100A0DF80400601CC4B20C2CF5DB3F
:104CD00000240CE01DF8041003A800F0A7FD03A9B0
:104CE000284603F0D3F800200390601CC4B20C2CBB
:104CF000F0DB7FBD003802400070FF1F1CB50121B2
:104D00001F20FDF7E1FB01208DF8040000208DF845
:104D1000060001208DF8070003208DF8050006200D
:104D2000009069467948FCF7E9FF01208DF80400FE
:104D300000208DF8060001208DF8070003208DF873
:104D400005004FF48060009069467148FCF7D6FF7B
:104D500001208DF8040000208DF8060001208DF858
:104D6000070003208DF80500302000906946674851
:104D7000FCF7C4FF01208DF8040000208DF8060028
:104D800001208DF8070003208DF805004FF4807096
:104D9000009069465F48FCF7B1FF1CBD10B50446A2
:104DA000012C04D102215948FDF795F803E00221B6
:104DB0005648FDF792F810BD10B50446012C04D1F9
:104DC00004215248FDF787F803E004214F48FDF71E
:104DD00084F810BD10B50446012C04D181024C4862
:104DE000FDF779F804E04FF480614948FDF775F864
:104DF00010BD10B50446012C04D110214548FDF723
:104E00006AF803E010214348FDF767F810BD10B5BC
:104E10000446092C77D2DFE804F076670513212FCA
:104E20003D4B59004FF480713A48FDF754F810217A
:104E30003648FDF752F820213448FDF74EF863E07C
:104E40004FF480713348FDF748F810212F48FDF7E3
:104E500042F820212D48FDF740F855E04FF48071CD
:104E60002C48FDF738F810212848FDF734F82021A8
:104E70002648FDF732F847E04FF480712548FDF7EA
:104E80002CF810212148FDF728F820211F48FDF7B4
:104E900022F839E04FF480711E48FDF71CF810210C
:104EA0001A48FDF71AF820211848FDF714F82BE0EE
:104EB0004FF480711748FDF710F810211348FDF7E3
:104EC0000AF820211148FDF706F81DE04FF4807123
:104ED0001048FDF700F810210C48FCF7FCFF2021DA
:104EE0000A48FCF7F8FF0FE04FF480710948FCF71F
:104EF000F4FF10210548FCF7F0FF20210348FCF7E0
:104F0000ECFF01E0FFE700BF00BF10BD000802405A
:104F1000000402400010024000B5A5B0002024901B
:104F200023902290219020901F90642106A802F0E7
:104F3000A2FF05A90120FDF7E7FD04A90120FDF767
:104F40007DFE9DF8131024A800F070FC9DF8111050
:104F500023A800F06BFC9DF8121022A800F066FC5C
:104F60009DF8141021A800F061FC9DF8151020A8F0
:104F700000F05CFC9DF816101FA800F057FC1FA85D
:104F800020A921AA22ABCDE90032CDE9021023AB42
:104F900024AACAA106A803F073FB06A825B000BD89
:104FA0002DE9FC5F04460D4616461F46DDE90EABB3
:104FB000DDE90C898DF803408DF801508DF8026011
:104FC0008DF800A069460020FDF7D2FDBBF1010F6E
:104FD00003D100208DF8070002E040208DF8070083
:104FE0008DF804708DF805808DF8069001A90020D9
:104FF000FDF720FD45F233510020FEF76AF9BDE8C8
:10500000FC9F30B587B0044641F6FF7501210807C3
:10501000FDF7A3FA0120FCF7D2FF0020FEF766F9A6
:1050200045F23351884246D0012C1AD10120FDF7B8
:10503000E8F804E0681C85B20A2002F0A9FE4120CD
:10504000FDF798F80028F5D015B9012007B030BD5C
:105050004FF48070FDF7D6F90120FDF7EEF9FDF76A
:1050600087FB8CB90120FDF7E3F800BF6120FDF755
:1050700081F80028FAD04FF40070FDF7C3F9012041
:10508000FDF7DBF9FDF774FB7F200590FF2006900C
:105090000020049004A8FDF732FC402001211522D5
:1050A0000F23CDE90032CDE902100E2304220321A3
:1050B0001020FFF775FF0020C8E770B58AB00446DE
:1050C0000D46164600214FF48070FDF791FE4FF417
:1050D0000030009000208DF8040008208DF80500B5
:1050E00001208DF806006846FCF7BEF929208DF8EE
:1050F000080001208DF80B008DF8090000208DF8C4
:105100000A0002A8FBF7E1FE4FF48050FEF7D0F949
:105110004FF40030FCF719FA08A90020FDF7F4FC61
:1051200009A90020FDF78AFD9DF824008DF81C00D8
:105130004FF080400690002005909DF823008DF8E8
:105140000F009DF820002044182817DB9DF8200050
:1051500020441838C0B28DF80C009DF81C00401C8B
:10516000C0B28DF81C009DF81C0007280CDD9DF8CE
:105170001C00C01FC0B28DF81C0005E09DF8200087
:105180002044C0B28DF80C009DF8210028443C2832
:1051900028DB9DF8210028443C38C0B28DF80D0072
:1051A0009DF820002044401CC0B28DF80C009DF8F2
:1051B0000C0018281CDB9DF820001838C0B28DF8B0
:1051C0000C009DF81C00401CC0B28DF81C009DF81E
:1051D0001C0007280CDD9DF81C00C01FC0B28DF814
:1051E0001C0005E09DF821002844C0B28DF80D0098
:1051F0009DF8220030443C2839DB9DF822003044E1
:105200003C38C0B28DF80E009DF821002844401CA7
:10521000C0B28DF80D009DF80D003C282DDB9DF8E7
:105220000D003C38C0B28DF80D009DF820002044E0
:10523000401CC0B28DF80C009DF80C0018281CDB37
:105240009DF80C001838C0B28DF80C009DF81C00B9
:10525000401CC0B28DF81C009DF81C0007280CDD16
:105260009DF81C00C01FC0B28DF81C0005E09DF821
:1052700022003044C0B28DF80E000398049004AAB6
:105280004FF480710020FDF7FCFC01210803FEF7BC
:10529000A3F801210802FDF7ABFD0AB070BD10B5FF
:1052A0004FF48050FEF7E6F838B14FF48050FEF727
:1052B000FFF84FF40030FCF748F910BD3230257389
:1052C0002D25732D25732D25733A25733A257300EB
:1052D00000B587B001211020FDF750F9012102200F
:1052E000FDF7F2F800214FF48040FDF747F9022066
:1052F0008DF8080000208DF80A00C02001900020E1
:105300008DF80B0003208DF8090001A94C48FCF72B
:10531000F5FC072206214A48FCF7ECFD072211465E
:105320004748FCF7E7FD4FF4165003900020ADF816
:105330001000ADF81200ADF81400ADF818000C2004
:10534000ADF8160003A93F48FFF7BFF9012240F26C
:1053500025513C48FFF7F7FA01213A48FFF73DFA9B
:1053600040213848FFF721FB25208DF8000002205E
:105370008DF8010000208DF8020001208DF8030057
:105380006846FBF7A2FD07B000BD1CB500214FF435
:105390008040FDF7F3F801211F20FDF795F8032069
:1053A0008DF8040049F6FE70009069462648FCF727
:1053B000A5FC03208DF804004FF6FB7000906946B1
:1053C0001F48FCF79BFC03208DF8040041F6FF709A
:1053D000009069461D48FCF791FC03208DF80400FD
:1053E0004FF6FF70009069461948FCF787FC0320D0
:1053F0008DF804004FF6EF70009069461548FCF7F1
:105400007DFC00214FF08040FEF7DCFB00211248BC
:10541000FEF7D8FB00211148FEF7D4FB00214FF422
:105420008050FDF7ABF800210220FDF796F800212F
:105430000120FDF792F800210420FDF78EF81CBD35
:105440000004024000100140000002400008024039
:10545000000C024000100240000400400008004020
:1054600010B5FCF7B9F8F320FCF7B7FB10BD70B529
:10547000054602212846FCF703F9092801D1012439
:1054800000E00024204670BD70B505460E4631464A
:105490002846FCF70EFA092801D1012400E0002477
:1054A000204670BD70B505460C4608E000BF217867
:1054B0002846FCF757FA0928F9D16D1C641C20789E
:1054C0000028F3D170BD2DE9F04105460E46174680
:1054D000002404E0315D2819FFF7D6FF641CBC42AC
:1054E000F8DBBDE8F08170B5ADF5805D05460E4690
:1054F0004FF48051684602F0BEFC002400BF08E073
:10550000285DFF2801D1002000E0285D0DF804008F
:10551000641CB442F4DB68460DF5805D70BD00008C
:1055200070B501212F48FEF77CFF48B34FF0804053
:10553000406A2D49086001212A48FEF783FF2A4866
:10554000006802F05DFE044622460B460020274913
:1055500002F0E7FD264A03C200212248FEF732FB93
:10556000002020492431086000214FF08040FEF7E0
:1055700029FB00204FF08041486201201D4908703E
:1055800002211848FEF74DFF58B100204FF080412E
:10559000486202211348FEF755FF01218807FEF7F4
:1055A00011FB70BD10B501211348FEF73AFFB8B1E9
:1055B00012480078401C11490870084600781049CC
:1055C0000978884208D100200C4908700C490870FD
:1055D00000210948FEF7F6FA01210748FEF732FFDD
:1055E00010BD00000008004018000020389C6C41ED
:1055F0002000002028000020000400402900002096
:10560000000000200648804706480047FEE7FEE706
:10561000FEE7FEE7FEE7FEE7FEE7FEE7FEE7FEE762
:1056200005570208890102080CB50020019000907E
:105630007248006840F480307049086000BF6F48CD
:10564000006800F4003000900198401C0190009820
:1056500018B90198B0F5A04FF1D16848006800F47E
:10566000003010B10120009001E00020009000986F
:10567000012846D161484030006840F080505F49C1
:10568000403108605E48006840F440405C49086072
:105690005A480830006859490831086008460068CF
:1056A00040F4004008600846006840F4A0500860DC
:1056B0005448091F0860081F006840F08070091FE7
:1056C000086000BF4D48006800F000700028F9D065
:1056D00040F205704C49086048480830006820F0E6
:1056E00003004649083108600846006840F002009F
:1056F000086000BF41480830006800F00C0008282E
:10570000F8D10CBD10B53D48006840F001003B49A0
:1057100008600020394908310860384800683B4972
:105720000840364908603A48091D0860081F0068AB
:1057300020F48020091F0860002030490C310860E7
:10574000FFF772FF33483449086010BD70B5002080
:105750000022022300240221284D08352D6805F07F
:105760000C0020B1042806D0082834D107E02B4DC6
:105770002B4E356033E02B4D294E35602FE01F4D09
:105780002D1D2D68C5F380541C4D2D1D2D6805F071
:105790003F0154B1234DB5FBF1F5184E361D366867
:1057A000C6F3881605FB06F209E01C4DB5FBF1F5C2
:1057B000124E361D3668C6F3881605FB06F20F4DED
:1057C0002D1D2D68C5F301456D1C6B00B2FBF3F573
:1057D000134E356003E0114D114E356000BF00BF20
:1057E000064D08352D68C5F303150F4E705D0C4D41
:1057F0002D68C5400A4E356070BD0000003802407B
:105800000070004008544007003C0240FFFFF6FED5
:10581000103000240000020808ED00E00024F4002D
:105820003000002000127A003400002010B5CB17A1
:1058300001EB13730924B4EB231F07DA0A46CB17D5
:1058400001EB13731B113733037006E00A46CB17C5
:1058500001EB13731B1130330370CB1701EB137380
:105860001B11A1EB0313092B09DD0A46CB1701EB32
:1058700013731B11A1EB03133733437008E00A467F
:10588000CB1701EB13731B11A1EB031330334370E0
:1058900010BD70B504460D460CE014F8011B0D4810
:1058A000FEF7C6FF00BF40210A48FFF771F8002845
:1058B000F9D06D1E002DF0D170BD002105E0002251
:1058C00000E0521C8242FCD3491C44F620639942FA
:1058D000F5DB7047004800408EB000BFFFF780F94D
:1058E00001210803FCF75BFE02F006FAFFF706FA57
:1058F0000120FFF753FA0120FFF75EFA00F09CF851
:105900002D4800F061F92D4800F05EF92C4800F0B8
:105910005BF92CA002F0A4FEFAF764FD0120FAF76F
:105920009FFFFBF7ACF80120FBF7B5F801A8FFF7E4
:10593000BBF901A929A002F093FEFFF7D1F8FFF708
:105940000BF90646FFF71DF9044622460B4627A031
:1059500002F086FE00BF0120FFF753FB0028FAD1BA
:10596000FFF7DAFA0446214626A002F079FE29481C
:10597000006829490860084600680A2804D30846D8
:1059800000682649884212D94FF4E1602249086034
:10599000FBF722FE00BF1820FFF769FD0128FAD1AE
:1059A0001D4801681B48FBF784FFFBF722FE01E05E
:1059B00002F08DF8FCE700000010014000440040B8
:1059C000004800404C6F6720557361727420496E27
:1059D0006974204F4B2E0D0A000000004465762D9F
:1059E0004944203A2573200D0A000000496E6E6577
:1059F0007220566F6C74616765203A252E336620DD
:105A0000760D0A005254432074696D65203A25735F
:105A1000200D0A0000C0000894000020C04B0300C5
:105A200010B504212648FCF758FA10BD10B5102116
:105A30002348FCF750FA10BD1CB501211020FCF7DB
:105A400043FD01208DF8040000208DF8060014208D
:105A5000009001208DF8070003208DF805006946AD
:105A60001748FCF74BF900208DF804008DF806006C
:105A70000820009000208DF8070003208DF8050015
:105A800069460F48FCF73AF9FFF7D0FFFFF7C8FF68
:105A90001CBD10B510210A48FCF71FFA10BD10B547
:105AA00004210748FCF717FA10BD10B5002408219F
:105AB0000348FCF7F6F9012800D10124204610BD67
:105AC000001002400021A0F80614A0F80814704746
:105AD0000146B1F80804B1F80624801A00F2064025
