:020000040800F2
:1000000078C60020B11600087D1300087F13000891
:10001000991300089B1300089D13000800000000BE
:100020000000000000000000000000009F13000816
:10003000A1130008000000005B800008692F000881
:10004000CB160008CB160008CB160008CB1600080C
:10005000CB160008CB160008CB160008CB160008FC
:10006000CB160008CB160008CB160008CB160008EC
:10007000CB160008CB160008CB160008CB160008DC
:10008000CB160008CB160008CB160008CB160008CC
:10009000CB160008CB160008CB160008D3140008B6
:1000A000CB160008CB160008CB160008CB160008AC
:1000B000CB1600081F140008A5130008CB16000873
:1000C000CB160008CB160008CB160008CB1600088C
:1000D000CB160008CB160008CB1600085F140008EA
:1000E000CB160008CB160008CB160008CB1600086C
:1000F000CB160008CB160008CB160008CB1600085C
:10010000CB160008CB160008CB160008CB1600084B
:10011000CB160008CB160008CB160008CB1600083B
:10012000CB160008CB160008CB160008CB1600082B
:10013000CB160008CB160008CB160008CB1600081B
:10014000CB160008CB160008CB160008CB1600080B
:10015000CB160008CB160008CB160008CB160008FB
:10016000CB160008CB160008CB160008CB160008EB
:10017000CB160008CB160008CB160008CB160008DB
:10018000CB160008CB160008DFF80CD007F038FFBC
:10019000004800473D02000878C6002010B500F076
:1001A00079FD00F0B2FD00F06FFF012001F06CF866
:1001B000BDE81040012001F071B81FB5684601F09C
:1001C00009FD019804B010BD10B5FFF7F6FF1749FF
:1001D0000968BDE81040B0FBF1F002F0D4BE10B5E4
:1001E000FFF7EBFF12490A6842F080720A6011497A
:1001F00000224A600A6842F001020A60BDE810402D
:1002000002F0B8BD0B484068704710B50446FFF7D0
:10021000D4FF0021084A0B4607F05AFC02460B4661
:100220002046002107F054FC10BD0000048B00089C
:10023000FCED00E0001000E040420F0000B58BB084
:10024000FFF7ACFF09A802F00EFF09A90322CDE9D0
:10025000072104230020CDE90530192299010292DB
:10026000CDE90310084B0220CDE900030648002326
:10027000064A07A1C03805F0A4FA09A803F094F8CB
:100280000BB0002000BD0000C00100205304000896
:100290004170705461736B5374617274000000009C
:1002A0000EB500F032FD00F0EFFE00F095FE0120EB
:1002B00000F0EAFF012000F0F1FF00F071FA0120E8
:1002C00000F068FC874F002402AD00220A2311468B
:1002D0001046CDE9004506F0B9F938780128F4D187
:1002E00000F05EFA012000F055FC7F497FA007F086
:1002F000E5FE7FA007F0E2FE88A007F0DFFE93A0F6
:1003000007F0DCFE9CA007F0D9FEA5A007F0D6FE02
:10031000AFA007F0D3FEBAA007F0D0FEC4A007F04C
:10032000CDFE012000F036FC02460B46CCA007F0C3
:10033000C5FE022000F02EFC02460B46D2A007F0BC
:10034000BDFE032000F026FC02460B46D8A007F0B5
:10035000B5FE042000F01EFC02460B46DEA007F0AE
:10036000ADFE614961A0891F07F0A8FE3C70002026
:1003700000F08AFF002000F091FF00224FF4FA768F
:10038000334611461046CDE9004506F05FF900F00E
:1003900022FF0121002002F03EFC00F07BFC00F077
:1003A000B4FC012000F070FF012000F077FF002274
:1003B000334611461046CDE9004506F047F900F0F6
:1003C00063FE00F009FE80E70EB5002502AC0023B5
:1003D000CDE900540F221946184606F037F9F6E722
:1003E0000EB5404E002502AC0023CDE90054052295
:1003F0001946184606F02AF930780028F4D100F0A2
:1004000043FF002000F04AFF0022CDE90054C8233A
:100410001146104606F01AF900F0DDFE0121002019
:1004200002F0F9FB00F036FC00F06FFC012000F058
:100430002BFF012000F032FF0022CDE90054C82339
:100440001146104606F002F900F01EFE00F0C4FD51
:10045000CAE72DE9F0418AB002F03DFCFFF7B4FE97
:10046000002406A809AE0325059470C0A4494FF4E2
:1004700080774FF0190805202346AFF29B028DE8E4
:100480000301CDE903749FA1A04805F09AF906A8DD
:10049000CDF80880059470C09D490023AFF2D702C3
:1004A000CDE900519948CDE903749AA1C03005F017
:1004B00088F906A8059470C0984906200023AFF279
:1004C0001F228DE803018E48CDE9037494A1C03842
:1004D00005F077F909A9002005F034FA0AB0BDE863
:1004E000F081000024000020060000202573000099
:1004F0005343543230305431353030332D32303173
:10050000352F372F382F5765646E65736461792DE9
:1005100031352D33362D390D0A0000005343543246
:1005200030305431353030332D49443D3078383710
:10053000303331393233203533353738373438209A
:10054000363665666634380D0A000000534354326F
:1005500030305431353030332D4D6F6465203D20BF
:100560003130206D696E7574657320496E746572E3
:100570006E616C0D0A000000534354323030543128
:10058000353030332D43757272656E7420766F6C22
:1005900074616765203D2031302E3930560D0A00D8
:1005A0005343543230305431353030332D43686149
:1005B0006E6E656C3A2031202054656D70657261F5
:1005C00074757265203A33342E34370D0A000000FA
:1005D0005343543230305431353030332D43686119
:1005E0006E6E656C3A2032202054656D70657261C4
:1005F00074757265203A33342E34330D0A000000CE
:100600005343543230305431353030332D436861E8
:100610006E6E656C3A2033202054656D7065726192
:1006200074757265203A33302E34300D0A000000A4
:100630005343543230305431353030332D436861B8
:100640006E6E656C3A2034202054656D7065726161
:1006500074757265203A32352E39300D0A0000006B
:100660005343543230305431353030332D43686188
:100670006E6E656C3A203120204652455155454EEC
:1006800043593A25660D0A005343543230305431F1
:10069000353030332D4368616E6E656C3A20322000
:1006A000204652455155454E43593A25660D0A009C
:1006B0005343543230305431353030332D43686138
:1006C0006E6E656C3A203320204652455155454E9A
:1006D00043593A25660D0A005343543230305431A1
:1006E000353030332D4368616E6E656C3A203420AE
:1006F000204652455155454E43593A25660D0A004C
:10070000000800207461736B31000000C0050020F8
:10071000000C00207461736B320000000010002098
:100720007461736B330000002DE9F04790469946E1
:1007300002460B4607F0A4FA0022FE4B07F012FB1C
:1007400004460D46FC4AFD4B07F09AFAFC4AFD4B65
:1007500007F0EFF906460F46FB4AFC4B4046494678
:1007600007F088FA32463B4607F08AFADFF8E08362
:10077000DFF8E09342464B4607F082FA06460F4602
:10078000F54AF64B2046294607F074FA42464B4696
:1007900007F076FA32463B46BDE8F04707F0C9B9A4
:1007A0002DE9F0438BB001211F2001F076FA0227DA
:1007B0008DF80470002401258DF80640DFF8A08331
:1007C0008DF8075003268DF8056069464046009570
:1007D00001F0ACF802220021404601F01BF98DF82F
:1007E00004508DF80640A8028DF8075000908DF84F
:1007F00005606946404601F099F88DF804508DF87F
:1008000006400620DFF85C838DF8075000908DF8D5
:1008100005606946404601F089F88DF804508DF86E
:10082000064030208DF8075000908DF8056069462D
:10083000404601F07BF88DF804508DF80640DFF853
:1008400028938DF807504FF480788DF8056069463D
:100850004846CDF8008001F069F88DF804708DF8F5
:1008600006408DF807508DF80560694648460095AA
:1008700001F05CF802220021484601F0CBF801218A
:10088000022001F028FA42F2CF00ADF80800B74E7E
:10089000ADF81040ADF80A4003958DF8124002A95A
:1008A000304601F029FD6020ADF81400ADF8165077
:1008B000ADF82070ADF8248005A93046079501F009
:1008C00005FE0121304602F081F801221146304632
:1008D00002F09BF80021304601F086FD0121084618
:1008E00001F0F9F940F21710ADF808004FF6FF706B
:1008F0000390ADF81040AE07ADF80A408DF81240F5
:1009000002A9304601F0F8FC0121304601F052FD09
:100910000121304601F068FD0121042001F0DBF9DE
:100920007220934EADF808400390ADF81040ADF83A
:100930000A408DF8124002A9304601F0DDFC70211A
:10094000304602F0A0F8002202231146304602F0A1
:10095000D5F80F200790ADF8144005A9304601F0F6
:100960004DFD01220321304602F04FF801213046AF
:1009700002F05CF80121304601F01CFD7C48243077
:1009800004600021304601F02FFD4FF4A06000F01C
:10099000A1FE1E208DF828008DF829408DF82A40F0
:1009A0008DF82B500AA800F09AFE1D208DF8280023
:1009B0008DF829508DF82A408DF82B500AA800F0A8
:1009C0008EFE0BB0BDE8F0832DE9F041694AA0F23C
:1009D00003510024012560260227DFF8908188B0AA
:1009E000914206D26449B1FBF0F0401EADF8000020
:1009F00048E0A0F1810140F2814291421BD85F4959
:100A0000ADF80840B1FBF0F0401EADF80000132037
:100A10000190ADF802408DF80A406946404601F069
:100A20006BFCADF80C60ADF80E50ADF81870ADF879
:100A30001C400A201FE080281FD84AF21041B1FB59
:100A4000F0F0401EADF8000040F2CF700190ADF81C
:100A50000840ADF802408DF80A406946404601F072
:100A60004BFCADF80C60ADF80E50ADF81870ADF859
:100A70001C404FF47A70059018E04149884215D91E
:100A8000ADF80040ADF80840ADF8024001958DF892
:100A90000A406946404601F02FFCADF80C60ADF805
:100AA0000E50ADF81870ADF81C40059503A94046EE
:100AB00001F00CFD08B0BDE8F08110B50C46FFF761
:100AC00083FF3048294904700020243108602748FA
:100AD00024B10121BDE8104001F086BC0021F9E7F6
:100AE0002DE9FE43284F0024DFF88490C7E9004435
:100AF0000121484601F078FC00250DF10808234E3D
:100B00000AE00022CDE9005801231146104605F005
:100B10009DFD641CC82C02D830780028F1D03570B7
:100B20000021484601F060FC114824300560D7E9F7
:100B300000012DE000408F4038842A357BA0353FEE
:100B40008FC2F5285C8FDA3FCDCCCCCCCC4C3A4070
:100B5000103D29931ADA903F32FE7DC6059A9540E2
:100B6000000402400008024000100240000400405F
:100B700000080040FDB7010580DE800240164000FD
:100B800000BD0105190000203000002020000020D9
:100B900003B017E73EB500F0A9FB002000F09CFB76
:100BA0000A214FF47A60FFF788FF002502ACCDE9F7
:100BB000005402232A462946284605F047FD0A210B
:100BC00048F6B800FFF779FF0022CDE9005404236E
:100BD0001146104605F03AFD0A2140F6B830FFF7FD
:100BE0006CFF0022CDE9005404231146104605F0A5
:100BF0002DFD0A2140F6C410FFF75FFF0022CDE96A
:100C0000005404231146104605F020FD0A214FF43C
:100C1000FA60FFF752FF0022CDE900540823114685
:100C2000104605F013FD0A2140F2DC50FFF745FFA6
:100C30000022CDE9005408231146104605F006FDB8
:100C40000A214FF47A70FFF738FF0022CDE90054F3
:100C50000C231146104605F0F9FC0A214FF4FA70F6
:100C6000FFF72BFF0022CDE9005414231146104654
:100C700005F0ECFC012000F02FFB0022CDE9005430
:100C800014231146104605F0E1FCFFF729FF03B0DD
:100C900030BD000038B500F0DFFE012000F0F4FEAA
:100CA00002E000F00EFF0446012CFAD1002000F013
:100CB00048FF07200821009002234FF4A872C804BF
:100CC00000F02FFF012000F03CFFE548016889019A
:100CD000FCD5E3480830016821F003010160016898
:100CE00041F0020101600168C1F381010229FAD1DA
:100CF000002000F056FF4FF4A05000F05AFFBDE86E
:100D000038404FF4805000F05CBF2DE9FC410121D8
:100D10001F2000F0C2FF02278DF8047000248DF818
:100D200006404020DFF83C838DF807400326009002
:100D30008DF805606946404600F0F8FD8DF80470B6
:100D40008DF80640012520208DF8075000908DF881
:100D500005606946404600F0E9FD8DF804508DF8C5
:100D6000064028028DF8075000908DF8056069460E
:100D7000404600F0DBFD05220621404600F04AFE19
:100D800005221146404600F045FE8DF804708DF8AE
:100D90000640A803DFF8D0828DF8074000908DF858
:100DA00005606946404600F0C1FD8DF804708DF87D
:100DB0000640E8038DF8074000908DF8056069460D
:100DC000404600F0B3FD8DF804708DF806406803CE
:100DD0008DF8075000908DF805606946404600F098
:100DE000A5FD8DF804508DF8064028038DF80750B6
:100DF00000908DF805606946404600F097FD8DF83B
:100E000004508DF80640E8028DF8075000908DF8E8
:100E100005606946404600F089FD05220D214046E7
:100E200000F0F8FD05220E21404600F0F3FD0522FA
:100E30000F21404600F0EEFD8DF804508DF806407D
:100E400006208A4F8DF8075000908DF8056069469E
:100E5000384600F06BFD8DF804408DF806408DF8A3
:100E600007408DF8056069463846009500F05EFD44
:100E70008DF804508DF8064018208DF8075000902A
:100E80008DF8056069467A4800F050FD8DF80450F1
:100E90008DF8064010208DF8075000908DF8056001
:100EA0006946744800F042FDBDE8FC8130B589B068
:100EB0000121022000F00FFF42F2CF00ADF8140034
:100EC0000020ADF81C006C4DADF8160001248DF823
:100ED0001E00069405A9284601F00EFA6020ADF820
:100EE00000000220ADF80C00C001ADF81000ADF814
:100EF000024069462846029401F0E8FA012128469A
:100F000001F064FD01221146284601F07EFD00211A
:100F1000284601F069FA09B030BD3EB50121084606
:100F200000F0D9FE40F21710ADF8000000204FF697
:100F3000FF71ADF80800ADF8020001918DF80A00CC
:100F40004FF080446946204601F0D6F90121204641
:100F500001F030FA0021204601F046FA3EBD30B5DE
:100F600089B00121042000F0B6FE0024D620434DB4
:100F7000ADF800400190ADF80840ADF802408DF8A2
:100F80000A406946284601F0B7F97021284601F069
:100F90007AFD002202231146284601F0AFFD0F2002
:100FA0000590ADF80C4003A9284601F027FA01226C
:100FB0000321284601F029FD0121284601F036FDD4
:100FC0000121284601F0F6F92C4824300460002164
:100FD000284601F009FA9EE738B54FF4A06000F00A
:100FE00079FB1E208DF8000000248DF801408DF85B
:100FF000024001258DF80350684600F070FB1D206B
:101000008DF800008DF801508DF802408DF80350E6
:10101000684600F064FB27208DF8000002208DF860
:1010200001008DF802408DF80350684600F057FB30
:1010300038BD00B587B01249002003AA435C1354A1
:10104000401CC0B20C28F9D30EA1684607F046F840
:1010500069460CA007F032F8684607B000BD0000F2
:101060000038024000000240000402400008024034
:10107000000C024000100240000400400008004044
:10108000107AFF1F257300002DE9F04389B001217C
:10109000102000F02AFE0121880400F01CFE01212E
:1010A000022000F0FAFD00214FF4804000F01DFE08
:1010B00002258DF8145000248DF81640C02001261A
:1010C0006D4F04908DF817604FF003088DF8158070
:1010D00004A9384600F02AFC07220621384600F011
:1010E00099FC07221146384600F094FC4FF4E13099
:1010F000DFF888910090ADF80440ADF808400C2767
:10110000ADF80640ADF80C40ADF80A7069464846A7
:1011100000F0FBFE0121484600F06DFF40214846EB
:1011200001F027F88DF814508DF816408DF81760EF
:101130008DF81580B801DFF84881049004A9404675
:1011400000F0F4FB07220821404600F063FC072270
:101150000921404600F05EFCADF80840ADF80A7089
:101160004FF49650474F0090ADF80440ADF806405C
:10117000ADF80C406946384600F0C7FE012240F247
:101180002551384600F0D6FF0121384600F033FFE4
:101190004021384600F0EDFF2021384600F0E9FFFD
:1011A000280206908DF81E408DF81C4008208DF80E
:1011B0001D0006A800F0F4FA17208DF820008DF825
:1011C00021508DF822608DF8234008A800F087FA9E
:1011D00009B0BDE8F08330B585B04FF4A06000F0F1
:1011E00079FA0121880300F080FD00248DF8044085
:1011F0008DF806408DF8074003208DF805004FF468
:10120000007569461E48009500F090FB09210320F7
:1012100000F01BFE029501258DF80E508DF80C4054
:1012200008208DF80D0002A800F0BAFA17208DF8FA
:10123000100002208DF811008DF812508DF8135017
:1012400004A800F04CFA05B030BD70B50D4C054651
:101250004021204600F086FF4021204600F089FF13
:10126000E9B2204600F0EDFE4021204600F07AFF72
:101270000028F9D0284670BD00040240001001404B
:10128000000C024000480040394A01284FF002019A
:10129000104601D000F0B1BB00F0ADBB344A0128CC
:1012A0004FF00401104601D000F0A7BB00F0A3BB33
:1012B000304A01284FF00801104601D000F09DBBD4
:1012C00000F099BB2C4A01284FF01001104601D0C4
:1012D00000F093BB00F08FBB264A01284FF48061D9
:1012E000104601D000F089BB00F085BB10B5024666
:1012F00021481F4C4FF48071092A38D2DFE802F0F0
:10130000372B05080B12151C1F0000F074FB24E09E
:1013100000F073FB01E000F06EFB1021204600F0AE
:101320006AFB1EE000F069FB01E000F064FB1021A5
:10133000204600F062FB08E000F05FFB01E000F0F7
:101340005AFB1021204600F056FB2046BDE8104015
:10135000202100F050BB00F050FB1021204600F08F
:101360004CFB2046BDE81040202100F046BB10BDDC
:101370000008024000040240001002407047684923
:101380005CA300201A5C8A800A885206FCD5401CA7
:10139000C0B22A28F6D3FEE7FEE7FEE7FEE7704775
:1013A000704770472DE9F04101F0DCFE5D4F0121EF
:1013B000384601F03EFB0026FD04F0B1012138461D
:1013C00001F043FB686A584CA06006F03AFD024603
:1013D0000B460020554906F0C5FCC4E90401002174
:1013E000384601F001F84F482430066000212846B5
:1013F00000F0FAFF6E62012020700221384601F0F1
:1014000018FB40B10221384601F01FFB28466E62EE
:10141000012100F0E9FFBDE8F04101F0AEBE10B5DA
:1014200001F0A0FE424C0121204601F002FB90B1E8
:101430003D4A5078401CC1B23E48517003789942F1
:1014400005D1002151700170204600F0CDFF01212F
:10145000204601F0FAFABDE8104001F08EBE70B5EA
:1014600001F080FE344C2021204600F07BFE00B3CA
:101470002021204600F07DFE204600F0E6FD2A49AE
:101480002E4C0125CA780023C0B2012A0FD18A78D8
:10149000A054E67A332E02D00B2A0BD004E00B2A9C
:1014A00002D10D718B70CB708A78521C8A70CA7809
:1014B00012B106E08B70CB70532801D18A7822B12B
:1014C0008B70BDE8704001F058BE2070CD708D70FB
:1014D000F7E710B501F046FE4FF40074204600F027
:1014E000AFF910B1204600F0B9F9BDE8104001F0A5
:1014F00044BE00000D0A456E746572204861726436
:101500004661756C745F48616E646C65722C205323
:10151000797374656D2048616C742E0D0A000000AB
:10152000001001400008004020000020389C7C4151
:101530000004004019000020004800400014002072
:101540000CB50022514900920192086840F48030A5
:1015500008604FF4A043086800F400300190009840
:10156000401C0090019810B900989842F3D1086887
:10157000800334D50120019044484030026842F095
:10158000805202604248026842F4404202603F4892
:10159000083002680260026842F400420260026899
:1015A00042F4A0520260031F3A4A1A600A6842F0ED
:1015B00080720A600A689201FCD5374940F20562E0
:1015C0000A60016821F003010160016841F0020135
:1015D00001600168C1F381010229FAD10CBD0192B9
:1015E0000CBD2A4810B5016841F001010160274A8D
:1015F0000021083211600268284B1A400260031D66
:10160000274A1A60026822F4802202601F480C30C8
:101610000160FFF795FF23494FF00060086010BD9F
:1016200070B51A4D083528681F4B204910F00C0082
:1016300004D05E10042803D0082803D00B601BE000
:101640000E6019E0114A121D1068C0F38054106832
:1016500000F03F0014B1B6FBF0F001E0B3FBF0F096
:1016600013681268C3F388135843C2F30142521C33
:101670005200B0FBF2F0086028680C4AC0F3031077
:10168000121D105C0A68C2400A6070BD003802403A
:101690000070004008544007003C0240FFFFF6FE87
:1016A0001030002408ED00E00024F4003800002091
:1016B0000648804706480047FEE7FEE7FEE7FEE7EC
:1016C000FEE7FEE7FEE7FEE7FEE7FEE7E3150008BC
:1016D000890100082749084327490860704770B509
:1016E0000F23C278017801254FF0E026E2B1224AAB
:1016F000126802F4E062C2F5E062C2F30722C2F1AE
:101700000404D3404278A24084781C401B4B14430D
:101710002201CA54007800F01F018D40400906EBF9
:101720008000C0F8005170BD01F01F0085404809DD
:1017300006EB8000C0F8805170BD114A1140014392
:101740000D48001F016070470B4A121D00291168E7
:1017500001D0014300E08143116070474FF0E02168
:101760000428086903D020F004000861704740F0A5
:101770000400FAE70000FA050CED00E000E400E0E8
:1017800080FFFF1F374900200860091D0860091D00
:101790000860091D086033493348143108607047F8
:1017A00030B5304A8379016853B313688B431360B3
:1017B000111D0B680468A3430B60017911440B6889
:1017C000046823430B60274B083319680468A1435E
:1017D00019601C1D21680568A94321604179102901
:1017E00005D011440A68006802430A6030BD1968D8
:1017F000026811431960216800680143216030BD0F
:101800000079104402688A43026030BD0021016003
:1018100001710C22427181717047124910310A68BE
:1018200002430A60704701460E4A002014321268D3
:101830000A4200D0012070470A49143108607047FD
:10184000084A014600201268064B0A4014331B6800
:101850000B4202D0002A00D0012070470149143108
:1018600008607047003C0140FFFF7F00714910B5E0
:10187000884206D10121084600F041FA00210120EA
:101880004FE06D49884206D10121022000F037FA6D
:101890000021022045E06949884206D10121042047
:1018A00000F02DFA002104203BE06549884206D172
:1018B0000121082000F023FA0021082031E06149CD
:1018C000884206D10121102000F019FA00211020D1
:1018D00027E05D49884206D10121202000F00FFA5F
:1018E000002120201DE05949884206D101214020D5
:1018F00000F005FA0021402013E05549884206D146
:101900000121802000F0FBF90021802009E05149ED
:1019100088420AD184150121204600F0F0F9002107
:101920002046BDE8104000F0EAB910BDF0B5002235
:1019300001274FF0030C0B6807FA02F52B40AB426E
:101940002CD1066853000CFA03F4A64306600E7906
:10195000D0F800E09E4046EA0E0606600E79012EA1
:1019600001D0022E12D18668A64386604E79D0F847
:1019700008E09E4046EA0E0686604668AE43466032
:1019800045688E799640B6B235434560C568A54333
:10199000C560CC799C40C3681C43C460521C102AAB
:1019A000C9D3F0BD4FF6FF71016000210171417193
:1019B0008171C171704708B541F480320092C261F3
:1019C000C1610099C161C169C069009008BD02464A
:1019D000002012690A4200D001207047006980B2DD
:1019E00070470246002052690A4200D00120704729
:1019F000406980B2704701837047418370470AB1E4
:101A000001837047418370474161704742694A4092
:101A1000426170474B07DB0E9A40C90810B500EBD6
:101A20008100016A0F249C40A1430162016A1143B5
:101A3000016210BD000002400004024000080240A4
:101A4000000C024000100240001402400018024046
:101A5000001C024000200240EA48016841F00101F8
:101A60000160E84A0021083211600268E64B1A4022
:101A70000260031DE54A1A60026822F480220260B7
:101A8000E0480C3001607047DE490022891C0A7072
:101A90000870704702460020510901290CD0022924
:101AA0000CD0D8497431096802F01F020123934019
:101AB0000B4200D001207047D249F4E7D149703180
:101AC000F1E718B500204FF4A04400903120FFF753
:101AD000E1FF0099491C0091A14201D00028F5D0F6
:101AE0003120FFF7D7FF002800D0012018BDC54ADC
:101AF000116821F0F80141EAC00010607047C44944
:101B000008607047BF49002270310A700A700128CE
:101B100002D0042801D1052008707047BD49086033
:101B2000704741EA82115A0810B5BB4B029C03EB87
:101B300002421143014341EA0460B249091D0860B1
:101B400010BDB34908667047800140EA0170AD4995
:101B5000843108607047AE4988667047AC49C864F4
:101B60007047A84B08331A68084322F0EC62104310
:101B700018607047A34B08331A68084322F0784274
:101B80001043186070479F4A0832116821F0030122
:101B90000143116070479B480830006800F00C005A
:101BA0007047984A0832116821F0F0010143116032
:101BB0007047944A0832116821F4E05101431160E2
:101BC0007047904A0832116821F4604141EAC00030
:101BD0001060704770B58B4B083319688F4C11F04B
:101BE0000C0104D06610042903D0082903D0046036
:101BF0001BE0066019E0834A121D1168C1F380558D
:101C0000116801F03F0115B1B6FBF1F101E0B4FB41
:101C1000F1F114681268C4F388146143C2F30142FD
:101C2000521C5200B1FBF2F1016019680F2202EA66
:101C300011117B4A545C0168E14041601C68072532
:101C400005EA9424145D21FA04F484601B6805EA13
:101C50005333D25CD140C16070BDC0F30121032970
:101C600008D1684B083319686E4A21F4F811024014
:101C70000A431A60634970310A68C0F30B000243DB
:101C80000A607047634944390860704761494039C8
:101C9000086070476449086070475A4A303200292A
:101CA000116801D0014300E0814311607047554A3B
:101CB00034320029116801D0014300E081431160F2
:101CC0007047504A38320029116801D0014300E0C2
:101CD0008143116070474B4A40320029116801D09E
:101CE000014300E0814311607047464A44320029B5
:101CF000116801D0014300E0814311607047414AFF
:101D000010320029116801D0014300E081431160C5
:101D100070473C4A14320029116801D0014300E0A9
:101D2000814311607047374A18320029116801D089
:101D3000014300E0814311607047324A203200299C
:101D4000116801D0014300E08143116070472D4AC2
:101D500024320029116801D0014300E08143116061
:101D60007047284A50320029116801D0014300E031
:101D7000814311607047234A54320029116801D011
:101D8000014300E08143116070471E4A5832002928
:101D9000116801D0014300E0814311607047194A86
:101DA00060320029116801D0014300E081431160D5
:101DB0007047144A64320029116801D0014300E0E1
:101DC0008143116070470F4A0D320029117801D00C
:101DD000014300E08143117070470A487430016884
:101DE00041F08071016070470146064A00200C32C4
:101DF00012680A4200D00120704702490E31087073
:101E00007047000000380240FFFFF6FE103000244B
:101E100000004742800E47420000FFFF0024F4000C
:101E20004C000020FFFCFF0F5C01474210B5012170
:101E30008C032046FFF78BFF2046BDE810400021B1
:101E4000FFF785BF11490860704710B58A0721F078
:101E50000304120F0F230D499340083121440C68ED
:101E60009C430C600B68904003430B6010BD084915
:101E70000860704707490860704704490020203116
:101E80000968C90500D501207047000000380140ED
:101E9000DC00274200042742CA4910B5884206D117
:101EA00001211020FFF753FF0021102028E0C64930
:101EB000884202D101214C0410E0C449884202D179
:101EC00001218C040AE0C249884202D10121CC04DC
:101ED00004E0C04988420AD101210C052046FFF7E1
:101EE0002CFF2046BDE810400021FFF726BFBA496D
:101EF000884209D101212020FFF729FF002120205D
:101F0000BDE81040FFF723BF10BD7FB50446008A2F
:101F10000D46C98820F4405001432182A08941F236
:101F20000C618843A9882A8911436A8902431143B5
:101F3000A181A08A20F44071A8890843A082684644
:101F4000FFF748FE9F48844202D0A348844201D153
:101F5000039800E00298A1890904002900EBC00160
:101F600001EB0010296802DA4FEA410101E04FEA73
:101F70008101B0FBF1F06422B0FBF2F14FEA0111F4
:101F80004FEA11136FF018056B4300EB8300A38930
:101F90001D044FF0320306D503EBC000B0FBF2F096
:101FA00000F0070005E003EB0010B0FBF2F000F0DA
:101FB0000F00084320817FBD4FF4165101600021BE
:101FC0008180C18001810C2242818181704710B5DE
:101FD000028A4C8822F470630A8822438C88C9885C
:101FE0000C4322431A43028210BD0021018041802C
:101FF0008180C18070470029818902D041F400515D
:1020000001E021F4005181817047028B02F47F428C
:102010000283028B0A43028370470029818902D020
:1020200041F4004101E0C1F30E01818170470029B4
:10203000818A02D041F4006101E021F400618182D3
:102040007047C1F30801818070478088C0F30800A1
:102050007047028A22F00F020282028A0A43028239
:1020600070470029818902D041F0020101E021F08E
:10207000020181817047828922F400628281828913
:102080000A4382817047028A22F020020282028A79
:102090000A43028270470029018A02D041F480413C
:1020A00001E021F4804101827047818941F0010102
:1020B000818170470029818A02D041F0080101E046
:1020C00021F0080181827047028BD2B20283028B19
:1020D00042EA0121018370470029818A02D041F040
:1020E000200101E021F02001818270470029818ACE
:1020F00002D041F0100101E021F01001818270470F
:10210000828A22F004028282828A0A438282704793
:102110000029818A02D041F0020101E021F0020190
:1021200081827047002A828A01D00A4300E08A43F4
:102130008282704710B5C1F3421301F01F040121E0
:10214000A140012B07D0022B07D01430002A0268CF
:1021500005D00A4304E00C30F8E71030F6E78A4374
:10216000026010BD0246002012880A4200D0012001
:102170007047C9430180704770B501F01F05012603
:102180000024C1F3421306FA05F2012B0FD0022BF3
:102190000FD0838A4FEA11210088134206FA01F614
:1021A00000EA060001D000B10124204670BD8389F9
:1021B000F0E7038AEEE70A0A01219140C943018052
:1021C00070470000001001400044004000480040FB
:1021D000004C00400050004000140140FE4910B582
:1021E000884206D101210846FFF7B1FD00210120F8
:1021F0005BE0B0F1804F09D0F84988420DD1012150
:102200000220FFF79AFD0021022070E0012108461C
:10221000FFF793FD0021012069E0F149884206D1D2
:1022200001210420FFF789FD002104205FE0ED4932
:10223000884206D101210820FFF77FFD00210820F8
:1022400055E0E949884206D101211020FFF775FDCC
:10225000002110204BE0E549884206D101212020D1
:10226000FFF76BFD0021202041E0E149884206D1C3
:1022700001210220FFF76BFD0021022015E0DD495E
:10228000884202D101210C040AE0DB49884202D1D4
:1022900001214C0404E0D94988420AD101218C046F
:1022A0002046FFF754FD00212046BDE81040FFF70F
:1022B0004EBDD349884206D101214020FFF73DFDA4
:1022C0000021402013E0CF49884206D1012180201F
:1022D000FFF733FD0021802009E0CB4988420AD175
:1022E000841501212046FFF728FD00212046BDE886
:1022F0001040FFF722BD10BD30B50288B64CBC4D72
:10230000A0420DD0A8420BD0B0F1804F08D0B34B03
:10231000984205D0B24B984202D0B24B984203D1BA
:1023200022F070034A881A43AF4B984206D0AF4B55
:10233000984203D022F440730A891A4302804A6803
:10234000C2620A880285A04201D0A84201D1897ADE
:1023500001860121818230BD4FF0FF3141600021B3
:1023600001800181418081727047018582827047BE
:10237000028822F070020A4302807047416270476F
:10238000C1627047406A7047008D7047002901881C
:1023900002D041F0020101E021F00201018070470A
:1023A0000029018802D041F0040101E021F004017C
:1023B000018070470029018802D041F0800101E0CE
:1023C00021F0800101807047028822F0080202801B
:1023D00002880A4302807047028822F44072028019
:1023E00002880A43028070470029018802D041F028
:1023F000010101E021F001010180704730B5028C3C
:1024000022F001020284028C8388048B22F00202F3
:1024100024F073050C882C438D8915434A882A4380
:102420006D4DA84202D0724DA8420DD122F0080590
:10243000CA8923F440732A4322F004058A882A4378
:102440000D8A1D434B8A2B43838004838968416333
:10245000028430BD70B5028C22F010020284028C1E
:102460008388048B0D8824F4E6464FF6FF7404EA53
:10247000052535438E8922F0200204EA061616430C
:102480004A8804EA02123243534EB04202D0584EF8
:10249000B04215D122F08006CA8923F4406304EAD1
:1024A0000212324322F040068A8804EA02123243C2
:1024B0000E8A04EA86061E434B8A04EA83033343EA
:1024C0008380058389688163028470BD70B5028C46
:1024D00022F480720284028C8388848B0D8824F01D
:1024E000730425438E894FF6FF7422F4007204EAC8
:1024F000062616434A8804EA02223243364EB04288
:1025000002D03B4EB04215D122F40066CA8923F4B2
:10251000405304EA0222324322F480668A8804EAA5
:10252000022232430E8A04EA06161E434B8A04EA4C
:1025300003133343838085838968C163028470BD3C
:1025400070B5028C22F480520284058C8288838BC1
:102550000C8823F4E6464FF6FF7303EA0424344361
:1025600025F400568D8903EA053535434E8803EA84
:1025700006362E43184DA84202D01D4DA84205D163
:1025800022F480450A8A03EA82122A4382808483E5
:1025900089680164068470BD0021018041808180CA
:1025A00081608181C18101824182704730B50124FF
:1025B000058C00F118038C40A543058431B308292C
:1025C0002CD0091FC1F34E001844016848F6FF7370
:1025D0001940016001681AE0000001400004004059
:1025E00000080040000C00400010004000140040B3
:1025F0000004014000400140004401400048014007
:1026000000180040001C00400020004006E04FF68B
:10261000FF7303EA02221143016030BD03EB510056
:1026200001684FF68F73194001600168F3E7416359
:10263000704781637047C163704701647047028BC4
:1026400022F070020A4302837047028B4FF6FF7339
:1026500022F4E04203EA0121114301837047828B97
:1026600022F070020A4382837047828B4FF6FF7319
:1026700022F4E04203EA0121114381837047028B77
:1026800022F008020A4302837047028B4FF6FF7361
:1026900022F4006203EA0121114301837047828B17
:1026A00022F008020A4382837047828B4FF6FF7341
:1026B00022F4006203EA0121114381837047028BF7
:1026C00022F004020A4302837047028B4FF6FF7325
:1026D00022F4806203EA0121114301837047828B57
:1026E00022F004020A4382837047828B4FF6FF7305
:1026F00022F4806203EA0121114381837047028B37
:1027000022F080020A4302837047028B4FF6FF7368
:10271000C2F30E0203EA0121114301837047828B49
:1027200022F080020A4382837047828B4FF6FF7348
:10273000C2F30E0203EA0121114381837047028C28
:1027400022F002020A4302847047028C22F008023F
:102750000A4302847047028C4FF6FF7322F0200276
:1027600003EA0111114301847047028C4FF6FF7395
:1027700022F0800203EA0111114301847047028CA8
:102780004FF6FF7322F4007203EA01211143018422
:102790007047028C4FF6FF7322F4006203EA0121B6
:1027A000114301847047028C4FF6FF7322F40052EC
:1027B00003EA013111430184704710B50123048CF1
:1027C0008B409C430484038C8A401343038410BDD4
:1027D00010B50423048C8B409C430484038C8A40F2
:1027E0001343038410BD828B22F440628283828B68
:1027F0004FF6FF7303EA01210A4382837047828BFD
:1028000022F00C028283828B0A4382837047028B00
:1028100022F440620283028B4FF6FF7303EA012128
:102820000A4302837047F0B5048C24F0100404843A
:10283000078B068C4FF6FF7404EA011527F47347E3
:1028400004EA0331394304EA02220A4326F0A001D4
:10285000294341F0100102830184F0BD028B22F074
:102860000C020283028B0A43028370472DE9F04178
:102870000C460E884988A288238905460EB3042E8B
:1028800026D0082E2E8C4FF6FF7028D026F48056C6
:102890002E84AF8B2E8C00EA022200EA013127F44D
:1028A00073473A4300EA0330104326F420420A43B8
:1028B00042F48051A8832984E1882846BDE8F0418C
:1028C00091E700F062F9E1882846BDE8F041C5E7EC
:1028D000FFF7A9FFE1882846BDE8F04197E726F415
:1028E00080762E84AF8B2E8C00EA012100EA031043
:1028F000104327F0F307384326F420620A4342F4DA
:102900008071A8832984E1882846BDE8F04176E7F4
:1029100000210180418001228280C18001817047B5
:102920002DE9F0410C46002649880746012501B9EA
:102930000226A288012A00D10225208823890028A6
:10294000384610D0FFF76FFFE1883846FFF75FFF8A
:1029500023892A463146384600F017F9E18838467F
:10296000BDE8F0417AE700F010F9E1883846FFF75A
:1029700075FF23892A4631463846FFF754FFE18820
:102980003846BDE8F04142E7406B7047806B7047C6
:10299000C06B7047006C704710B50A884B88CC88B4
:1029A0001A438B8823431A430B891A434B8989891D
:1029B0001A430A43A0F8442010BD00210180418041
:1029C0008180C1800181418181817047002930F877
:1029D000441F02D041F4004101E0C1F30E01018027
:1029E00070470029818802D041F0040101E021F004
:1029F0000401818070470029818802D041F00101E3
:102A000001E021F0010181807047002A828901D014
:102A10000A4300E08A438281704781827047024600
:102A20000020128A0A4200D001207047C943018267
:102A3000704702460020138A92890B4202EA010283
:102A400002D0002A00D001207047C943018270479C
:102A50001143A0F848107047002A828901D00A4328
:102A600000E08A43828170470029818802D041F0CA
:102A7000080101E021F0080181807047018921F0FF
:102A8000070101817047028922F070020A43028126
:102A9000704700B50346FFF7F6FF188940F00700BE
:102AA000188100BD70B516460D46602904464FF0EA
:102AB000010231460AD000F068F829462046FFF7A7
:102AC000E2FF208940F00700208170BDFFF7ABFED8
:102AD000F3E730B504894FF6FF7505EA0323134386
:102AE000E4B20B432343038130BD10B50446FFF726
:102AF000F0FF208940F07700208110BD10B504461A
:102B0000FFF7E7FF208940F48040208110BD8288D4
:102B100022F07002828082880A4382807047028994
:102B200022F00702028102890A430281704702896A
:102B300022F08002028102890A430281704770B547
:102B40000589048B068C25F007050D434FF6FC41E3
:102B50000C4040F201110C434FF6FF7101EA0311E2
:102B600026F022061143314305810483018470BDA0
:102B70000029818802D041F0800101E021F080012C
:102B800081807047A0F85010704770B5048C24F015
:102B900001040484058B048C4FF6FF7606EA0313C8
:102BA000134325F0F3052B4324F00A020A4342F0B5
:102BB00001010383018470BD10B501210C0720467B
:102BC000FFF7BBF82046BDE810400021FFF7B5B87D
:102BD0002A49086270472A4A116821F0E00101433E
:102BE000116070472549086170472449A031086089
:102BF00070472249A43108607047214900280868BD
:102C000003D040F480400860704720F48040FAE729
:102C10001A49486270471A4B1A6822F003020243AD
:102C20001A601848026842F004020260012905D0C7
:102C300020BF016821F004010160704730BFF8E750
:102C40000F48016841F004010160016841F0020190
:102C500001600C48016841F00401016030BF704719
:102C6000074A0146002052680A4200D001207047FE
:102C700003490A6842EA80000860704700000E427B
:102C80000070004010ED00E072B6704762B6704709
:102C9000EFF3108072B6704780F31088704730BF32
:102CA000704720BF7047B0FA80F0704790FAA0F0EC
:102CB000B0FA80F0704790FAA0F0704710B5FFF7B7
:102CC000E7FF044610216A4803F0B8FE2046BDE83D
:102CD0001040FFF7E1BF674910B500200860FDF71D
:102CE0007EFABDE81040E9E7FEE770B505460C0046
:102CF0000ED075B1FFF7CCFF064610225C4928467E
:102D000004F026FC3046FFF7C7FF0020208070BD8E
:102D1000FEE70A20088070BD70B50C00054612D091
:102D200095B1102104F006FC102810D2FFF7B0FF77
:102D30000646102229464E4804F00AFC3046FFF7AA
:102D4000ABFF002005E0FEE70A20088070BD4FF4CD
:102D50007A70208070BDFDF755BA7047020004D02C
:102D60004448006810B1002102E0FEE74FF4FA6128
:102D7000118070473F490860704710B5FFF793FF17
:102D8000183810BD10B5FFF78EFF103810BDFFF7D3
:102D90008ABFF0B54FF0FF370C0E0B0C0D0A002662
:102DA000354A3F1A8E411CD24FF0FF373E0C3F1A76
:102DB0008E410AD24FF0FF36350A301A8D4101D2CA
:102DC000105DF0BDD05C0830F0BD4FF0FF34FF2344
:102DD000201A8B4102D2505D1030F0BD505C18308B
:102DE000F0BD4FF6FF740023241A8B4111D26FF00F
:102DF0007F440023241A8B4105D2000E40EA0120B3
:102E0000105C2030F0BD000C40EA0140105C28301E
:102E1000F0BDFF240023241A8B4105D2000A40EAAA
:102E20000160105C3030F0BD105C3830F0BD08B18E
:102E3000FFF73CBF0820704708B1FFF737BF1020ED
:102E4000704708B1FFF732BF2020704700B550EA45
:102E5000010201D1402000BDC243521CCB4343F1CB
:102E6000000310401940FFF794FFC0F13F0000BD80
:102E7000141400205C000020D08900084B48006832
:102E8000002800D00047704749484A49006809684F
:102E900000EB8100484920F0070008607047474870
:102EA0000068002800D0004770474549096800299C
:102EB00000D00847704743490968002900D00847F7
:102EC000704741490968002900D00847704710B58C
:102ED000029C02EB840222F007024FF0807442E968
:102EE00002043A4842F80C0DA2F130004FF01234BF
:102EF0004FF00332C0E90A244FF002324262C0E9C7
:102F000007134FF011318161D100416161100161FE
:102F10009100C1604FF0073181604FF00631416090
:102F20004FF0053140F804195100016010BD2848E8
:102F300010B5006800B18047FDF764F92549264ABD
:102F400009681268914206D094314B68C31A0B602D
:102F50008C6823448B60C2F8980010BD1F4800683D
:102F6000002800D00047704710B5FFF791FE1C4ABB
:102F70001178491C1170FFF78FFE03F051FCBDE87A
:102F8000104000F0FAB84FF0E021401E4861154AA9
:102F9000106820F07F401060086940F0050008616B
:102FA000086940F0020008617047000078000020C6
:102FB000DC8A0008E08A0008600000207C00002015
:102FC0006C00002070000020740000209562000852
:102FD00080000020F0000020F40000208400002089
:102FE0008C00002020ED00E070470000FD4CFE4DFD
:102FF000FFF74EFE2168491C21602968491C2960A1
:10300000FFF74AFEFFF73AFFF2E700B5F54A89B04D
:10301000002111600B2205910691CDE90720F348AC
:10302000F34AF44B006812681B680292CDE9030171
:103030003F20CDE900030023AFF24F02EEA1F34899
:1030400002F0BFFB09B000BD0020F14B024600EBCF
:10305000400103EB8101401C0A810A60C0B24A6052
:103060004028F4D3704710B50446FFF70DFFE94838
:1030700000220A210270E8480270E8480270E8481D
:103080000260E8480260E8480270E8480270E848D8
:103090000270E8480270E8480068B0FBF1F0E749C8
:1030A0000860E749086830B1E648006818B1096867
:1030B00004C0491EFCD1E4480260E4480260E448D0
:1030C0000260E4480260E4480260E4480260E448C8
:1030D0000260E448027001F0D9FBFFF7B5FF20461B
:1030E00000F098FF208800283BD1204601F03FF8EF
:1030F0002088002835D1204601F048F82088002893
:103100002FD1204601F0AEFB2088002829D120468F
:1031100001F06EFE2088002823D1204602F0C4F87A
:10312000208800281DD1204603F09AF82088002826
:1031300017D12046FFF769FF2088002811D12046CB
:1031400003F077F9208800280BD1204602F00AFA14
:103150002088002805D100F03FFCBDE81040FFF7B3
:1031600043BF10BDAC480078012805D1A9490878B3
:10317000FA2801D2401C08707047A74810B50078A3
:1031800001282BD1FFF784FDA2490446087800B33B
:10319000401E10F0FF0008701BD1A0480078C0B995
:1031A00001F07DFBA1490870994900EB400051F8FE
:1031B00020009C4908609A490968884209D050F863
:1031C000901F491C0160A8480168491C016004F077
:1031D0003FFF2046BDE81040FFF75EBD10BD8D48A3
:1031E00010B50078002824D18C480078002820D120
:1031F000FFF74EFD044601F052FB8C4908708449EC
:1032000000EB400051F820008649086084490968B5
:10321000884209D050F8901F491C0160924801680B
:10322000491C016004F00FFF2046BDE81040FFF785
:1032300033BD10BD70B504467648007810B146F62F
:10324000625015E074480078012802D045F6896084
:103250000EE0724D2878FA2802D345F2092007E0E3
:10326000FFF716FD2978491C2970FFF715FD00208E
:10327000208070BD70B504466648007810B146F6EF
:1032800065501EE064480078012802D045F6896048
:1032900017E0624D287860B1FFF7FAFC2978491EE3
:1032A00011F0FF01297007D0FFF7F6FC46F66350D6
:1032B00007E046F6645004E0FFF7EEFCFFF78FFFEF
:1032C0000020208070BD2DE9F04116460C460746CF
:1032D000FFF7DEFC57490025012F01D00D7001E0FA
:1032E00001220A7055490CB10C6005E0524A0A23CC
:1032F0001268B2FBF3F20A60FFF7CEFC3580BDE83E
:10330000F08110B50189002914D0012912D00024C0
:10331000022907D0D0E90013CA681461C1E9034348
:10332000D96005E0D0E90012C1E90342C2E9031403
:10333000C0E9002110BD70B504463648007810B1D0
:1033400048F2D1402EE03548007810B146F663507F
:1033500028E038480078012802D046F67B1021E0AA
:10336000FFF796FC064630482949007800EB4000FC
:1033700001EB80052889022805D23046FFF78CFC36
:1033800046F67A100EE02846FFF7BBFF2868416D2D
:1033900009B92A49096881653046FFF77DFCFFF7C6
:1033A0001EFF0020208070BD70B51B4D044628789C
:1033B00018B145F68A60208070BD01F070FA1B4993
:1033C000087019490870124900EB400051F82000BC
:1033D00014490860124908600120287004F022FE98
:1033E00044E0000088000020C8000020D88A0008BF
:1033F000D48A0008D08A000875432F4F532D4949BD
:10340000492049646C65205461736B00E4240020FA
:10341000B02500208C0000208D000020B20000208C
:10342000F0000020F4000020A6000020A7000020EB
:10343000A8000020B8000020048B0008B400002081
:10344000E08A0008DC8A00086C0000207000002080
:1034500074000020780000207C0000208000002004
:1034600084000020E6000020DC00002043F69920C4
:10347000A1E70021018047F25D60704738B14268E2
:10348000C1F8BC2081688968096AC161704791F8F8
:103490003400022803D0072803D0FDA002E0FDA0DD
:1034A00000E0FEA0C1F8BC00704730B58A68002576
:1034B00092F8374002891AB1521C028102680BE06F
:1034C000012202814D600D60016014E0936893F861
:1034D0003730A34203D85268002AF7D107E032B14F
:1034E000136853B1C1E900325960116030BD4D60BD
:1034F00042680A605160416030BD1160C1E900520C
:10350000016030BD10B5C28700242346016309E085
:103510004B600B600B614B610B83CB61886020318A
:10352000641CA4B29442F3D310BD70B5044690F865
:103530003700DD4900EB400001EB8001D4E90320B6
:10354000002540B10B895B1E0B81C26092B11061F6
:103550002561E56070BD2AB10889401E08811561AA
:103560000A60F5E70D810D604D6094F8370001F0B9
:10357000B4F9EDE74860EBE738B50446022531B110
:103580006B46022202F08EFFBDF8000028B184F8DD
:1035900036502046FFF7C9FF38BD032084F83600B7
:1035A000F7E72DE9F041C14D07460C462868002693
:1035B000194680F8342080F83560FFF7DDFF64B1EC
:1035C000FC6004F10806012239462868FFF79AFFDB
:1035D00039463046FFF769FF02E02868C687066370
:1035E00020462968BDE8F04148E710B5028900246B
:1035F000012A0BD00A6862B14B6873B153601A603C
:103600000289521E02814C600C6010BD046044604F
:10361000F6E74A6814600260F2E754604260EFE740
:1036200070B50646C58F046B07E0E0682146083098
:10363000FFF7DBFF20346D1EADB2002DF5D1002069
:10364000F087306370BD10B50B6BC98F08E0DC6884
:10365000844202D1DA61186110BD2033491E89B25B
:103660000029F4D110BD90F837108F4A01EB4101C9
:1036700002EB810100230A8942B1521C0A810A68C7
:10368000C0E903230A6810610860704701220A81BB
:10369000C360036108604860704790F83710824A41
:1036A00001EB410102EB810100230A893AB1521C6E
:1036B0000A81C3604A680261D06048607047012295
:1036C0000A81C36003610860F7E710B5044690F80B
:1036D000370001F0F4F8764994F837000978884209
:1036E000204602D1BDE81040D7E7BDE81040BAE758
:1036F00010B5044602F0DAFD94F83610490703D4F9
:103700002046BDE81040E0E710BD2DE9F041074636
:1037100091F83600002615460C464FF0010808289F
:1037200032D2DFE800F0313104043131191994F854
:103730003400032802D13846FFF785FFE665A4F878
:103740006060256417B12046FFF76AFF2046FFF747
:10375000CFFF3434A67014E094F83400032802D16B
:103760003846FFF770FFE665A4F86060256417B17E
:103770002046FFF755FF204602F098FD0420343420
:10378000A07084F801802670B9E541A2C1F8BC2080
:10379000816811B18968096A00E03DA1C161704783
:1037A00070B580F83710C58F046B0FE0E6680836F7
:1037B0003089012807D921463046FFF716FF2146F8
:1037C0003046FFF772FE20346D1EADB2002DEDD1F4
:1037D00070BD002101604160018170470289521C67
:1037E000028102684A6000220A60026802B1116028
:1037F00001600289012A00D14160704710B50B6B4E
:10380000C98F08E0DC68844202D1DA61186110BD1A
:103810002033491E89B20029F4D110BD2DE9F041B1
:103820000C4691F83610002502261746082942D288
:10383000DFE801F0414104044141181894F83410C4
:10384000032902D12146FFF7D9FFE565A4F86050AE
:1038500020462764FFF7E4FE2046FFF749FF343493
:10386000A57013E094F83410032902D12146FFF724
:10387000C5FFE565A4F860502046276402F016FDF8
:103880002046FFF7CDFE04203434A070667011E0AE
:10389000200000005461736B205100005461736B71
:1038A0002053656D00000000B0250020F0000020CE
:1038B000A6000020257022E570B50C6B049DC98F11
:1038C0000AE0E668864204D1C4E904022383E56184
:1038D00070BD2034491E89B20029F2D170BDF8B5FF
:1038E0000C46054691F83610002606981F46082912
:1038F0003AD2DFE801F0393904043939212194F84A
:103900003410032911D0E265A4F86070206435B149
:103910002046FFF785FE21462846FFF736FF204662
:10392000FFF7E6FE3434A6701CE000903B462146CB
:103930002846FFF7C1FFEAE794F83410032914D0B2
:10394000E265A4F860702064204602F0AFFC35B157
:103950002046FFF765FE21462846FFF716FF0420A4
:103960003434A07066702670F8BD00903B46214646
:103970002846FFF7A1FFE7E770B505461248007833
:10398000012820D1FFF784F904462868B0B10F4917
:10399000884213D0816D11B1491E81650ED12889ED
:1039A00002280BD30A48007840B92846FFF7A9FC43
:1039B0002868416D09B90749096881652046BDE855
:1039C0007040FFF769B970BDB8000020E424002002
:1039D000B2000020B4000020704700000023FC4A21
:1039E000FAA14361C161116819B181614861106038
:1039F00070478361FBE72DE9F0410446F548164620
:103A00000F4600781D4610B142F6E1601CE0CCB1D3
:103A1000FFF73EF9266280460026EF486662C4E959
:103A2000000704F10800FFF7D4FE2046FFF7D6FF99
:103A3000EA490888401C08804046FFF72DF92E808F
:103A4000BDE8F08145F6C3501880F9E7E44901600C
:103A5000E4A14160002101620830FFF7BABED0E95D
:103A6000052100232AB151B191614A61836143610B
:103A70007047D74A116001B14B6183617047936110
:103A8000F5E72DE9F05F0746D248144689460078ED
:103A900010B143F2C9200AE03FB145F6256B51B1A0
:103AA000012908D0A2F800B002E045F6C35010800A
:103AB0000020BDE8F09FC8493868884202D045F62A
:103AC000C450F4E7FFF7E4F882463D8A5FEA090054
:103AD000DFF8089307F10806A84608D001281FD090
:103AE0005046FFF7D9F8A4F800B04046E1E7B8F136
:103AF000000F06D05046FFF7CFF847F25F10208046
:103B0000F3E73846FFF7ABFFB9F800103846491E17
:103B1000A9F80010FFF79AFF5046FFF7BDF81DE027
:103B2000FCF770FB834607E030685A4681683846E8
:103B3000FFF774FE6D1EADB2002DF5D13846FFF7CC
:103B40008EFFB9F800103846491EA9F80010FFF79B
:103B50007DFF5046FFF7A0F8FFF741FB0020CEE7BE
:103B600030B4A24C029D246844F8802F00222381A7
:103B700062602B4630BC0122FFF713BD2DE9FF4FD9
:103B800005468BB09348DDE9186400781F468946E6
:103B900010B146F2AE1018E0ADB148F20101781A4A
:103BA0008F422DD01DDC40F20111A7F201108F428F
:103BB00026D00FDC012F23D0022F21D0042F1FD0BD
:103BC000082F1AD11CE045F6C350208000200FB00A
:103BD000BDE8F08F012813D0032811D007280CD19D
:103BE0000EE0B0F5807F0BD0F4DDA0F580700138D9
:103BF00006D0022804D0062802D045F62560E4E766
:103C000075492868884202D045F6C450DDE7F805BA
:103C100001D5012000E0002080460EB10020306078
:103C200007F00F000990FFF733F8834609987049B1
:103C3000012835D0022842D0042803D008281CD0FF
:103C4000584698E0286A00EA090ACA453BD1B8F10B
:103C5000010F02D120EA0A00286264480068C0F817
:103C600084A014E0686A306013E0087898B358467E
:103C7000FFF712F846F66350A7E7286A10EA090A28
:103C800021D0B8F1010F15D120EA0A0011E0002E71
:103C9000E8D15846FFF700F800202080504696E70C
:103CA000286A29EA000ACA450DD1B8F1010F13D0DC
:103CB00000E028624D490968C1F884A0E7E7286A56
:103CC00039EA000AF1D13804CFD55846FEF7E4FFAF
:103CD00046F2B01079E702E040EA0A00E9E70D9801
:103CE00000903B464A46294601A8FFF739FF58464F
:103CF000FEF7D2FFFFF773FAFEF7CAFF3B4B1A68D5
:103D000092F8351051B1012914D0022922D003298B
:103D100018D0FEF7C1FF46F62E6056E70EB1116CC3
:103D20003160002727801968B8F1010FD1F884604D
:103D300018D029E00EB1116C3160FEF7ADFF46F2EC
:103D4000A91042E70EB100213160FEF7A5FF47F24E
:103D5000D9203AE70EB1116C3160FEF79DFF45F6B0
:103D6000C25032E7099901290BD0022909D0042950
:103D700004D0082902D0FEF78FFF3EE7296AB1433D
:103D800001E0296A31432962FEF786FF2780304629
:103D90001DE72DE9F05F80460E480F461446007877
:103DA00010B146F2AA1027E0B8F1000F22D04FF46C
:103DB000807A57B1574521D0B7F5004F1ED0B7F5DF
:103DC000014F1BD045F6256016E017E020000000EB
:103DD000900000208C000020464C414794000020B9
:103DE0004E4F4E453F464C4147000000F00000203A
:103DF000B200002045F6C35010801AE08949D8F877
:103E00000000884202D045F6C450F5E7FEF740FFB7
:103E10008146B8F8100008F1080520B10026FCF72B
:103E2000F1F9834611E04846FEF736FF46F2AB1043
:103E3000208000203DE628685A4681684046FFF70A
:103E400064FC761CB6B2574502D128890028F2D10D
:103E50004846FEF721FF380401D4FFF7C0F90020DF
:103E60002080304625E670B504466F48007820B1C2
:103E700046F2AE102080002070BDFEF709FF6B49AE
:103E80000968D1F88450FEF707FF002020802846FB
:103E900070BD70B500F13404002521656570257092
:103EA0000264A078343C08280ED2DFE800F00D0D43
:103EB00004040D0D0A0A2046FFF71AFC84F8365058
:103EC00002E0042084F836002046BDE87040FFF789
:103ED000A7BB2DE9F0479A4690460D460446089E3A
:103EE000FEF7D6FE07465FEA08000FD0012810D083
:103EF000B0F5004F0AD06FF4004118EB010008D074
:103F00003846FEF7C9FE45F6256028E0206A2843BA
:103F100001E0206AA843C4E9080A218A04F10800E4
:103F20004FF0000909B1056837E03846FEF7B4FEE6
:103F3000A6F80090206ABDE8F08790F888106D68B8
:103F400001F00F01012917D002291DD0042909D041
:103F500008290CD03846FEF79FFE43F6FF2030803C
:103F60000020E8E7216AD0F88020114009E0216AAA
:103F7000D0F8802011400BE0D0F88010236A0A4668
:103F800099438A4205D007E0D0F88010226A914315
:103F900011B15246FFF77DFF15B1A8680028CCD1BA
:103FA0003846FEF779FE5FEA084001D4FFF717F9BB
:103FB000FEF76EFE246AFEF76FFEA6F8009020461C
:103FC000B9E7F8B514460F4606001D460CD074B18B
:103FD000012C0CD0B4F5004F09D06FF4004020182C
:103FE00005D045F6256008E045F6C35005E00D49CB
:103FF0003068884204D045F6C45018800020F8BDCF
:10400000FCF700F903462246394630460095FFF793
:1040100060FFF8BD064A00211160064A1180018048
:1040200070470000464C41478C000020F000002003
:104030009000002094000020504B002282611968FB
:1040400019B1C161886118607047C261FBE72DE951
:10405000F04704464A48DDE9087500789846164658
:104060008A4610B145F2B96014E045F2BB615EB119
:10407000B8F1020F01D2481C0CE045F2C160042FD8
:1040800008D316F0030F02D02980BDE8F08717F09F
:10409000030F01D02880F8E7A8F101018BB2324666
:1040A000002104E0D0191060491C024689B29942EF
:1040B000F8D34FF00009C2F80090FEF7E9FD8446FE
:1040C000304884E84104E660A4F81480A4F8128023
:1040D00027822046FFF7B0FF2B490888401C088044
:1040E0006046FEF7D9FDA5F80090CEE770B5040054
:1040F0000D460ED0FEF7CCFDA18A71B1E668491ECF
:104100003268E260A182FEF7C7FD002028803046B9
:1041100070BD45F2BF60088004E0FEF7BDFD45F2CA
:10412000C2602880002070BD70B50E4604001546A0
:104130000BD06EB1FEF7ACFDA18A628A91420BD31F
:10414000FEF7AAFD45F2BA600FE045F2BF6001E05C
:1041500045F2BE60108070BDE1683160E660A18A02
:10416000491CA182FEF798FD0020288070BD034AFB
:1041700000211160044A11800180704798000020DE
:104180008C0000204D454D209C000020F0B55B4E7A
:10419000316859B15A4F398859B13B8831685B1E33
:1041A0009DB2002301F110021C460EE045F21E7183
:1041B00001E045F21D710180F0BDC1E900240C81D0
:1041C000CC60103110325B1C9BB2AB42F5D30C605B
:1041D0004C600C81CC604B4932680A603A888A8016
:1041E000CC800C810480F0BD10B5428992B1454964
:1041F00003680C681C6043680B60CB8844891B1BF8
:10420000CB808B88448923448B800021418181812C
:1042100001604160104610BD018100214181818112
:10422000016041607047F0B544890025CCB1446815
:10423000278966680F800AB1E168116021684160D2
:10424000B9B14189491E41812E480168216004604D
:104250008188491C8180C188491EC1801D803046EB
:10426000F0BD0D8002B1156046F29250188000201A
:10427000F0BD05604581E7E7F0B54489DDE905E675
:104280000589AC4202D346F293501EE01D4DAF8823
:10429000CFB12C687F1ED4F800C0C5F800C0AF8035
:1042A000EF887F1CBFB2EF80B5F808C0BC4500D2D4
:1042B0002F814789002557B1DB060ED403681C60A7
:1042C000046025600CE045F21D703080F0BD046094
:1042D000012344604381256005E043682360446016
:1042E00043895B1C4381878943899F4200D2838134
:1042F00061602281C4F80CE03580F0BDE88A0008D6
:10430000E48A0008A42500200023F94AF7A14361AC
:10431000C161116819B181614861106070478361A2
:10432000FBE72DE9F0410446F2480E4615460078B9
:1043300010B142F6E16021E0F4B1FEF7A9FC0746B6
:10434000ED48C4E900060026266284F82560402076
:10435000A66284F8240004F10800FFF73AFA204628
:10436000FFF7D2FFE5490888401C08803846FEF771
:1043700093FC2E80BDE8F08145F6C3501080F9E72C
:10438000DF490160DFA141600021016280F8251052
:104390008162402180F824100830FFF71ABAD0E972
:1043A000052100232AB151B191614A6183614361C2
:1043B0007047CF4A116001B14B61836170479361CF
:1043C000F5E72DE9F05F0746CA480E461446007827
:1043D00010B143F2C92008E02FB146B1012E06D03A
:1043E00045F6256001E045F6C350108062E0C24901
:1043F0003868884202D045F6C450F6E7FEF748FC1C
:104400003D8ADFF8F8B2824607F10808A9463EB1B6
:10441000012E20D05046FEF73FFC45F6256007E010
:10442000B9F1000F08D05046FEF736FC47F25F1096
:1044300020804846BDE8F09F3846FFF7B0FFBBF844
:1044400000103846491EABF80010FFF799FF5046A0
:10445000FEF722FC4BE03E6A16B396F8370097F859
:10446000241088421CD096F8360008281CD2DFE8B9
:1044700000F004111414111114143046FFF755F80C
:1044800097F8240086F8370000F019FA3046FFF755
:1044900004F905E086F8371002E03046FFF780F9AE
:1044A000FBF7B0FE064610E05046FEF7F5FB46F679
:1044B0002D6020800020BDE7D8F8000032468168DA
:1044C0003846FFF7ABF96D1EADB2002DF4D138467A
:1044D000FFF765FFBBF800103846491EABF8001027
:1044E000FFF74EFF5046FEF7D7FBFEF778FE0020A1
:1044F0009EE72DE9F04F06467E4889B01C460078BD
:10450000129D90468B4610B146F2AE109BE046B12C
:10451000B8F1000F08D0B8F5004F05D045F625607A
:1045200091E045F6C3508EE073493068884202D06E
:1045300045F6C45087E04FF0000A0CB1C4F800A063
:10454000FEF7A6FB814696F82500704A78B1376AD7
:1045500011688F421FD1401C86F825000CB1B06A4B
:1045600020604846FEF798FB45F282706BE01068C9
:10457000306290F8370086F82400012086F8250084
:104580000CB1B06A20604846FEF786FBA5F800A093
:1045900009B0BDE8F08F5FEA084005D54846FEF750
:1045A0007BFB46F2B0104EE05948007828B14846EF
:1045B000FEF772FB46F6635045E097F8370091F836
:1045C0003710904688421ED997F83600082835D211
:1045D000DFE800F004131616131316163846FEF71C
:1045E000A4FFD8F8000090F8370087F8370000F0F3
:1045F00066F93846FFF737F805E087F8371002E02C
:104600003846FFF7CDF85B46042231466846FEF790
:10461000C8FF4846FEF740FBFEF7E1FDFEF738FB1A
:10462000D8F8002092F8351079B1012913D0022969
:1046300020D0032915D046F62E6117E04846FEF734
:104640002BFB46F62D602880A2E70CB1116C21608F
:10465000A5F800A00BE00CB1116C216046F2A91185
:1046600004E00CB1C4F800A047F2D9212980FEF77C
:1046700013FB8DE70CB1116C216045F6C251F5E7D3
:104680002DE9F05F80461B480F461446007810B1B4
:1046900046F2AA1012E0B8F1000F0DD04FF4807A64
:1046A00077B157450CD0B7F5004F09D0B7F5014F9A
:1046B00006D045F6256001E045F6C35010802FE096
:1046C0000D49D8F80000884202D045F6C450F5E7FD
:1046D000FEF7DEFA8146B8F8100008F10805C8B107
:1046E0000026FBF78FFD834626E000002000000037
:1046F000A00000208C0000204D555458A40000203C
:104700004E4F4E453F4D555445580000F000002097
:10471000B20000204846FEF7BFFA46F2AB102080F8
:10472000002087E628685A4681684046FEF7EDFF7C
:10473000761CB6B2574502D128890028F2D14846E6
:10474000FEF7AAFA380401D4FEF749FD00202080C4
:1047500030466FE62DE9F84F04464648154689462F
:10476000007810B146F20E2010E034B141B1B1F53D
:10477000004F05D045F6256008E045F6C35005E03A
:104780003D492068884204D045F6C4501080BDE8F9
:10479000F88FFEF77DFADFF8E4808246216AD8F8C8
:1047A0000000814205D05046FEF776FA45F281704E
:1047B00010E0FBF727FD0646A06294F82500401E96
:1047C00010F0FF0084F8250006D05046FEF764FA8A
:1047D00045F283702880DAE7208A04F108074FF059
:1047E000000BB0B3D8F8000094F8243090F83720CC
:1047F0009A4213D0FEF799FED8F8001094F82400DE
:1048000081F8370000F05BF8D8F80000FEF745FFAC
:10481000D8F800001A4990F837000870386800236B
:104820001A468168216291F8370084F8240001203B
:1048300084F8250020460096FFF751F85046FEF711
:104840002BFA5FEA094001D4FEF7C9FCA5F800B0D5
:104850009DE7FFE75E465046C4F820B0FEF71CFA1D
:104860002E8094E7074A00211160074A11800180D9
:10487000704700008C0000204D555458F000002077
:10488000A6000020A0000020A400002000201A4A5A
:10489000014642F82010401C0228FAD3704710B598
:1048A0000024154802E02034E4B2001D016800290C
:1048B000F9D00846FEF7F7F92044C0B210BD00F069
:1048C0001F0241090120C2F11F0290400A4A52F81A
:1048D0002130034342F82130704700F01F024109A4
:1048E0000120C2F11F029040034A52F82130834355
:1048F00042F8213070470000640000200023FF4A86
:10490000FDA14361C161116819B181614861106005
:1049100070478361FBE72DE9F0410446F8481646ED
:104920000F4600781D4610B142F6E16023E0ECB17D
:10493000FEB1FEF7ADF98046F248C4E90007314602
:1049400004F12000FFF768FC04F10800FEF741FFC6
:104950002046FFF7D3FFEC490888401C08804046FA
:10496000FEF79AF900202880BDE8F08145F6C35093
:1049700001E046F294501880F6E770B50446203006
:104980000546FFF731FCE1482060E1A060600021AE
:104990002846FFF741FC04F10800BDE87040FEF72F
:1049A00018BFD0E9052100232AB151B191614A61B4
:1049B000836143617047D14A116001B14B618361EA
:1049C00070479361F5E72DE9F05F0746CC48144640
:1049D0008946007810B143F2C9200AE03FB145F69C
:1049E000256B51B1012908D0A2F800B002E045F6CC
:1049F000C35010800020BDE8F09FC249386888424B
:104A000002D045F6C450F4E7FEF742F982463D8AEB
:104A10005FEA0900DFF8F09207F10806A84608D01F
:104A200001281FD05046FEF737F9A4F800B04046E1
:104A3000E1E7B8F1000F06D05046FEF72DF947F236
:104A40005F102080F3E73846FFF7ABFFB9F800109E
:104A50003846491EA9F80010FFF78FFF5046FEF7B1
:104A60001BF91DE0FBF7CEFB834607E030685A4692
:104A700081683846FEF7D2FE6D1EADB2002DF5D12D
:104A80003846FFF78EFFB9F800103846491EA9F8DE
:104A90000010FFF772FF5046FEF7FEF8FEF79FFB8F
:104AA0000020CEE770B5054695480C46007810B159
:104AB0004FF46C500BE045B192492868884208D009
:104AC00045F6C4502080002070BD45F6C3500880D4
:104AD000F9E7FEF7DDF8064605F12000FFF784FB55
:104AE00005463046FEF7D8F800202080284670BDE5
:104AF0002DE9F04F074689B08148DDE9125400786E
:104B00001E4691468B4610B146F2AE103FE03FB1D3
:104B10004EB15AB1B2F5004F08D045F6256036E0E7
:104B200045F6C35033E046F2D52030E07549386889
:104B3000884202D045F6C45029E04FF000080DB17C
:104B4000C5F80080FEF7A4F8009023462A463146B7
:104B500007F12000FFF767FB8246208840B15FEA3B
:104B600009400CD50098FEF797F846F2B0100EE019
:104B70000098FEF791F8504609B0BDE8F08F6548FF
:104B8000007838B10098FEF787F846F66350208029
:104B90000020F1E75B460522394601A8FEF701FD3A
:104BA0000098FEF779F8FEF71AFBFEF771F85A4AFB
:104BB0000346116891F8350060B1012815D002282C
:104BC0002AD003284FF0000719D0A6F8008046F637
:104BD0002E601BE0B1F86000CF6D308015B1106819
:104BE000006C2860A4F8008011E00027A6F800807F
:104BF00015B11068006C286046F2A91006E0404626
:104C0000A6F8008005B1286047F2D9202080184618
:104C1000FEF742F83846AFE70027A6F8008015B146
:104C20001068006C286045F6C250EFE72DE9F05F90
:104C3000804633480F461446007810B146F2AA1059
:104C400012E0B8F1000F0DD04FF4807A77B15745DC
:104C50000CD0B7F5004F09D0B7F5014F06D045F697
:104C6000256001E045F6C35010801AE02549D8F8C8
:104C70000000884202D045F6C450F5E7FEF708F878
:104C80008146B8F8100008F1080520B10026FBF7AE
:104C9000B9FA834611E04846FDF7FEFF46F2AB1035
:104CA00020800020A7E628685A4681684046FEF723
:104CB0002CFD761CB6B2574502D128890028F2D1C6
:104CC0004846FDF7E9FF380401D4FEF788FA0020D2
:104CD000208030468FE62DE9FF4F83B01E46DDE988
:104CE000107A93468046FDF7D3FF8146B8F810400E
:104CF00008F10800BCB111E020000000AC00002069
:104D00008C00002051554555B00000204E4F4E45B7
:104D10003F510000B2000020F0000020B10500D497
:104D2000012405681CE0F00601D4002300E01023F4
:104D3000CDE9007A5A4608F120000499FFF79CFA61
:104D400007B04846BDE8F04FFDF7A6BFA9686D68FB
:104D50005B4600974046049AFEF7C1FD641EA4B26C
:104D6000002CF3D14846FDF797FF300401D4FEF73D
:104D700036FA0021AAF8001007B0FEE62DE9FC4142
:104D80001C46089D1746884606000ED04FF4007159
:104D9000B4F5004F18D00BDCB4B1102C14D08C42F9
:104DA00012D0B4F5047F0CD10EE045F6C35011E0EB
:104DB000A4F50040103807D0B0F5F87F04D0884241
:104DC00002D045F6256005E00D493068884204D0E0
:104DD00045F6C4502880BDE8FC81FBF713FACDE905
:104DE000000523463A4641463046FFF774FFF2E796
:104DF000044A00211160044A1180018070470000BC
:104E000051554555AC000020B00000200023FF4A5A
:104E1000FDA14361C161116819B1816148611060F0
:104E200070478361FBE72DE9F0410446F8481646D8
:104E30000F4600781D4610B142F6E1601CE0CCB18F
:104E4000FDF726FF266280460026F2486662C4E926
:104E5000000704F10800FEF7BCFC2046FFF7D6FF70
:104E6000ED490888401C08804046FDF715FF2E805C
:104E7000BDE8F08145F6C3501880F9E7E7490160C5
:104E8000002101624162E6A141600830FEF7A1BC49
:104E9000D0E9052100232AB151B191614A618361B2
:104EA00043617047D94A116001B14B61836170471A
:104EB0009361F5E72DE9F05F0746D548144689462A
:104EC000007810B143F2C9200AE03FB145F6256BE6
:104ED00051B1012908D0A2F800B002E045F6C35054
:104EE00010800020BDE8F09FCA493868884202D08F
:104EF00045F6C450F4E7FDF7CBFE82463D8A5FEAF3
:104F00000900DFF8149307F10806A84608D0012825
:104F10001FD05046FDF7C0FEA4F800B04046E1E7C0
:104F2000B8F1000F06D05046FDF7B6FE47F25F100D
:104F30002080F3E73846FFF7ABFFB9F8001038469A
:104F4000491EA9F80010FFF799FF5046FDF7A4FE8F
:104F50001DE0FBF757F9834607E030685A46816841
:104F60003846FEF75BFC6D1EADB2002DF5D138461C
:104F7000FFF78EFFB9F800103846491EA9F8001057
:104F8000FFF77CFF5046FDF787FEFEF728F900206B
:104F9000CEE72DE9F04F06469D4889B01C460078C3
:104FA000129D92468B4610B146F2AE1009E036B122
:104FB0004AB1B2F5004F06D045F6256001E045F64E
:104FC000C350288056E093483168814202D045F6AC
:104FD000C450F6E74FF000090CB1C4F80090FDF79B
:104FE00057FED6F820800746B8F1000F0DD0A8F183
:104FF0000108C6F820800CB1706A20603846346A17
:10500000FDF74AFEA5F800904CE05FEA0A4009D59A
:105010003846FDF741FE46F2B0102880404609B000
:10502000BDE8F08F8048007828B13846FDF734FE9F
:1050300046F66350C5E75B46062231466846FEF7F2
:10504000B0FA3846FDF728FEFEF7C9F8FDF720FE56
:1050500002467648016891F8350068B1012811D000
:10506000022821D0032813D046F62E60288010464F
:10507000FDF712FE0020D2E70CB1086C2060A5F805
:1050800000900BE00CB1086C206046F2A91004E01F
:105090000CB1C4F8009047F2D92028801046346A39
:1050A000FDF7FAFD2046BAE70CB1086C206045F622
:1050B000C250F2E72DE9F05F804655480F4614468E
:1050C000007810B146F2AA1012E0B8F1000F0DD02E
:1050D0004FF4807A77B157450CD0B7F5004F09D01F
:1050E000B7F5014F06D045F6256001E045F6C350FF
:1050F00010801AE04749D8F80000884202D045F6EF
:10510000C450F5E7FDF7C4FD8146B8F8100008F17A
:10511000080520B10026FBF775F8834611E04846E4
:10512000FDF7BAFD46F2AB1020800020DAE62868D1
:105130005A4681684046FEF7E8FA761CB6B25745F3
:1051400002D128890028F2D14846FDF7A5FD380490
:1051500001D4FEF744F8002020803046C2E62DE955
:10516000F84F1F4690468A460646FDF791FD814658
:10517000348A06F108004FF0000B2CB15FEA8A5127
:1051800000D4012405681DE0346A601C06D0641C4C
:10519000C6E908484846FDF77FFD1EE04846FDF792
:1051A0007BFD46F6C55038800020BDE8F88FA96821
:1051B0006D6800231A463046CDF80080FEF78FFB5D
:1051C000641EA4B2002CF2D14846346AFDF764FD97
:1051D0005FEA0A4001D4FEF702F8A7F800B02046C3
:1051E000E3E770B50C460600154621D05CB1B4F576
:1051F000007F20D0B4F5004F1DD0B4F5024F1AD077
:1052000045F625601DE016E020000000BC000020EF
:105210008C00002053454D41C00000204E4F4E45AC
:105220003F53454D00000000B2000020F000002078
:1052300045F6C35005E020493068884204D045F661
:10524000C4501080002070BDFAF7DCFF02462B46E8
:1052500021463046BDE8704081E770B504461748E6
:105260000E461546007810B146F6C65006E03CB131
:1052700011492068884206D045F6C450108070BDA0
:1052800045F6C350FAE700202880FDF701FD216AAA
:1052900041B9218A31B147F25F112980BDE87040E0
:1052A000FDF7FABC2662F9E7054A00211160054ABC
:1052B000118001807047000053454D418C00002053
:1052C000BC000020C00000202DE9F0410646FDF79B
:1052D000DFFCC24900250D80C1490D60C1490D6048
:1052E000C1490D81FDF7D8FCFDF7D2FCBF490C6820
:1052F00013E0FDF7CDFC44F8785F07462563A56110
:10530000A582E5826562A562FAF77CFF20627020C3
:10531000783C0553D4F8B8403846FDF7BDFC002C66
:10532000E7D1FDF7B5FCB2490C6803E0FDF7B0FC2E
:10533000A585A469FDF7B0FC002CF7D101F017F9A1
:105340003580BDE8F081F8B504466A4600210220A8
:1053500001F03CF9BDF8000008B12080F8BDFDF770
:1053600097FCA44E00253560FDF796FCA249A348A2
:105370000A6803689A4202D9B2FBF3F010B90A2115
:10538000B2FBF1F06A46002101F020F9FDF780FC44
:1053900093499B4A0D60316811609A4A012111704E
:1053A000FDF77AFC2580F8BD1CB5944E954D30680C
:1053B000440004E020466A46002101F007F92878FD
:1053C0000128F7D16846FFF77FFF8B4832680168F4
:1053D000914204D9B1FBF2FBBBF1000F03D100688D
:1053E0000A21B0FBF1FB4FF47A78DFF800A242F219
:1053F00010764FF00009FAF705FF0190FDF748FC21
:105400007C49814C4F460A682260C1F80090FDF744
:1054100043FC7B48236802689A4228D97B48824231
:1054200002D23046012113E07948824202D240463E
:105430000A210DE07748824202D26420014607E04B
:105440007548824202D20A20414601E001203146DD
:10545000B2FBF1F15843B0FBF1F07049301A80B261
:1054600008805E490A88824203D2088001E06B48C6
:105470000680FDF714FD0025FDF70AFCDAF8004070
:10548000FDF70AFCB9460EE0FDF702FC54F89C1F3C
:10549000C4E90091FDF700FC60680544FDF7F8FBE6
:1054A000E469FDF7F9FB002CEED1E5B157488542E0
:1054B00002D23746012013E05548854202D24746C2
:1054C0000A200DE05348854202D26427384607E09F
:1054D0005148854202D20A27404601E00127304662
:1054E000B5FBF0F501E000270125FDF7D1FBDAF867
:1054F00000401BE0D4F8A0007843B0FBF5F080B288
:10550000B04200D93046A4F88C00B4F88E10814225
:1055100001D2A4F88E0004F1AC026B46111D2046A6
:1055200000F0E2FDFDF7B4FBD4F8B840FDF7B4FBA2
:10553000002CDFD13A480178012904D180F800908D
:105540006846FFF7C1FEFAF75DFE0199401A24494B
:105550000A68824200D208606A460021584601F07B
:1055600035F848E730B5234A89B000211160264A52
:105570002C4C1160224A1160224A1170284A117085
:10558000226842B1284A294D13682D68AB4205D2E2
:1055900046F62C6108E046F62B6105E0244B1D78A9
:1055A0003F2D04D346F62A61018009B030BD0325A2
:1055B00005910691CDE907501E48126824680068DD
:1055C000CDE902020194049118780023AFF227225A
:1055D000009019A11D4800F0F4F8E6E7C60000208D
:1055E000D8000020EC000020A4250020E0000020CE
:1055F000AC000020C8000020048B0008F08A0008DE
:10560000CC000020D4000020D0000020801A06002A
:1056100000093D00005A62020084D717C400002030
:10562000C2000020F48A0008FC8A0008008B0008F1
:10563000EC8A0008F88A000875432F4F532D49491A
:10564000492053746174205461736B00B0280020AA
:105650002DE9F0410446FC480D461646007810B18D
:1056600047F2491003E03F2D04D346F27320108027
:10567000BDE8F0816CB10027FDF70AFB804694F885
:105680003600082837D2DFE800F00C271D1D272739
:105690001D1DFDF7FDFAED490C68FDF7FDFA012728
:1056A000EAE72046FDF741FF84F837502846FFF728
:1056B00006F9012F204602D0FDF7EFFF13E0FDF7BA
:1056C000D2FF10E094F8340008280CD2DFE800F094
:1056D0000B0404070707070484F8375003E0294642
:1056E0002046FEF75DF84046FDF7D6FAFDF777FD58
:1056F00000203080BCE74046FDF7CEFA46F62D602C
:10570000F7E7D34B0022C0F8B420196829B1C0F8DC
:10571000B810C1F8B40018607047C0F8B820FAE7B4
:1057200070B50025056085604560C560056145610F
:1057300004468561C7A0C4E907506562A562E562B9
:105740002563E5872564E565A4F86050002104F130
:105750006400FEF761FD44F8745F6560E560A58252
:105760002561743C002004EB8001401CCD6710F0E3
:10577000FF00F8D034344FF000402561256765679D
:10578000656084F85650E567A5672581C4E905057D
:10579000E56125626562A4F85850A4F85A50E565A1
:1057A0002566FAF72FFDC4E9190525706570A57007
:1057B0004020E070C4F880508434A8A0C4E90050B0
:1057C00070BD2DE9FF4F83B004469F48DDE9178582
:1057D000DDE910A70078DDF85490139E10B147F270
:1057E0004A1024E04CB1059850B167B19C4800685C
:1057F00086420BD246F6306019E047F2AD1016E053
:1058000047F24F1013E046F62F6010E01298B042B6
:1058100002D346F631600AE046F27320BAF1400F37
:1058200005D2BAF13F0F06D18E498C4203D02880B1
:1058300007B0BDE8F08F2046FFF772FF4FF0000B76
:10584000A5F800B05FEAC8700AD05FEA887007D593
:10585000384600215A4601E004C0491CB142FBD33E
:105860001298CDE9006807EB8005DDE905012B46BC
:105870003A46FDF72CFB0599A1620699E16204996D
:10588000216284F837A0C4F85490A5602060B9F173
:10589000000F33D04846A06516986762A663606023
:1058A000A4F83C800020594604EB8002401CD167DC
:1058B00010F0FF00F8D004F164001499FEF7ACFC7E
:1058C0002046FDF7F2FAFDF7E3F9054694F83700B4
:1058D000FEF7F5FF2046FDF7E0FE2046FFF711FF3B
:1058E00061490888401C08806048007801282846E3
:1058F00007D007B0BDE8F04FFDF7CEB95C480068AF
:10590000C9E7FDF7C9F907B0BDE8F04FFDF767BC7F
:10591000D0E92D21002342B179B1C2F8B810B430DA
:10592000C1F8B420436003607047494A116009B16F
:10593000C1F8B430C0F8B8307047C2F8B830C0F819
:10594000B430704770B504463F480D46007810B13A
:1059500047F24E1004E04348844203D147F24C1012
:10596000088070BD2CB9FDF793F938490C68FDF734
:1059700093F9FDF78DF9064694F8360008283AD2D7
:10598000DFE800F004080C0C1C080C0C2046FDF7A6
:10599000CCFD13E0204600F089FC0FE0204600F02B
:1059A00085FC94F83400072808D2DFE800F00704EB
:1059B0000704040404002046FDF732FE04F16400ED
:1059C000FEF712FC2046FDF776FA2046FFF7A0FF0F
:1059D00025490888401E08802046FFF7A1FEFF20C9
:1059E00084F836003046FDF757F900202880BDE8DE
:1059F0007040FDF7F4BB3046FDF74EF946F62D60DA
:105A0000288070BD70B504460F480D46007820B15F
:105A10004FF46C500880002070BD2CB9FDF738F9A8
:105A20000A490C68FDF738F9FDF732F9064604F12A
:105A30006400FEF7D9FB04463046FDF72DF900203F
:105A40002880204670BD00008C000020F00000205F
:105A5000E00000203F5461736B0000002000000054
:105A6000008B0008E4240020E40000208D000020CA
:105A7000B40000202DE9F84F8346FB480A9D1C46E0
:105A8000007816460F4610B146F2AE1009E036B166
:105A900049B1B1F5004F06D045F6256001E046F268
:105AA000D52028801CE04FF000090CB1C4F800900C
:105AB000FDF7EEF8DFF8B48300902B46D8F800002D
:105AC000224664303146FEF7AEFB8246288850B14C
:105AD000380419D546F2B01028800098FDF7DCF89C
