:020000040800F2
:1000000098080120E9320008933D0008953D00085A
:100010009F3D0008A33D0008A73D00080000000028
:10002000000000000000000000000000AB3D0008E0
:10003000AD3D000800000000AF3D0008AD3C0008E9
:1000400003330008033300080333000803330008B8
:1000500003330008033300080333000803330008A8
:100060000333000803330008033300080333000898
:100070000333000803330008033300080333000888
:100080000333000803330008033300080333000878
:100090000333000803330008033300080333000868
:1000A0000333000803330008033300080333000858
:1000B00003330008D5300008D330000803330008AC
:1000C0000333000803330008033300080333000838
:1000D00003330008E7380008193900084B390008D5
:1000E00003330008B72F0008033300080333000868
:1000F0000333000803330008033300080333000808
:1001000003330008033300080333000803330008F7
:1001100003330008033300080333000803330008E7
:1001200003330008033300080333000803330008D7
:1001300003330008033300080333000803330008C7
:1001400003330008033300080333000803330008B7
:1001500003330008033300080333000803330008A7
:100160000333000803330008033300080333000897
:100170000333000803330008033300080333000887
:100180000333000803330008DFF80CD004F0FAFD55
:1001900000480047F33300089808012030BF72B6CA
:1001A000704762B6704780F3088870473249014350
:1001B000324A1160704770B5002100230F22C478C5
:1001C0001CB32E4C246804F4E064C4F5E064C4F36A
:1001D0000721C1F10404E3B20A4144789C40E1B232
:1001E0008478144021430C07210E254C0578615575
:1001F000047804F01F050124AC4005786D11AD00B2
:1002000005F1E025C5F8004109E0047804F01F0578
:100210000124AC401B4D0678761145F8264070BD90
:10022000194A0A400243154B1B1F1A60704739B127
:10023000124A121D12680243104B1B1D1A6006E081
:100240000E4A121D126882430C4B1B1D1A60704728
:10025000042808D14FF0E021096941F004014FF072
:10026000E022116107E04FF0E021096921F004016B
:100270004FF0E022116170470000FA050CED00E03C
:1002800000E400E080E100E080FFFF1F0120104952
:100290008860704701460E4801600068704710B5DD
:1002A00002460B46002100BF04E052F82100084C32
:1002B0002060491C9942F8D30548006810BD0448E5
:1002C000006870470249087170470148007970471B
:1002D00000300240002041490860091D0860091DE6
:1002E0000860091D08603E483C49143108607047A9
:1002F00000213A498279002A3AD00A4612680368F6
:100300009A430B461A600A1D126803689A430B1D34
:100310001A60027911440A6803681A430A602F4A76
:100320000832126803689A432C4B08331A601A1D6E
:10033000126803689A43294B0C331A604279102AD9
:100340000ED11A1F126803681A43244B08331A602F
:100350001A1D126803681A43204B0C331A600DE013
:100360001E49427911440A6803681A430A6005E08D
:10037000027911440A6803689A430A6070470021B1
:10038000016001710C214171002181717047134995
:10039000103109680143114A10321160704701465B
:1003A00000200E4A143212680A400AB1012000E00F
:1003B0000020704709491431086070470146002049
:1003C000064A143212680A400AB1012000E00020F7
:1003D000704702491431086070470000003C01403A
:1003E000FFFF7F00FE4A1070704730B1FC4909687A
:1003F00041F48071FA4A116005E0F949096821F475
:100400008071F74A1160704730B1F549096841F4CD
:100410000071F34A116005E0F149096821F40071A7
:10042000EF4A1160704730B1ED49096841F48061CD
:10043000EB4A116005E0EA49096821F48061E84A65
:1004400011607047E648006840F40060E4490860C5
:100450007047E348006840F48050E1490860704705
:10046000DF481030006800F0004028B1DD48DC496A
:10047000091D0860DC4808607047D94810300068E2
:1004800040F00040D6491031086070470920D44937
:100490000C31096801F48031B1F5803F01D10120B0
:1004A00020E0CF490C31096801F0100109B10620A4
:1004B00018E0CB490C31096801F4807109B10220C0
:1004C00010E0C7490C31096801F0EF0109B10720BC
:1004D00008E0C3490C31096801F0020109B10820A4
:1004E00000E00920704708B509200090FFF7CEFF13
:1004F000009002E0FFF7CAFF00909DF8000001287D
:10050000F8D09DF8000008BD70B504460A460026E4
:10051000092502B909E0012A01D1160205E0022AE3
:1005200001D1160201E04FF44076FFF7DCFF0546EB
:10053000092D2DD1AA481030006820F44070A84938
:1005400010310860084600683043086008460068BB
:1005500020F0F80008600846006844F002010843F3
:100560009F49103108600846006840F480300860F8
:10057000FFF7B9FF05469A481030006820F00200E6
:100580009749103108600846006820F0F8000860BC
:10059000284670BD30B5024600250924FFF7A3FFA9
:1005A000044602B909E0012A01D1150205E0022A38
:1005B00001D1150201E04FF44075092C20D1884883
:1005C0001030006820F440708549103108600846FA
:1005D0000068284308600846006840F0040008608E
:1005E0000846006840F480300860FFF77CFF04464E
:1005F0007B481030006820F0040079491031086011
:10060000204630BD30B5024600250924FFF76BFFB8
:10061000044602B909E0012A01D1150205E0022AC7
:1006200001D1150201E04FF44075092C20D16C482E
:100630001030006820F440706949103108600846A5
:100640000068284308600846006840F0040008601D
:100650000846006840F480300860FFF744FF044615
:100660005F481030006820F004005D4910310860D8
:10067000204630BD30B5024600250924FFF733FF80
:10068000044602B909E0012A01D1150205E0022A57
:1006900001D1150201E04FF44075092C20D15048DA
:1006A0001030006820F440704D4910310860084651
:1006B0000068284308600846006840F4004008606D
:1006C0000846006840F480300860FFF70CFF0446DD
:1006D00043481030006820F4004041491031086060
:1006E000204630BD70B5064614461D460922FFF768
:1006F000FAFE0246092A1ED139481030006820F45B
:1007000040703749103108600846006840F4407076
:1007100008600846006840F00100086034607560B9
:10072000FFF7E1FE02462E481030006820F001007D
:100730002B4910310860104670BD30B502460C469A
:100740000925FFF7D0FE0546092D1DD1244810309C
:10075000006820F4407022491031086008460068A3
:1007600040F4007008600846006840F0010008602E
:100770001460FFF7B8FE054619481030006820F0F5
:100780000100174910310860284630BD30B50246D7
:100790000C460925FFF7A7FE0546092D1DD1104877
:1007A0001030006820F440700D4910310860084690
:1007B000006840F4807008600846006840F001005E
:1007C00008601480FFF78FFE05460548103000686A
:1007D00020F00100024910310860284630BD0000B9
:1007E000003C024023016745AB89EFCD30B502469E
:1007F0000C460925FFF777FE0546092D17D19B48C2
:10080000006820F440709949086008460068086054
:100810000846006840F0010008601470FFF763FEAE
:1008200005469248006820F001009049086028467B
:1008300030BD8E48001D006800F0010028B18C48D2
:100840008A49083908608B48086070478748001D4E
:10085000006840F001008549091D0860704730B507
:1008600002460C460925FFF73EFE0546092D10D12C
:100870003CB17E48801D008890437C49891D0880DA
:1008800007E07A48801D008891B208437749891DA6
:10089000088030BD30B502460C460925FFF723FE1F
:1008A0000546092D10D13CB170480A3000889043AC
:1008B0006E490A31088007E06C480A30008891B21E
:1008C00008436A490A31088030BDFF21674AD21DBA
:1008D000127802F07F0140EA0102644BDB1D1A70BE
:1008E000704730B502460C460925FFF7FCFD05466A
:1008F000092D10D144B15D48801D008891B2084394
:100900005A49891D088006E05848801D0088904398
:100910005649891D088030BD30B502460C46092570
:10092000FFF7E1FD0546092D10D144B14F480A30CB
:10093000008891B208434D490A31088006E04B48CF
:100940000A300088904349490A31088030BD10B50B
:1009500002460924FFF7C7FD0446092C02D143488B
:10096000401D027010BDF0B504460D46FF26092754
:10097000FFF7B9FD0746092F0BD13C48001D007851
:1009800000F00F0645EA0600104320433749091DD1
:100990000870F0BD3549091D097821F01001334A6E
:1009A000121D1170114609780143117070472F49CB
:1009B000091D097821F00C012C4A121D11701146F5
:1009C000097801431170704700B509222748001DBE
:1009D000007840F002002549091D0870FFF783FDEB
:1009E0000246104600BD2148001D0068C0F34710B4
:1009F00070471E48801D008870471C480A300088D8
:100A000070471A48801D0088704718480A300088CF
:100A1000704700201549491D0978AA2901D00120F5
:100A200000E0002070471148001D007800F00C0025
:100A3000704729B10D4A126802430C4B1A6004E05A
:100A40000A4A12688243094B1A6070470146002027
:100A5000064A121F12680A400AB1012000E0002075
:100A600070470249091F086070470000103C0240AF
:100A70003B2A19087F6E5D4C10B50446D14884426C
:100A800008D10121084600F0CEFC0021012000F031
:100A9000CAFC76E0CC48844208D10121022000F053
:100AA000C2FC0021022000F0BEFC6AE0C74884427C
:100AB00008D10121042000F0B6FC0021042000F040
:100AC000B2FC5EE0C248844208D10121082000F057
:100AD000AAFC0021082000F0A6FC52E0BD48844298
:100AE00008D10121102000F09EFC0021102000F010
:100AF0009AFC46E0B848844208D10121202000F049
:100B000092FC0021202000F08EFC3AE0B3488442A1
:100B100008D10121402000F086FC0021402000F097
:100B200082FC2EE0AE48844208D10121802000F0F2
:100B30007AFC0021802000F076FC22E0A948844263
:100B400008D10121801500F06EFC0021A01500F0F5
:100B50006AFC16E0A448844208D10121401500F047
:100B600062FC0021601500F05EFC0AE09F488442B0
:100B700007D10121001500F056FC0021201500F0DE
:100B800052FC10BDF0B50A4600210023002400BF2E
:100B90003DE0012505FA01F3156805EA03049C42CE
:100BA00034D105684F000326BE40B5430560157972
:100BB0004E00B5400668354305601579012D02D019
:100BC0001579022D16D185684F000326BE40B54326
:100BD000856055794E00B540866835438560456827
:100BE00001268E40B5434560456896798E40B6B281
:100BF00035434560C5684F000326BE40B543C56018
:100C0000D5794E00B540C6683543C560491C1029EA
:100C1000BFD3F0BD2DE9F0470C46DDE908670021A0
:100C200000258C4600BF62E04FF0010808FA01F58C
:100C300004EA050CAC4559D1D0F800804FEA410ACE
:100C40004FF0030909FA0AF928EA0908C0F80080F8
:100C5000D0F800804FEA410902FA09F948EA090888
:100C6000C0F80080012A01D0022A29D1D0F80880DA
:100C70004FEA410A4FF0030909FA0AF928EA09087C
:100C8000C0F80880D0F808804FEA410903FA09F952
:100C900048EA0908C0F80880D0F804904FF001082D
:100CA00008FA01F829EA0809C0F80490D0F804808D
:100CB00006FA01F91FFA89F948EA0908C0F8048020
:100CC000D0F80C804FEA410A4FF0030909FA0AF9FB
:100CD00028EA0908C0F80C80D0F80C804FEA4109D6
:100CE00007FA09F948EA0908C0F80C80491C1029DC
:100CF0009AD3BDE8F0874FF6FF71016000210171C2
:100D000041718171C171704708B54FF48032009212
:100D1000009A0A430092009AC261C161009AC261BE
:100D2000C2690092C269009208BD024600201369A0
:100D30000B400BB1012000E000207047014608691C
:100D400080B270470246002053690B400BB101206E
:100D500000E0002070470146486980B27047018377
:100D60007047418370470AB1018300E041837047B7
:100D70004161704742694A4042617047F0B50023C3
:100D800000244D07ED0E02FA05F3CE1000F1200508
:100D900055F826504E07F70E0F26BE40B543CF102C
:100DA00000F1200646F82750CE1000F1200555F836
:100DB000265045EA0304CE1000F1200545F82640F0
:100DC000F0BD0000000002400004024000080240A4
:100DD000000C0240001002400014024000180240C3
:100DE000001C024000200240002402400028024073
:100DF0000E49086070470D49486070470B4988608C
:100E000070474AF6AA200949086070474CF6CC4062
:100E100006490860704701460020044AD2680A402B
:100E20000AB1012000E000207047000000300040BF
:100E300010B50121080700F029FB00214FF0805078
:100E400000F024FB10BD52490862704701460020A3
:100E5000504A106820F0E0000843106070474C4989
:100E6000086170474A49A031086070474849A43179
:100E70000860704701460020464A106820F4404050
:100E8000084310607047424908647047404948640D
:100E9000704730B13F49096841F440213D4A116033
:100EA00005E03C49096821F440213A4A1160704745
:100EB00018B10121364AD16202E00021344AD162E0
:100EC000704718B10121324A916202E00021304A94
:100ED000916270472E494862704710B50246002063
:100EE0002C4B186840F6034398431043294B186075
:100EF000294B1B6843F00403274C2360012901D1CF
:100F000030BF00E020BF244B1B6823F00403224CB9
:100F1000236010BD10B5024600201E4B186840F635
:100F20000343984310431B4B18601B4B1B6843F053
:100F30000403194C2360012901D130BF00E020BF18
:100F4000154B1B6823F00403134C236010BD11489C
:100F5000006840F002000F4908600F48006840F048
:100F600004000D49086000BF00BF30BF7047014654
:100F70000020084A52680A400AB1012000E000201F
:100F800070470449096841EA8001024A11607047CC
:100F900000000E420070004010ED00E0F9480068CB
:100FA00040F00100F74908600020F6490831086068
:100FB000F4480068F4490840F2490860F348091D04
:100FC0000860F348EF4984310860F0481038091D83
:100FD0000860EC48006820F48020EA49086000209E
:100FE000E8490C310860E7498C31086070470021FE
:100FF000E44A921C117011460870704710B5014602
:101000000022002300204A11012A02D1DD4C23686E
:1010100008E0022A03D1DB4C7034236802E0D94C8B
:101020007434236801F01F02012494401C400CB169
:10103000012000E0002010BD38B500200090002401
:10104000002500BF3120FFF7D9FF05460098401C5E
:1010500000900098B0F5A04F01D0002DF2D03120C3
:10106000FFF7CCFF08B1012400E00024204638BD82
:1010700001460020C34A106820F0F80040EAC10091
:1010800010607047C349086070470021BD4A703244
:1010900011701170012802D004280AD104E0012146
:1010A000B84A7032117005E00521B64A70321170ED
:1010B00000E000BF00BF7047B7490860704770B5D7
:1010C000049C41EA82150126C6EB530645EA064513
:1010D000054345EA0465AB4E361D356070BDAD492C
:1010E00008667047820142EA0172A64B84331A6097
:1010F0007047A8498866704710B5830143EA0163C9
:1011000043EA02739F4C8834236010BDA1490867ED
:101110007047A049C864704702460020994B0833C5
:10112000186820F0EC6042EA01031843954B08333D
:101130001860704702460020924B0833186820F070
:10114000784042EA010318438E4B08331860704719
:10115000014600208B4A0832106820F00300084343
:101160001060704787480830006800F00C00704736
:1011700001460020834A0832106820F0F00008433E
:1011800010607047014600207E4A0832106820F443
:10119000E05008431060704701460020794A083249
:1011A000106820F4604040EAC10010607047F0B55C
:1011B000002100220024022500260223714F083757
:1011C0003F6807F00C0121B1042905D0082937D167
:1011D00005E0724F076036E0714F076033E0694FFA
:1011E0003F1D3F68C7F38056664F3F1D3F6807F0BD
:1011F0003F036EB16A4FB7FBF3F7DFF888C10CF11C
:10120000040CDCF800C0CCF3881C07FB0CF40CE0E9
:10121000624FB7FBF3F7DFF86CC10CF1040CDCF89C
:1012200000C0CCF3881C07FB0CF4564F3F1D3F68F1
:10123000C7F301477F1C7D00B4FBF5F7076002E0B0
:10124000564F076000BF00BF4E4F08373F6807F09A
:10125000F0010909534F7A5C0768D7404760494F4E
:1012600008373F6807F4E051890A4E4F7A5C4768B7
:10127000D7408760434F08373F6807F46041490B08
:10128000484F7A5C4768D740C760F0BD002100F442
:101290004072B2F5407F0AD13A4A0832116821F40F
:1012A000F811414A02401143364A08321160354A6A
:1012B00070321268C0F30B031A43324B70331A605A
:1012C00070473549443908607047334940390860F0
:1012D000704736490860704701460020294A8C3221
:1012E000106820F01F004A1E1043264A8C321060FE
:1012F000704701460020234A8C32106820F4F850D1
:101300004A1E40EA02201F4A8C3210607047014694
:1013100000201C4A8C32106820F4401008431060F2
:10132000704701460020174A8C32106820F44000B4
:1013300008431060704701460020124A8C32106842
:1013400020F4403008431060704719490860704726
:1013500039B10C4A3032126802430A4B30331A60FA
:1013600006E0084A303212688243064B30331A6076
:101370007047F9B1034A343212680243014B3433E7
:101380001A601CE000380240FFFFF6EA103000242B
:101390000030002000004742800E47420024F40045
:1013A00000127A0000000020FFFCFF0F5C014742A2
:1013B000E01147428F4A126882438E4B1A60704791
:1013C00039B18C4A121D126802438A4B1B1D1A60E8
:1013D00006E0884A121D12688243864B1B1D1A6064
:1013E000704739B1834A0C3212680243814B0C3387
:1013F0001A6006E07F4A0C32126882437D4B0C3340
:101400001A60704739B17B4A103212680243794B37
:1014100010331A6006E0774A103212688243754B27
:1014200010331A60704739B1724A243A1268024385
:10143000704B243B1A6006E06E4A243A12688243DD
:101440006C4B243B1A60704739B16A4A203A1268E3
:101450000243684B203B1A6006E0664A203A126855
:101460008243644B203B1A60704739B1614A1C3A91
:10147000126802435F4B1C3B1A6006E05D4A1C3A4F
:10148000126882435B4B1C3B1A60704739B1594A62
:10149000143A12680243574B143B1A6006E0554A4F
:1014A000143A12688243534B143B1A60704739B1A7
:1014B000504A103A126802434E4B103B1A6006E045
:1014C0004C4A103A126882434A4B103B1A607047EC
:1014D00039B1484A1C3212680243464B1C331A6029
:1014E00006E0444A1C3212688243424B1C331A60A5
:1014F000704739B13F4A2032126802433D4B2033D6
:101500001A6006E03B4A203212688243394B20338E
:101510001A60704739B1374A243212680243354B9A
:1015200024331A6006E0334A243212688243314B76
:1015300024331A60704739B12E4A2C3212680243A4
:101540002C4B2C331A6006E02A4A2C321268824354
:10155000284B2C331A60704739B1264A3032126852
:101560000243244B30331A6006E0224A30321268BC
:101570008243204B30331A607047012808D11D493F
:101580003C31096841F008011A4A3C32116007E019
:1015900018493C31096821F00801164A3C321160B3
:1015A000704739B1134A273A12780243114B273B4F
:1015B0001A7006E00F4A273A127882430D4B273BF8
:1015C0001A7070470B484030006840F0807009493D
:1015D00040310860704701460020064A283A1268E8
:1015E0000A400AB1012000E0002070470149263975
:1015F000087070473438024008B50022009200207D
:101600000021CA22F94B1A6053221A60F74A183A8D
:10161000126822F0A002F54B183B1A6000BFF34A93
:10162000183A126802F02001009A521C0092009AA7
:10163000B2F5003F01D00029F1D0EC4A183A126807
:1016400002F020020AB1012000E00020FF22E74B57
:101650001A6008BD08B50022009200200021E34A6C
:10166000183A126802F04002E2B9421EDF4B183B02
:101670001A6000BFDD4A183A126802F04001009A71
:10168000521C0092009AB2F5803F01D00029F1D09F
:10169000D64A183A126802F040020AB1012002E06C
:1016A000002000E0012008BD38B500200090002493
:1016B0000025CA20CD49086053200860FFF7CAFF03
:1016C00000B952E00020C9492439086042F20110F3
:1016D000091D0860081D006800F00700091D08606A
:1016E00000BFC2481838006800F004040098401C8D
:1016F00000900098B0F5803F01D0002CF1D0BB489D
:101700001838006800F0040008B900252DE0B7483B
:101710001C3800680020B5491C3908604FF6FF707E
:10172000B24910390860B248091F08600020AF496B
:101730000C390860091D0860091D0860AB490831B3
:101740000860AA4918310860A84920310860091DBD
:101750000860A64918390860A4491C310860FFF7E1
:101760004BFF08B9002500E00125FF209F490860D4
:10177000284638BD9D481838006820F080009B49F5
:1017800018390860704730B504460025CA209749CB
:10179000086053200860FFF75DFF00B91DE0934823
:1017A0001C38006820F0400090491C390860084649
:1017B0000068216808438D491C3908608B49143939
:1017C000A068086008460068A18840EA014087498F
:1017D00014390860FFF7CEFF0125FF208349086018
:1017E000284630BD002101607F214160FF218160DA
:1017F000704718B1FF217D4A116004E0CA217B4A7D
:10180000116053211160704730B504460025CA208D
:101810007649086053200860FFF71CFF00B914E008
:1018200044B172481C38006840F010006F491C3900
:10183000086007E06D481C38006820F010006B4914
:101840001C390860FFF796FF0125FF2067490860F3
:10185000284630BDCA21654A11605321116040B14C
:1018600062491C39096841F02001604A1C3A116044
:1018700007E05E491C39096801F0DF015B4A1C3A48
:101880001160FF21594A116070470146002204E0AF
:10189000501CC2B2A1F10A00C1B20A29F8DA10073D
:1018A00041EA10607047014600BF080900EB800064
:1018B000420001F00F001044C0B270472DE9F04122
:1018C00005460C460026002755B948481C380068D4
:1018D00000F0400000B102E00020E07000BF0EE028
:1018E00042481C38006800F0400020B12078FFF723
:1018F000DAFF064602E00020E07000BF00BF55B1ED
:1019000020780004617840EA0120A1780843E1785A
:1019100040EA014611E02078FFF7B7FF4FEA0048A0
:101920006078FFF7B2FF48EA0028A078FFF7ADFF24
:1019300048EA0008E07848EA0046CA202B490860D7
:1019400053200860FFF786FE08B9002714E02948F5
:101950003040264924390860FFF70CFF23481C3823
:10196000006800F0200030B9FFF746FE08B90027F4
:1019700002E0012700E00127FF201C4908603846EB
:10198000BDE8F0810021C170017041708170704725
:1019900070B506460C4600251448243800681549E1
:1019A00000EA0105C5F305402070C5F3062060700C
:1019B00005F07F00A07005F48000000CE0705EB9B7
:1019C0002078FFF770FF20706078FFF76CFF607081
:1019D000A078FFF768FFA07070BD00200349091DC3
:1019E000086802492039096870470000242800402F
:1019F000FF007F007F7F7F002DE9F04105460C4608
:101A0000002600274DB9607800F01000102804D19E
:101A1000607820F010000A30607005B908E0607846
:101A2000FFF741FF0646A078FFF73DFF064600BFDF
:101A300055B1E0780004617840EA0120A1780843BC
:101A4000217840EA413611E0E078FFF71EFF4FEAC7
:101A500000486078FFF719FF48EA0028A078FFF7F0
:101A600014FF48EA0008207848EA4036CA20FE49B8
:101A7000086053200860FFF7EDFD08B9002714E067
:101A8000FA483040F84920390860FFF773FEF648FD
:101A90001C38006800F0200030B9FFF7ADFD08B930
:101AA000002702E0012700E00127FF20EE4908603F
:101AB0003846BDE8F081012101708170417000213C
:101AC000C170704770B506460C460025E6482038C0
:101AD0000068E64900EA0105280CE070C5F304201F
:101AE000607005F03F00A070C5F3423020705EB911
:101AF000E078FFF7D8FEE0706078FFF7D4FE607002
:101B0000A078FFF7D0FEA07070BD2DE9F04105462A
:101B10000E46144600276DB9D3481C38006800F003
:101B2000400000B102E00020E07000BFA06800B9F2
:101B30001AE019E0CC481C38006800F0400020B1E1
:101B40002078FFF7B0FE074602E00020E07000BFFB
:101B5000A06820B9207BFFF7A6FE074604E0207BA3
:101B6000FFF7A1FE074600BF95B120780004617819
:101B700040EA0120A1780843E17840EA0140217B56
:101B800040EA0160A1680843616840EA01071BE080
:101B90002078FFF77AFE4FEA00486078FFF775FE7D
:101BA00048EA0028A078FFF770FE48EA0008E078CD
:101BB00048EA0048207BFFF768FE48EA0060A16819
:101BC0000843616840EA0107CA20A749086053201A
:101BD0000860B6F5807F03D1A3480838076002E0AB
:101BE000A148001F0760FF209F490860BDE8F08101
:101BF0000021C17001704170817081600121017309
:101C00000021416070472DE9F04106460F46144619
:101C10000025B7F5807F03D193480838056802E0B6
:101C20009148001F0568C5F305402070C5F30620E4
:101C3000607005F07F00A07005F48000000CE0707B
:101C4000C5F30560207305F08040A06005F080308A
:101C500060607EB92078FFF726FE20706078FFF77D
:101C600022FE6070A078FFF71EFEA070207BFFF7B9
:101C70001AFE2073BDE8F08138B5024600240094B6
:101C800000230020CA24784D2C6053242C6041B1DD
:101C9000754C1C3C24681443734D1C3D2C60012082
:101CA0001EE0714C1C3C246894436F4D1C3D2C601D
:101CB00000BF6D4C183C246804EA1223009C641C8D
:101CC0000094009CB4F5803F01D0002BF1D0664C0D
:101CD000183C246804EA12240CB9002000E001201A
:101CE000FF24614D2C6038BD30B50023CA245E4D01
:101CF0002C6053242C6041EA0203B0F5807F03D1AD
:101D0000594C2034236002E0574C24342360FF24D4
:101D1000554D2C6030BD01460020B1F5807F05D1C6
:101D2000514A20321268C2F30E0004E04E4A2432B7
:101D30001268C2F30E007047CA214B4A116053214A
:101D4000116049491C39096821F00701464A1C3ACB
:101D500011601146096801431160FF21424A116078
:101D60007047CA21404A1160532111603E49103921
:101D70000860FF21116070473B481038006880B24E
:101D8000704718B501460023009300220020CA23A3
:101D9000354C23605323236049B1334B1C3B1B68F4
:101DA00043F48063304C1C3C236001201FE02E4B29
:101DB0001C3B1B6823F480632B4C1C3C236000BF3E
:101DC000294B183B1B6803F00402009B5B1C00932B
:101DD000009BB3F5803F01D0002AF1D0224B183B85
:101DE0001B6803F004030BB9002000E00120FF236F
:101DF0001D4C236018BDCA221B4B1A6053221A6067
:101E0000194A1C3A126822F48022174B1C3B1A60B4
:101E10001A46126840EA01031A43134B1C3B1A602E
:101E2000FF22114B1A6070470F481C38006800F4FD
:101E300080207047CA220C4B1A6053221A600A4A4B
:101E40001C3A126822F4E002074B1C3B1A601A4647
:101E5000126840EA01031A43034B1C3B1A60FF223D
:101E6000014B1A6070470000242800403FFFFF002C
:101E700070B504460D460026CA20F6490860532076
:101E80000860FFF7E7FB00B907E044EA0500F14905
:101E90000C390860FFF76EFC0126FF20ED49086051
:101EA000304670BD30B504460025CA20E9490860B7
:101EB00053200860FFF7CEFB00B914E044B1E548B9
:101EC0001C38006840F08000E2491C39086007E0D7
:101ED000E0481C38006820F08000DE491C390860AA
:101EE000FFF748FC0125FF20DA490860284630BD8D
:101EF000CA21D84A11605321116040B1D5491C391B
:101F0000096841F40001D34A1C3A116007E0D14945
:101F10001C39096821F40001CE4A1C3A1160FF21E6
:101F2000CC4A11607047CA21CA4A1160532111601E
:101F3000C8491C39096821F40021C64A1C3A1160BD
:101F40001146096801431160FF21C24A11607047C0
:101F500070B5034600200024CA25BE4E35605325C7
:101F60003560BC4D183D2D6805F4803555B100E055
:101F7000641CB84D183D2D6805F4803515B1B4F5D5
:101F8000003FF5D1B34D183D2D6805F480353DB9BE
:101F900043EA01051543AF4E18363560012000E0D5
:101FA0000020FF25AB4E356070BD10B50A460021FC
:101FB000A84B1C3B1B6840F6080423EA04011AB135
:101FC00040F40063194300E00143CA23A14C23609D
:101FD000532323609F4B1C3B1960FF23236010BDDC
:101FE0002DE9F04180460C46154600260027994809
:101FF0000C300068984900EA0106964810300068E5
:10200000964900EA0107C6F305402070C6F3062092
:10201000607006F07F00A07006F48000000CE07095
:102020000020E870C7F30420687007F03F00A87034
:10203000C7F342302870B8F1000F17D12078FFF7AE
:1020400032FC20706078FFF72EFC6070A078FFF7FC
:102050002AFCA0706878FFF726FC6870A878FFF764
:1020600022FCA8702878FFF71EFC2870BDE8F081DC
:10207000784814300068704741B9764A1C321268BB
:1020800022EA4002734B1C331A6007E0714A1C328B
:10209000126842EA40026F4B1C331A60704739B134
:1020A0006C4A1C32126802436A4B1C331A6006E009
:1020B000684A1C3212688243664B1C331A607047B0
:1020C00064491C31096821F4C051624A1C32116014
:1020D000114609680143116070475E491C31096867
:1020E00021F4E0615B4A1C3211601146096801432A
:1020F0001160704757491C31096821F4C041554AA5
:102100001C3211601146096801431160704740B1EB
:1021100050491C31096841F080014E4A1C3211605F
:1021200007E04C491C31096821F08001494A1C3202
:102130001160704740B147491C31096821F40041E2
:10214000444A1C32116007E042491C31096841F4DD
:102150000041404A1C321160704708B500220092CD
:102160003C4A2C320092009A02EB80020092009AC4
:10217000116008BD08B501460020009035482C309C
:102180000090009800EB810000900098006808BD66
:1021900030491C31096821F480312E4A1C3211600B
:1021A000114609680143116070472A491C310968CA
:1021B00021F40031274A1C3211601146096801439D
:1021C0001160704723491C31096821F48021214A9C
:1021D0001C32116011460968014311607047F0B567
:1021E00004460D4600270026CA201A4908605320DD
:1021F000086018481838006800F0080050B100E086
:10220000761C14481838006800F0080010B1B6F5C4
:10221000805FF5D10F481838006800F0080098B9C1
:102220000C481C38006800F0100058B945EA04005A
:10223000084908310860FFF7DFF908B9002704E012
:10224000012702E0002700E00027FF200149086085
:102250003846F0BD242800407F7F7F003FFFFF000D
:10226000CA223D4B1A6053221A6091B13A4A1C3A75
:10227000126820F004031A43374B1C3B1A60364A9D
:102280001C32126800F004031A43334B1C331A60EB
:1022900011E0314A1C3A126820F004039A432E4B95
:1022A0001C3B1A602C4A1C32126800F004039A434B
:1022B000294B1C331A60FF22274B1A60704710B558
:1022C000014600200022244B183B1B68234C03EAE4
:1022D000040202EA01030BB1012000E0002010BD5E
:1022E00081B241F080011C4A183A126802F0800263
:1022F00062EA0101184A183A1160704730B5014688
:10230000002000220023144C1C34246804F0040232
:10231000114C1C3C24680C4002EAD13544EA050308
:102320000D4C183C246804EA11121BB194B20CB194
:10233000012000E0002030BD002101098AB242F0F6
:102340008002054B183B1B6803F0800363EA02021E
:10235000014B183B1A607047242800407F3F010062
:1023600010B50446FA48844208D101211020FFF735
:102370009EF800211020FFF79AF857E0F5488442B4
:1023800009D101214804FFF781F800214FF4003002
:10239000FFF77CF84AE0F048844209D10121880423
:1023A000FFF774F800214FF48020FFF76FF83DE04D
:1023B000EA48844209D10121C804FFF767F80021E7
:1023C0004FF40020FFF762F830E0E548844209D17D
:1023D00001210805FFF75AF800214FF48010FFF79C
:1023E00055F823E0DF48844208D101212020FFF77F
:1023F0005EF800212020FFF75AF817E0DA488442FF
:1024000009D101218807FFF741F800214FF08040F2
:10241000FFF73CF80AE0D548844207D10121400586
:10242000FFF734F800216005FFF730F810BD2DE903
:10243000FF4705460E460024A14600BFA046B089CE
:1024400000B100BF2C8A24F44054F08804432C824D
:10245000AC8941F20C608443B088318908437189AA
:1024600008430443AC81AC8A24F44074B08904432B
:10247000AC826846FEF79BFEB548854202D0B9485B
:10248000854202D1DDF80C9001E0DDF80890A889C2
:1024900000F4004040B109EBC90000EB09103168BD
:1024A0004900B0FBF1F707E009EBC90000EB0910A8
:1024B00031688900B0FBF1F76420B7FBF0F004014C
:1024C0002009642101FB1078A88900F4004040B184
:1024D000322000EBC800B0FBF1F000F0070004432D
:1024E00008E0322000EB08106421B0FBF1F000F0AE
:1024F0000F0004432C81BDE8FF874FF416510160A3
:1025000000218180C18001810C21418100218181D4
:10251000704710B502460020108A20F470600B88C6
:102520004C8823438C882343CC8823431843108250
:1025300010BD0021018041808180C180704721B1A0
:10254000828942F40052828104E082894DF6FF7351
:102550001A4082817047028B02F47F420283028B11
:102560000A430283704721B1828942F4004282818A
:1025700003E08289C2F30E028281704721B1828A10
:1025800042F40062828204E0828A4FF2FF731A40B2
:1025900082827047C1F308028280704701468888B2
:1025A000C0F308007047028A4FF6F0731A400282A7
:1025B000028A0A430282704721B1828942F00202F4
:1025C000828104E082894FF6FD731A408281704750
:1025D00082894FF2FF731A40828182890A43828185
:1025E0007047028A4FF6DF731A400282028A0A435A
:1025F0000282704721B1028A42F48042028204E0E2
:10260000028A4BF6FF731A4002827047818941F0BB
:1026100001018181704721B1828A42F008028282E1
:1026200004E0828A4FF6F7731A4082827047028B69
:10263000D2B20283028B42EA01220283704721B1A7
:10264000828A42F02002828204E0828A4FF6DF739F
:102650001A408282704721B1828A42F0100282823F
:1026600004E0828A4FF6EF731A4082827047828AB2
:102670004FF6FB731A408282828A0A438282704735
:1026800021B1828A42F00202828204E0828A4FF6FD
:10269000FD731A40828270471AB1838A0B4383828A
:1026A00002E0838A8B4383827047F0B5034600249F
:1026B00000260025002040F66A17B94200D100BF6D
:1026C0001846C1F3421401F01F06012707FA06F568
:1026D000012C01D10C3004E0022C01D1103000E0BB
:1026E00014301AB107682F43076002E00768AF4350
:1026F0000760F0BD02460020B1F5007F00D100BFA9
:1027000013880B400BB1012000E00020704701F45A
:102710000072B2F5007F00D100BFCA43028070474B
:1027200070B50246002400230025002040F66A16FA
:10273000B14200D100BFC1F3421501F01F030126D1
:1027400006FA03F3012D13D19689334017E00000F8
:10275000001001400044004000480040004C004090
:10276000005000400014014000780040007C004010
:10277000022D02D1168A334001E0968A33400C12B2
:10278000012606FA04F41688344013B10CB1012076
:1027900000E0002070BD10B50022002340F66A144E
:1027A000A14200D100BF0A1201249440A3B2DC432D
:1027B000048010BD10B50121C802FEF767FE00219C
:1027C0004FF40060FEF762FE10BD00211B4A126844
:1027D00022F4C0710143194A1160704708B5002105
:1027E00000911649096821F07F01009100F07F01F6
:1027F000009A11430091114A0099116008BD01200F
:102800000F490860704700F07F010C4A121F1160E9
:10281000704740F08001094A121F11607047002084
:102820000649091D096809B1012000E00020704730
:1028300000200249091D086070470000042C004078
:10284000A480054238B50124FEF7A8FB0120FEF75D
:10285000CEFB02E0FEF7F0FB0446012CFAD100208B
:10286000FEF73DFC072002234FF4A87208210090D8
:10287000C804FEF724FC0120FEF731FC00BF3648F7
:10288000006800F000700028F9D033480830006874
:1028900020F003003049083108600846006840F025
:1028A0000200086000BF2C480830006800F00C00EF
:1028B0000828F8D10020FEF75BFC4FF4A050FEF78B
:1028C00061FC4FF48050FEF767FC38BD10B5012164
:1028D000C802FEF786FDFFF76DFF4FF4C070FFF7EB
:1028E00074FF7F20FFF77AFF4120FFF792FF10BDB2
:1028F00010B545F25550FEF77BFA0520FEF77BFA3E
:102900006420FEF77BFAFEF781FA10BD7FB505461D
:10291000002003903221284602F0E5F9002407E068
:102920000E48204490F8100A0DF80400601CC4B250
:102930000C2CF5DB00240CE01DF8041003A800F0BB
:10294000E5FC03A9284602F0D9F900200390601C99
:10295000C4B20C2CF0DB7FBD003802400070FF1FBA
:102960001CB501211F20FEF7F3FC01208DF80400A7
:1029700000208DF8060001208DF8070003208DF857
:1029800005000620009069467248FEF7FBF801201A
:102990008DF8040000208DF8060001208DF8070056
:1029A00003208DF805004FF48060009069466A4866
:1029B000FEF7E8F801208DF8040000208DF80600ED
:1029C00001208DF8070003208DF8050030200090CD
:1029D00069466048FEF7D6F801208DF80400002013
:1029E0008DF8060001208DF8070003208DF8050002
:1029F0004FF48070009069465848FEF7C3F81CBD3C
:102A000010B50446012C04D102215248FEF7A7F963
:102A100003E002214F48FEF7A4F910BD10B50446AB
:102A2000012C04D104214B48FEF799F903E004215D
:102A30004848FEF796F910BD10B50446012C04D1A4
:102A400081024548FEF78BF904E04FF4806142486B
:102A5000FEF787F910BD10B50446092C77D2DFE8E0
:102A600004F076670513212F3D4B59004FF4807118
:102A70003A48FEF774F910213648FEF772F9202122
:102A80003448FEF76EF963E04FF480713348FEF787
:102A900068F910212F48FEF762F920212D48FEF732
:102AA00060F955E04FF480712C48FEF758F9102179
:102AB0002848FEF754F920212648FEF752F947E04E
:102AC0004FF480712548FEF74CF910212148FEF79C
:102AD00048F920211F48FEF742F939E04FF4807190
:102AE0001E48FEF73CF910211A48FEF73AF920215A
:102AF0001848FEF734F92BE04FF480711748FEF7C1
:102B000030F910211348FEF72AF920211148FEF769
:102B100026F91DE04FF480711048FEF720F91021CE
:102B20000C48FEF71CF920210A48FEF718F90FE0BF
:102B30004FF480710948FEF714F910210548FEF79B
:102B400010F920210348FEF70CF901E0FFE700BF70
:102B500000BF10BD00080240000402400010024007
:102B60002DE9FC5F04460D4616461F46DDE90EAB17
:102B7000DDE90C898DF803408DF801508DF8026075
:102B80008DF800A069460020FEF736FF8DF807B0EB
:102B90008DF804708DF805808DF8069001A900204D
:102BA000FEF78CFE43F2F1210020FFF7D6FABDE8D4
:102BB000FC9F10B588B0044601210807FEF711FC00
:102BC0000120FEF740F9012C11D10120FEF75DFA3A
:102BD00000BF4120FEF712FA0028FAD04FF48070AF
:102BE000FEF754FB0120FEF76CFBFEF705FD8CB9E8
:102BF0000120FEF761FA00BF6120FEF7FFF900280F
:102C0000FAD04FF40070FEF741FB0120FEF759FBAC
:102C1000FEF7F2FC7F200690FF2007900020059031
:102C200005A8FEF7B0FD0020FFF7A4FA43F2F1215A
:102C300088420CD0402001211023CDE90031082327
:102C40001022CDE902100D210E20FFF789FF08B0F8
:102C500010BD00B5A5B000202490239022902190B3
:102C600020901F90642106A802F03DF80020FFF795
:102C700081FA43F2F121884210D00020FFF799FF3A
:102C8000402001215023CDE9003114232822CDE931
:102C9000021012211520FFF763FF33E005A9012080
:102CA000FEF776FE04A90120FEF70CFF9DF8131035
:102CB00024A800F02BFB9DF8111023A800F026FBA0
:102CC0009DF8121022A800F021FB9DF8141021A8F5
:102CD00000F01CFB9DF8151020A800F017FB9DF8D4
:102CE00016101FA800F012FB1FA820A921AA22ABD2
:102CF000CDE90032CDE9021023AB24AAB8A106A881
:102D000002F082F806A825B000BD00B5A5B00020ED
:102D1000249023902290219020901F90642106A857
:102D200001F0E1FF0020FFF725FA43F2F12188428C
:102D300010D00020FFF73DFF402001215023CDE9B6
:102D4000003114232822CDE9021012211520FFF7AB
:102D500007FF3BE005A90120FEF71AFE04A90120A8
:102D6000FEF7B0FE05A90120FEF712FE04A901201E
:102D7000FEF7A8FE9DF8131024A800F0C7FA9DF8EE
:102D8000111023A800F0C2FA9DF8121022A800F03A
:102D9000BDFA9DF8141021A800F0B8FA9DF815109E
:102DA00020A800F0B3FA9DF816101FA800F0AEFAA4
:102DB0001FA820A921AA22ABCDE90032CDE902103B
:102DC00023AB24AA8CA106A802F01EF806A825B001
:102DD00000BD70B58AB004460D46164600214FF47A
:102DE0008070FEF749FF4FF40030009000208DF80E
:102DF000040008208DF8050001208DF806006846C3
:102E0000FDF776FA29208DF8080001208DF80B00D7
:102E10008DF8090000208DF80A0002A8FDF7CBF913
:102E20004FF48050FFF788FA4FF40030FDF7D1FAE5
:102E300008A90020FEF7ACFD09A90020FEF742FE1C
:102E40009DF824008DF81C004FF080400690002073
:102E500005909DF823008DF80F009DF82000204478
:102E6000182817DB9DF8200020441838C0B28DF8D0
:102E70000C009DF81C00401CC0B28DF81C009DF891
:102E80001C0007280CDD9DF81C00C01FC0B28DF887
:102E90001C0005E09DF820002044C0B28DF80C0015
:102EA0009DF8210028443C2828DB9DF82100284477
:102EB0003C38C0B28DF80D009DF820002044401C25
:102EC000C0B28DF80C009DF80C0018281CDB9DF892
:102ED00020001838C0B28DF80C009DF81C00401C72
:102EE000C0B28DF81C009DF81C0007280CDD9DF871
:102EF0001C00C01FC0B28DF81C0005E09DF8210029
:102F00002844C0B28DF80D009DF8220030443C28C2
:102F100039DB9DF8220030443C38C0B28DF80E00F9
:102F20009DF821002844401CC0B28DF80D009DF88A
:102F30000D003C282DDB9DF80D003C38C0B28DF80B
:102F40000D009DF820002044401CC0B28DF80C00FC
:102F50009DF80C0018281CDB9DF80C001838C0B236
:102F60008DF80C009DF81C00401CC0B28DF81C00B0
:102F70009DF81C0007280CDD9DF81C00C01FC0B286
:102F80008DF81C0005E09DF822003044C0B28DF899
:102F90000E000398049004AA4FF480710020FEF7FD
:102FA000B4FD01210803FFF75BF901210802FEF7D8
:102FB00063FE0AB070BD10B54FF48050FFF79EF964
:102FC00060B1012200210846FFF703FF4FF4805053
:102FD000FFF7B2F94FF40030FDF7FBF910BD000028
:102FE000323025732D25732D25732D25733A2573C6
:102FF0003A25737C00000000323025732D25732D97
:1030000025732D25733A25733A25730010B5FDF706
:1030100027FAF320FDF725FD10BD70B50546FFF733
:10302000F5FF02212846FDF76FFA092801D1012496
:1030300000E00024FDF721FA204670BD70B505467A
:103040000E4631462846FDF7D1FB092801D101245F
:1030500000E00024204670BD70B505460C4608E02F
:1030600000BF21782846FDF7C1FB0928F9D16D1C66
:10307000641C20780028F3D170BD2DE9F04105468D
:103080000E461746002404E0315D2819FFF7D6FFED
:10309000641CBC42F8DBBDE8F08170B5ADF5805D25
:1030A00005460E464FF48051684601F01CFE002490
:1030B00000BF08E0285DFF2801D1002000E0285D66
:1030C0000DF80400641CB442F4DB68460DF5805D25
:1030D00070BD7047704700000CB500200190009053
:1030E0007648006840F480307449086000BF734837
:1030F000006800F4003000900198401C0190009896
:1031000018B90198B0F5A04FF1D16C48006800F4EF
:10311000003010B10120009001E0002000900098E4
:10312000012846D165484030006840F0805063492E
:10313000403108606248006840F4404060490860DF
:103140005E48083000685D4908310860084600683C
:1031500040F4004008600846006840F4A050086051
:103160005848091F0860081F006840F08070091F58
:10317000086000BF5148006800F000700028F9D0D6
:1031800040F20570504908604C480830006820F053
:1031900003004A49083108600846006840F0020010
:1031A000086000BF45480830006800F00C0008289F
:1031B000F8D10CBD10B54548006840F47000434993
:1031C00008603E48006840F001003C49086000206B
:1031D0003A4908310860394800683D490840374994
:1031E00008603C48091D0860081F006820F4802022
:1031F000091F0860002031490C310860FFF76CFF9F
:103200004FF0006031498039086010BD70B5002072
:103210000022022300240221284D08352D6805F0E4
:103220000C0020B1042806D0082834D107E02A4D2C
:103230002A4E356033E02A4D284E35602FE01F4D71
:103240002D1D2D68C5F380541C4D2D1D2D6805F0D6
:103250003F0154B1224DB5FBF1F5184E361D3668CD
:10326000C6F3881605FB06F209E01B4DB5FBF1F528
:10327000124E361D3668C6F3881605FB06F20F4D52
:103280002D1D2D68C5F301456D1C6B00B2FBF3F5D8
:10329000124E356003E0104D104E356000BF00BF88
:1032A000064D08352D68C5F303150E4E705D0B4DA8
:1032B0002D68C540094E356070BD000000380240E1
:1032C0000070004008544007003C024088ED00E0D8
:1032D000FFFFF6FE103000240024F4001000002050
:1032E00000127A0014000020064880470648004774
:1032F000FEE7FEE7FEE7FEE7FEE7FEE7FEE7FEE7A6
:10330000FEE7FEE7B53100088901000810B5CB17CC
:1033100001EB13730924B4EB231F07DA0A46CB171A
:1033200001EB13731B113733037006E00A46CB170A
:1033300001EB13731B1130330370CB1701EB1373C5
:103340001B11A1EB0313092B09DD0A46CB1701EB77
:1033500013731B11A1EB03133733437008E00A46C4
:10336000CB1701EB13731B11A1EB03133033437025
:1033700010BD70B504460D460CE014F8011B0D4855
:10338000FFF708F900BF40210A48FFF7B3F900280A
:10339000F9D06D1E002DF0D170BD002105E0002296
:1033A00000E0521C8242FCD3491C44F6206399423F
:1033B000F5DB70470048004008B5002000906A46E1
:1033C0000421174800F08DFB9DF80000AA280DD1BC
:1033D0009DF80100552809D19DF80200AA2805D1C1
:1033E0009DF80300552801D101F0C9F901F092FBC5
:1033F00008BDFFF727FA00F074FCFFF7B1FA0120CF
:10340000FFF7FEFA0120FFF709FB064800F0DEF89F
:10341000054800F0DBF801E0FFF7CEFFFCE7000015
:1034200000010E08001001400044004010B50421C6
:103430002648FDF796FC10BD10B510212348FDF776
:103440008EFC10BD1CB501211020FDF781FF01206D
:103450008DF8040000208DF8060014200090012053
:103460008DF8070003208DF8050069461748FDF721
:1034700089FB00208DF804008DF8060008200090DC
:1034800000208DF8070003208DF8050069460F48DD
:10349000FDF778FBFFF7D0FFFFF7C8FF1CBD10B5A5
:1034A00010210A48FDF75DFC10BD10B50421074846
:1034B000FDF755FC10BD10B5002408210348FDF7A9
:1034C00034FC012800D10124204610BD0010024028
:1034D00000210180418070470146087910B940F60B
:1034E000090201E040F2DC5248880B88C01A1044FF
:1034F00090FBF2F302FB130080B2704770B50346F5
:103500000C461D7915B940F6090101E040F2DC5185
:103510005D886D1C95FBF1F601FB16551E88B542C2
:1035200001D1002009E05D8854555D886D1C95FB34
:10353000F1F601FB16555D80012070BD70B50346A4
:103540000C461D7915B940F6090101E040F2DC5145
:103550001D885E88B54201D100200AE01D88555DB6
:1035600025701D886D1C95FBF1F601FB16551D801D
:10357000012070BD70B502460B464FF0FF300021B0
:10358000002500BF12E052F8214000250BE080EA40
:10359000040606F000461EB10B4E86EA400000E02D
:1035A000400064006D1C202DF1D3491C9942EAD3E0
:1035B00070BD70B504460D46FCF768FE29462046EE
:1035C000FCF76DFE70BD0000B71DC10410B588B0DA
:1035D0000446FD4884426AD101211020FDF712FF04
:1035E00001210220FDF7B4FE00214FF48040FDF7D9
:1035F00009FF02208DF80C0000208DF80E00C0207D
:10360000029000208DF80F0003208DF80D0002A914
:10361000EE48FDF7B7FA07220621EC48FDF7AEFBAE
:1036200007221146E948FDF7A9FB4FF4E130049069
:103630000020ADF81400ADF81600ADF81800ADF894
:103640001C000C20ADF81A0004A92046FEF7EFFE7E
:10365000012240F225512046FFF727F8012120469C
:10366000FEF76DFF40212046FFF751F825208DF829
:10367000040002208DF8050000208DF806000120CE
:103680008DF8070001A8FCF796FD40F6090001F04F
:103690006BFDCF490860062001F066FDCD4908604A
:1036A0000846006810B9002000F082FB00BFCA483D
:1036B000844268D101214804FDF793FE01210846A8
:1036C000FDF746FE00212014FDF79CFE02208DF838
:1036D0000C0000208DF80E000C20029000208DF8C8
:1036E0000F0003208DF80D0002A9BC48FDF74AFA2F
:1036F00007220221B948FDF741FB07220321B74801
:10370000FDF73CFB4FF4614004900020ADF814003D
:10371000ADF81600ADF81800ADF81C000C20ADF89F
:103720001A0004A92046FEF782FE012240F225512C
:103730002046FEF7BAFF01212046FEF700FF402198
:103740002046FEF7E4FF26208DF8040002208DF8C5
:10375000050001208DF806008DF8070001A8FCF790
:103760002AFD40F6090001F0FFFC9D490860062093
:1037700001F0FAFC9B4908600846006810B9002077
:1037800000F016FB00BF9848844268D101218804EC
:10379000FDF727FE01210820FDF7DAFD00212014A6
:1037A000FDF730FE02208DF80C0000208DF80E0091
:1037B000A015029000208DF80F0003208DF80D0059
:1037C00002A98A48FDF7DEF9072208218748FDF79C
:1037D000D5FA072209218548FDF7D0FA4FF4E130E8
:1037E00004900020ADF81400ADF81600ADF81800F4
:1037F000ADF81C000C20ADF81A0004A92046FEF715
:1038000016FE012240F225512046FEF74EFF01210F
:103810002046FEF794FE40212046FEF778FF272041
:103820008DF8040002208DF805008DF806000120B7
:103830008DF8070001A8FCF7BEFC40F6090001F076
:1038400093FC6B490860062001F08EFC6949086012
:103850000846006810B9002000F0AAFA00BF08B0BE
:1038600010BD10B5044601212046FEF768FE10BDCC
:1038700010B5044600212046FEF761FE10BD10B5CC
:1038800004465148844207D15248006801F044FC84
:103890004F48006801F040FC4F48844207D151482E
:1038A000006801F039FC4E48006801F035FC4E48D4
:1038B000844207D14F48006801F02EFC4C48006854
:1038C00001F02AFC00212046FEF739FE002240F2DA
:1038D00025512046FEF7E9FE002240F227712046DE
:1038E000FEF7E3FE10BD10B540F225513648FEF755
:1038F00017FF80B13448FEF751FEC4B23448214668
:10390000026834480068FFF7F9FD012803D100F090
:103910001CFA3949086010BD10B540F225512E48F7
:10392000FEF7FEFE80B12C48FEF738FEC4B22C48EC
:10393000214602682B480068FFF7E0FD012803D10B
:1039400000F003FA2D49086010BD10B540F2255172
:103950002148FEF7E5FE80B11F48FEF71FFEC4B206
:103960001F48214602681F480068FFF7C7FD01286D
:1039700003D100F0EAF92149086010BD0146124A5E
:10398000914202D11C4A106804E0134A914201D1CD
:103990001A4A106870472DE9F04107460D46164651
:1039A00000240CE0295D3846FEF7F4FD00BF4021FD
:1039B0003846FEF79FFE0028F9D0601C84B2B4425E
:1039C000F0DBBDE8F081000000100140000402407F
:1039D000300000202400002000440040000002408D
:1039E000340000202800002000480040000C024065
:1039F000380000202C0000203C0000204000002067
:103A00002DE9F8430446884691460025174884422C
:103A100004D1174807681748066806E0164884422C
:103A200003D1164807681648066805E09DF80000AF
:103A300008F80500681C85B2324669463846FFF72B
:103A40007DFD0128F2D0A9F80050BDE8F88300BF41
:103A5000704700BF704700BF044A128802F040025E
:103A6000002AF9D0C2B2014B9A8070470010014081
:103A700024000020300000200044004028000020E6
:103A80003400002010B5FCF7EBFCF320FCF7E9FF55
:103A900000BF4020FFF7C1FA0128FAD100BF48203B
:103AA000FFF7BBFA0128FAD100BF5020FFF7B5FAA3
:103AB0000128FAD100BF5820FFF7AFFA0128FAD148
:103AC00000BF1820FFF7A9FA0128FAD100BF202073
:103AD000FFF7A3FA0128FAD1FCF7CFFC10BD02468C
:103AE00070472DE9F04104460D461646002727464B
:103AF0002A463946304601F0DDF8BDE8F08170B560
:103B000006460C461546FFF781FA224629463046FE
:103B1000FFF7B3FAFCF7B1FC70BD70B504460E4672
:103B200000255548007800F0010048B9224631468A
:103B300051480068FFF7E3FF054625B1284670BDF0
:103B400005252846FBE72846F9E70146086870473F
:103B500001464A48814201D20020704748488142CC
:103B600001D20820F9E74748814201D21020F4E74A
:103B70004548814201D21820EFE74448814201D2F2
:103B80002020EAE74248814201D22820E5E7414867
:103B9000814201D23020E0E73F48814201D2382003
:103BA000DBE73E48814201D24020D6E73C488142D3
:103BB00001D24820D1E73B48814201D25020CCE7D6
:103BC0005820CAE72DE9F04704460E4617464FF045
:103BD00009080025A946B4F1006F02D304F00300E0
:103BE00008B1BDE8F087FCF73BFC0020FCF71BFCAC
:103BF000254604EB87092C48854215D211E028465A
:103C0000FFF7A3FF401C58B12846FFF7A1FF8246EB
:103C10000221FCF779FC8046B8F1090F01D002E0DF
:103C20002D1D4D45EBD300BFB8F1090F0CD108E0B5
:103C300020463168FCF781FD092800D003E0241DEF
:103C4000361D4C45F4D300BF0120FCF7ECFBFCF71C
:103C500014FC00BFC5E730B503460C4615460022EC
:103C600006E01846FFF771FF44F822001B1D521CA6
:103C7000AA42F6D330BD00004C00002000400008EE
:103C80000080000800C000080000010800000208D1
:103C900000000408000006080000080800000A08E8
:103CA00000000C0800000E080000FF1F51480068CB
:103CB000401C50490860084600684FF47A71B0FB18
:103CC000F1F201FB120020B94B480068401C4A4940
:103CD0000860704748480068704747490860704767
:103CE000704770B5454800684FF47A72B0FBF2F146
:103CF000481EB0F1807F01D301201BE0481E4FF029
:103D0000E022506150170F22002807DA13071D0E1A
:103D10003B4B00F00F04241F1D5503E013071C0E3E
:103D2000384B1C5400BF00204FF0E0229061072068
:103D30001061002008B100BFFEE701203249086091
:103D40004FF4A060FCF732FA70BD2A480068704753
:103D500008B5284909680144009100BF00BF254902
:103D60000968009A9142F9D308BD002105E00022BC
:103D700000E0521C052AFCD3491C8142F7D370474E
:103D800010B504464FF47A7104FB01F0FFF7EDFF24
:103D900010BD70471DA001F027F800BFFEE700BF6F
:103DA000FEE700BFFEE700BFFEE7704770477047C1
:103DB0000446002509E0214619A001F015F84FF44A
:103DC0007A70FFF7DDFF681CC5B2642DF3DB00BF1E
:103DD000BFF34F8F0A480C38006800F4E0601549C3
:103DE0000843001D06490C390860BFF34F8F00BF20
:103DF00000BFFEE75000002054000020100000200B
:103E000018ED00E000E400E0580000204861726412
:103E10004661756C745F48616E646C65720D0A0072
:103E20006572726F7220636F6465203D2025782073
:103E30000D0A00000000FA0510B50924FCF710FB7C
:103E400000BF5820FFF7E9F80128FAD1FD49FE48E4
:103E5000FCF773FCFD480168FB48001DFCF76DFC96
:103E6000FB480168F8480830FCF767FCF94801682E
:103E7000F5480C30FCF761FCFCF7FFFA10BD70B59B
:103E800004460D462A462146F348FFF784FD2A469C
:103E90002146F248FFF77FFD3220FFF771FF70BD2A
:103EA0002DE9F04F95B0044688464FF000090020F8
:103EB000029040F2074001F057F9064616B9032078
:103EC000FFF776FFB8F1070F7ED12078FE2818D1D2
:103ED0006078B0B9A079FE2813D1FFF7D3FD48214F
:103EE00003A800F000FFDEA103A800F08DFF03A8E7
:103EF00000F010FF1FFA80FB594603A8FFF7BFFF31
:103F00009AE22078FE282AD16078012827D1A0796A
:103F1000FE2824D1FFF7B6FDFFF7B4FDD7A000F0CF
:103F200063FF0120DA4908601420DA4908600020A4
:103F3000D94908600120D9490880482103A800F028
:103F4000D2FED7A103A800F05FFF03A800F0E2FEB5
:103F50001FFA80FB594603A8FFF791FFD0E72078AE
:103F6000FE281DD1607802281AD1A079FE2817D129
:103F70000020C74908601420C6490860482103A8EA
:103F800000F0B1FED2A103A800F03EFF03A800F0AC
:103F9000C1FE1FFA80FB594603A8FFF770FFE8E354
:103FA0002078FE281BD16078032818D1A079FE283C
:103FB00015D1FFF741FF482103A800F094FECAA1E4
:103FC00003A800F021FF00E021E303A800F0A2FE17
:103FD0001FFA80FB594603A8FFF751FFC9E3207879
:103FE000FE2829D16078042826D1A079FE2823D183
:103FF000A078E1784FF47F4202EA01210143207961
:1040000062794FF47F4303EA0222104341EA004001
:104010008E490860482103A800F065FEB7A103A8F7
:1040200000F0F2FE03A800F075FE1FFA80FB59466F
:1040300003A8FFF724FF9CE32078FE2829D16078AD
:10404000052826D1A079FE2823D1A078E1784FF465
:104050007F4202EA01210143207962794FF47F43D4
:1040600003EA0222104341EA0040794908604821EE
:1040700003A800F038FEA8A103A800F0C5FE03A81D
:1040800000F048FE1FFA80FB594603A8FFF7F7FE31
:104090006FE32078FE2829D16078062826D1A07900
:1040A000FE2823D1A078E1784FF47F4202EA012173
:1040B0000143207962794FF47F4303EA02221043DF
:1040C00041EA004063490860482103A800F00BFE64
:1040D00098A103A800F098FE03A800F01BFE1FFAA9
:1040E00080FB594603A8FFF7CAFE42E32078FE286A
:1040F0002BD16078072828D1A079FE2825D1482126
:1041000003A800F0F0FD92A103A800F07DFE03A833
:1041100000F000FE1FFA80FB594603A8FFF7AFFE30
:1041200040F2DC50FFF714FE00BFBFF34F8F8C4806
:10413000006800F4E0608B490843001D884908606E
:10414000BFF34F8F00BF00BFFEE72078FE2856D197
:104150006078082853D1A079FE2850D1002504E0CA
:104160009DF804007055681C85B27F4801A902685B
:104170007E480068FFF7E2F9012802D1B5F5806FAB
:10418000EEDBADB17A480078012804D1002700BFEA
:10419000AF42FDD307E040490968764A88183246A5
:1041A0002946FFF7ACFC3C48006828443A490860BF
:1041B0004FF0000A002709E06E49781801AA012192
:1041C000FFF78FFC9DF8040082447F1C3248006892
:1041D0008742F1D3482103A800F085FD53462E48BD
:1041E00065A1026803A800F00FFE03A800F092FD8D
:1041F0001FFA80FB594603A8FFF741FEB9E2207879
:10420000FE281CD16078092819D1A079FE2816D182
:1042100000BF5820FEF701FF0128FAD102AA0421AD
:104220000948FFF75EFC482103A800F05CFD9DF8FB
:104230000800AA2804D19DF809005528B0E0FCE048
:10424000BCE00000AA55AA5500010E086C00002031
:104250007000002074000020004400400010014065
:10426000626F6F74206572617365206578666C613A
:104270007368206F7665720D0A00000065726173C5
:104280006520666C61736820646F6E652E0D0A0090
:1042900060000020640000206800002078000020FA
:1042A000626F6F7420656E746572207570646174DE
:1042B00065206D6F64652C706C6561736520736536
:1042C0006E642031207061636B6167650D0A0000C8
:1042D000626F6F74206578697420757064617465AD
:1042E000206D6F64650D0A00626F6F7420736574D2
:1042F00020666C6167206F6B0D0A0000626F6F743F
:1043000020736574206170702061646472657373DA
:10431000206F6B0D0A000000626F6F74207365746C
:1043200020686172642065646974696F6E206F6BC8
:104330000D0A0000626F6F742073657420736F66DE
:10434000742065646974696F6E206F6B0D0A0000DC
:10435000626F6F7420726573746172740D0A00006D
:104360000CED00E00000FA05800000207C00002039
:104370005C00002000000808626F6F742075706494
:10438000617465203D2025642042797465732C207A
:1043900053756D203D20307825780D0A000000000F
:1043A0000CD19DF80A00AA2808D19DF80B005528C9
:1043B00004D1FEA103A800F027FD34E0FCF750F87B
:1043C000F320FCF74EFB00BF2820FEF726FE012855
:1043D000FAD100BF3020FEF720FE0128FAD100BF3D
:1043E0003820FEF71AFE0128FAD1FCF746F8FCF750
:1043F00037F8F320FCF735FB0CE000BFF14A19F861
:104400000210F14A09EB0200FCF7F0F90928F5D196
:1044100009F10109ED488145EFD3FCF72EF8ECA135
:1044200003A800F0F1FC03A800F074FC1FFA80FB65
:10443000594603A8FFF723FD9BE12078FE2818D1F9
:1044400060780A2815D1A079FE2812D100274821CA
:1044500003A800F048FCE4A103A800F0D5FC03A8E1
:1044600000F058FC1FFA80FB594603A8FFF707FD30
:104470007FE12078FE2817D160780B2814D1A0792D
:10448000FE2811D1482103A800F02DFCDBA103A8D0
:1044900000F0BAFC03A800F03DFC1FFA80FB59466F
:1044A00003A8FFF7ECFC64E1D74800680128C3D1FA
:1044B0000025D6480068FFF70FF8B0F5806F3CDBA9
:1044C0000DE0D34801A90268D0480068FFF736F82C
:1044D000012804D19DF804007055681C85B2B5F51B
:1044E000806FEEDBCB490968B64A881832464FF434
:1044F0008061FFF704FBC748006800F58060C5498C
:104500000860C5480088401CC3490880482103A8AA
:1045100000F0E9FBC04800880090BE484246BFA1B9
:10452000036803A800F070FC03A800F0F3FB1FFA77
:1045300080FB594603A8FFF7A2FC00250AE0615D55
:10454000B3480268B1480068FEF7D8FF012801D1DE
:10455000681C85B24545F2DB0025AC480068FEF7D3
:10456000BBFFB0F5806F3DDB0DE0A94801A90268F3
:10457000A6480068FEF7E2FF012804D19DF8040078
:104580007055681C85B2B5F5806FEEDBA1490968EE
:104590008C4A881832464FF48061FFF7B0FA9D4884
:1045A000006800F580609B4908609B480088401CBB
:1045B00099490880482103A800F095FB9648008897
:1045C00000909448424695A1036803A800F01CFCA3
:1045D00003A800F09FFB1FFA80FB594603A8FFF7D2
:1045E0004EFCC6E0482103A800F07DFB8948424606
:1045F00098A1036803A800F007FC03A800F08AFB59
:104600001FFA80FB594603A8FFF739FCB1E07E484A
:1046100000680128E5D100257C480068FEF75CFFB2
:10462000B0F5806F3CDB0DE0794801A9026877485E
:104630000068FEF783FF012804D19DF8040070553F
:10464000681C85B2B5F5806FEEDB724909685D4A7A
:10465000881832464FF48061FFF751FA6D480068C0
:1046600000F580606B4908606B480088401C6A490F
:104670000880482103A800F036FB674800880090B6
:104680006448424665A1036803A800F0BDFB03A887
:1046900000F040FB1FFA80FB594603A8FFF7EFFB31
:1046A00000250AE0615D5A48026858480068FEF734
:1046B00025FF012801D1681C85B24545F2DB0025A4
:1046C00052480068FEF708FFB0F5806F3DDB0DE053
:1046D0004F4801A902684D480068FEF72FFF0128E6
:1046E00004D19DF804007055681C85B2B5F5806F43
:1046F000EEDB48490968334A881832464FF4806136
:10470000FFF7FDF94348006800F580604149086003
:1047100041480088401C40490880482103A800F017
:10472000E2FA3D48008800903A4842463BA10368BF
:1047300003A800F069FB03A800F0ECFA1FFA80FB65
:10474000594603A8FFF79BFB13E0482103A800F09C
:10475000CAFA304842464BA1036803A800F054FB54
:1047600003A800F0D7FA1FFA80FB594603A8FFF709
:1047700086FB304600F0D0FC15B0BDE8F08FF8B5F0
:1047800040F24C4000F0F0FC044614B90120FFF761
:104790000FFB062000F0E8FC1C49086040F6090009
:1047A00000F0E2FC1A490860184881E0626F6F74FB
:1047B00020657261736520666C6167206572726F37
:1047C000720D0A000000080800000208F0FF050052
:1047D000626F6F7420657261736520666C6167201B
:1047E0006F6B0D0A000000005570646174652073E2
:1047F0007563636573730D0A00000000426F6F7488
:10480000204D6F64650D0A00600000207C000020D0
:10481000800000206800002078000020626F6F7424
:104820002072656365697665203D2025642C2077BC
:1048300072697465203D2025642C20706C6561735D
:10484000652073656E64202564207061636B616709
:10485000650D0A00626F6F74207265636569766525
:10486000203D2025642C207772697465203D202529
:10487000642C20706C6561736520776169740D0A22
:1048800000000000626F6F74207265636569766571
:10489000203D2025642C207772697465203D2025F9
:1048A000642C706C6561736520776169740D0A0012
:1048B000006810B10846006810B90220FFF778FAC6
:1048C00000203D49096808713C48FEF77FFE3B48DF
:1048D000FEF7C7FF00203A490870FEF7B3FDFFF767
:1048E00034FA054614203749086053E0364800681A
:1048F000FEF7F2FDA0B1FFF728FA07463348FFF7AD
:104900003DF83E1A2F480068864209D96A4621467A
:104910002E48FFF775F8BDF800102046FFF7C0FAE3
:104920002B480068FEF7D8FDB0B1FFF70EFA074636
:104930002248FFF723F83E1A2248006886420BD926
:104940006A4621461D48FFF75BF8BDF80010204677
:1049500000F061F800B11EE0FEF7ADFDD0B9FFF741
:10496000F4F9461BB6F57A7F14DD40F24C4120463F
:1049700000F0B9F917A1204600F046FA204600F0F1
:10498000C9F987B23A4621460C48FFF704F8FFF709
:10499000DCF90546AAE700BF0748006800F0BCFB49
:1049A0001048006800F0B8FB204600F0B5FB07484F
:1049B000FEF765FFF8BD00007C00002000100140FC
:1049C0005C0000206400002028000020004400401B
:1049D00024000020626F6F74206F6666206C696E21
:1049E000650000008000002010B502460B460AB9A1
:1049F000002010BD14784FF6FF70834201D10020D3
:104A0000F7E7012102E0505C4440491C581E8842EF
:104A1000F9DA2046EDE72DE9F04104468846002703
:104A200066782078FE282CD1A0784D2829D1F11C59
:104A3000601CFFF7D9FF0546301D205CA84212D14B
:104A4000E07830B1032806D0042806D0052808D124
:104A500005E0012706E0042704E0052702E0062719
:104A600000BF00BF0DE06078FF280AD1E078012880
:104A700002D0022804D101E0022701E0032700BF91
:104A800000BF3846BDE8F08170B504460120607073
:104A9000E07840F08000E070002020710421601C6C
:104AA000FFF7A2FF607106252A4621465048FEF70F
:104AB00072FF70BD00BFBFF34F8F4E48006800F417
:104AC000E0604D490843001D4A490860BFF34F8F1D
:104AD00000BF00BFFEE770B504460D4647490968B0
:104AE000474A88182A46214600F08EF84348006855
:104AF00000F500604149086070BD704710B540483E
:104B0000406800F07F40B0F1006F02D13C4800F0F7
:104B1000AEF810BD08B540F63B0000F025FB054699
:104B2000FFF7D8F8074615B90620FFF741F95DE011
:104B300034480068FEF7D0FC00284AD0FFF705F99A
:104B400080462B48FEF71AFFA8EB0006282E40DD12
:104B50006A4629462648FEF753FFBDF8001028464E
:104B6000FFF759FF04468CB3FFF7B4F80746072C4C
:104B70002DD2DFE804F02C0409141A20270028465F
:104B8000FFF782FFFFF796FFBDF80000C01F81B25C
:104B9000281DFFF7A0FF2846FFF776FF18E0FFF774
:104BA000ACFF2846FFF770FF12E02846FFF76CFFC6
:104BB000FFF7A4FF0CE02846FFF766FF00200F492F
:104BC000086005E02846FFF75FFF01E001E000BF55
:104BD00000BFFFF77FF8C01B052807D9284600F063
:104BE0009BFAFFF78BFFFFF775F80746A0E7000079
:104BF000001001400CED00E00000FA0584000020E8
:104C000000000208240000202DE9F05F07468846D6
:104C100091460025BB4608F10204AA461DE0E07853
:104C20000606A07846EA0046607846EA0026207824
:104C30000643241D2846691C8DB2194941F820609D
:104C4000B5F5007F07D100254FF400725846FEF7F6
:104C5000B9FF0BF5006B0AF1040ACA45DFD325B191
:104C60002A460F495846FEF7ADFFBDE8F09F10B544
:104C7000044620680B490840B0F1005F0ED10A4895
:104C8000FEF7FDFD0948FEF7FAFD60680849086077
:104C90002068FBF788FA06480068804710BD0000CE
:104CA000940000200000FE2F00100140004400404E
:104CB0008800002040EA01039B0703D009E008C9EF
:104CC000121F08C0042AFAD203E011F8013B00F8D1
:104CD000013B521EF9D27047D2B201E000F8012B1D
:104CE000491EFBD270470022F6E710B513460A466C
:104CF00004461946FFF7F0FF204610BD421E12F889
:104D0000013F002BFBD111F8013B02F8013B002BC6
:104D1000F9D17047421C10F8011B0029FBD1801A01
:104D200070472DE9F05F0546002092469B46884675
:104D30000646814640241BE0284641464746224617
:104D400000F041F853465A46C01A914110D311461B
:104D50001846224600F028F82D1A67EB01084F4646
:104D600022460120002100F01FF817EB00094E41F8
:104D7000201EA4F10104DFDC484631462A464346A2
:104D8000BDE8F09F064C074D06E0E06840F00103E7
:104D900094E8070098471034AC42F6D3FBF7F8F9D3
:104DA000D4510008F4510008202A04DB203A00FA0C
:104DB00002F1002070479140C2F1200320FA03F372
:104DC000194390407047202A04DB203A21FA02F070
:104DD0000021704721FA02F3D040C2F12002914035
:104DE00008431946704700000FB4054B10B503A9DE
:104DF000044A029800F02CF810BC5DF814FB000087
:104E0000573A0008480000200FB4084B10B504A919
:104E100002AA039800F01CF8044602A9002000F042
:104E200075F9204610BC5DF814FB00000D51000818
:104E300002E008C8121F08C1002AFAD17047704763
:104E4000002001E001C1121F002AFBD170470000C1
:104E50002DE9FF4F8DB09B460F460446002606E025
:104E600025280BD05A460F999047641C761C207851
:104E70000028F5D111B03046BDE8F08F0025A846D6
:104E80000122974900E0054314F8013F203B02FA54
:104E900003F00842F7D120782E2817D114F8010F1B
:104EA00045F004052A280ED06FF02F022078A0F1DB
:104EB000300109290AD808EB880102EB410100EB17
:104EC0000108641CF2E757F8048B641C20786C28F6
:104ED0000DD004DC4C2812D06A2811D104E07428CB
:104EE0000DD07A280CD10AE045F4001507E061786E
:104EF00045F48015814202D1641C05F58015641CBF
:104F00002278692A45D008DC002AB3D0582A67D015
:104F1000632A10D0642A08D13BE0702A65D0732A36
:104F200013D0752A5AD0782A5AD010465A460F996B
:104F30009047761CD1E017F8040B8DF80000002094
:104F40008DF80100E946012003E057F8049B4FF07B
:104F5000FF3069074FF0000501D40AE06D1C45459C
:104F60000DDA8542FADB19F805100029F6D106E0C2
:104F70006D1C8542FCDB19F805100029F8D12E4480
:104F800004E019F8010B5A460F9990476D1EF8D2AC
:104F9000A3E00A200021CDE90801C5F30250022850
:104FA0000BD001CFC11700290DDA4FF0000CD0EB68
:104FB0000C006CEB01012D2308E0FF1D27F0070713
:104FC000F7E80201EFE72B0504D52B238DF82830F5
:104FD00001233BE0EB0739D02023F7E70A2000E06C
:104FE00010200021CDE9080107E01020002145F044
:104FF0000405CDE908014FF00808C5F30250022866
:105000000FD001CF00214FF0000A2B071FD5702AC7
:105010000DD0DDE908C38CF0100C5CEA030C0CD059
:1050200015E0FF1D27F00707F7E80201EBE7402234
:105030008DF828204FF0010A0BE050EA010306D05A
:1050400030238DF828308DF8292002239A46582ADB
:1050500004D024A20DF120090B9209E026A2F9E761
:10506000DDE90823FFF75DFE0B9B9B5C09F8013D22
:1050700050EA0102F4D1ADEB090020300890680736
:1050800001D44FF001080899884502DDA8EB010022
:1050900000E000208046002506E00AA85A46405D50
:1050A0000F9990476D1C761C5545F6DB04E03020C7
:1050B0005A460F999047761CB8F10001A8F10108F3
:1050C000F5DC05E019F8010B5A460F999047761C5C
:1050D0000899481E08900029F4DC641CC7E600000B
:1050E00009280100303132333435363738396162BE
:1050F0006364656600000000303132333435363782
:105100003839414243444546000000000A68531CB8
:105110000B6010707047000010B5002821D0114BB3
:105120000022001F196803E0814203D80A4649683B
:105130000029F9D152B11368841A9C4204D1006845
:1051400018441060104602E0506000E0186039B169
:1051500002680B1A934203D10B681A440260496833
:10516000416010BD8C000020F0B50B30154D20F0D3
:1051700007010024144A0FE003688B420BD38B42D3
:1051800005D95E1A43184768C3E9006700E0436821
:10519000136002C004E0021D10680028ECD1204614
:1051A000002802D1286808B10020F0BD064A07484F
:1051B0001060074A121A22F00702C0E900240120F9
:1051C0002860D7E7900000208C0000209C08002079
:1051D00098880020F451000800000020940000008E
:1051E000304E000888520008940000200408010096
:1051F000404E000800000000010203040102030405
:1052000006070809007A030A0000000000000000F9
:105210000102030406070809000000000000000066
:10522000000000000000000000000000000000007E
:10523000000000000000000000000000000000006E
:10524000000008080000000000000000000000004E
:10525000000000000000000014000000000000003A
:1052600000000808010999990109888801000000D7
:10527000000000000000000000000000000000002E
:08528000000000000000000026
:040000050800018965
:00000001FF
