:10275E00FF000C1D03FF00041D0BFF0197064BBB72
:10276E00FF02930005517DFF039102010142C5FF57
:10277E00002A1D25FF052200001301F42B19FF036B
:10278E002901FF001B03FF0329000000F422FF03B1
:10279E009A010C00A35DFF102F000001220000051E
:1027AE00072210001B03E80000DCD4FF02920BB8D6
:1027BE004AE1FF039B050202DEEAFF039B051200BE
:1027CE00CEE8FF039B051000CCE8FF039B0511002C
:1027DE00CDE8FF039B050000DCE8FF049B0501002C
:1027EE0000A3FDFF102F000001220000050722109C
:1027FE00001B03E801FFDD2BFF032F0000025E86A6
:10280E00FF039B050001DCE9000000000000000052
:10281E0000000000000000000000000000000000AA
:10282E00000000000000000000000000000000009A
:10283E00000000000000000000000000000000008A
:07284E00FF02920BB800002D
:1014FF0060EE0022100000000020110304000324FE
:10150F001EB9E20020755811025323901E435168F3
:10151F00100500000000201501142812F5DD10053C
:10152F0000000000201501142542D9741005000099
:10153F000000201501142506D1341005000000000D
:10154F0020150114263582571005000000002015C4
:10155F0001142457A8D11005000000002015011414
:10156F00252185B110050000000020150114256606
:10157F00BD9210050000000020150114260865A972
:10158F00100500000000201501142514E347100575
:10159F000000000020150114241811FA1005000096
:1015AF00000020150114315754571005000000009A
:1015BF0020150114241180D3100500000000201500
:1015CF00011424778CB310050000000020150114BE
:1015DF002431A4B110050000000020150114233997
:1015EF00BC2E60A0011000000000000000000000F1
:1015FF0000000000000000000000000000000000DC
:10160F0000000000000000000000000000000000CB
:10161F0000000000000000000000000000000000BB
:10162F0000000000000000000000000000000000AB
:10163F00000000000000000000000000000000009B
:10164F00000000000000000000000000000000008B
:10165F00000000000000000000000000000000007B
:10166F00000000000000000000000000000000006B
:10167F00000000000000000000000000000000005B
:10168F0000000000000041000100410000006069FF
:10169F0001B000000000000000000000000000008A
:1016AF00000000000000000000000000000000002B
:1016BF00000000000000000000000000000000001B
:1016CF00000000000000000000000000000000000B
:1016DF0000000000000000000000000000000000FB
:1016EF0000000000000000000000000000000000EB
:1016FF000000000000000000000000602000020059
:10170F0000102120423063408450A560C670E781ED
:0F171F00089129A14AB16BC18CD1ADE1CEF1EF98
:100B76009004D7EBF0A3EAF0A3E9F0EFB415004038
:100B86000302107B900B91F8282873020BD0020CFD
:100B960009020C42020C7B020CB4020CED020D267B
:100BA600020D5F020D98020DD1020E0A020E4302DB
:100BB6000E7C020EB5020EEE020F27020F60020F28
:100BC60099020FD202100A0210429004DAE0FBA347
:100BD600E0FAA3E0F9740512069A9004DAE0FBA3A2
:100BE600E0FAA3E0F9120654FF7E009004D7E0FB7A
:100BF600A3E0FAA3E0F8AC02AD037BFF7A27795EA7
:100C06000210789004DAE0FBA3E0FAA3E0F9740599
:100C160012069A9004DAE0FBA3E0FAA3E0F91206C2
:100C260054FF7E009004D7E0FBA3E0FAA3E0F8AC03
:100C360002AD037BFF7A2779630210789004DAE02D
:100C4600FBA3E0FAA3E0F9740612069A9004DAE030
:100C5600FBA3E0FAA3E0F9120654FF7E009004D746
:100C6600E0FBA3E0FAA3E0F8AC02AD037BFF7A2732
:100C760079680210789004DAE0FBA3E0FAA3E0F9C1
:100C8600740712069A9004DAE0FBA3E0FAA3E0F9EF
:100C9600120654FF7E009004D7E0FBA3E0FAA3E01F
:100CA600F8AC02AD037BFF7A27796E0210789004C8
:100CB600DAE0FBA3E0FAA3E0F9740812069A9004BE
:100CC600DAE0FBA3E0FAA3E0F9120654FF7E0090F7
:100CD60004D7E0FBA3E0FAA3E0F8AC02AD037BFF88
:100CE6007A2779750210789004DAE0FBA3E0FAA37C
:100CF600E0F9740512069A9004DAE0FBA3E0FAA381
:100D0600E0F9120654FF7E009004D7E0FBA3E0FA58
:100D1600A3E0F8AC02AD037BFF7A27797D02107859
:100D26009004DAE0FBA3E0FAA3E0F9740A12069A4B
:100D36009004DAE0FBA3E0FAA3E0F9120654FF7E82
:100D4600009004D7E0FBA3E0FAA3E0F8AC02AD0301
:100D56007BFF7A2779820210789004DAE0FBA3E021
:100D6600FAA3E0F9740812069A9004DAE0FBA3E00D
:100D7600FAA3E0F9120654FF7E009004D7E0FBA325
:100D8600E0FAA3E0F8AC02AD037BFF7A27798C0288
:100D960010789004DAE0FBA3E0FAA3E0F9740812F5
:100DA600069A9004DAE0FBA3E0FAA3E0F9120654EF
:100DB600FF7E009004D7E0FBA3E0FAA3E0F8AC02C4
:100DC600AD037BFF7A2779940210789004DAE0FB72
:100DD600A3E0FAA3E0F9740812069A9004DAE0FB9D
:100DE600A3E0FAA3E0F9120654FF7E009004D7E0D0
:100DF600FBA3E0FAA3E0F8AC02AD037BFF7A277908
:100E06009C0210789004DAE0FBA3E0FAA3E0F97400
:100E16001512069A9004DAE0FBA3E0FAA3E0F912B1
:100E26000654FF7E009004D7E0FBA3E0FAA3E0F8A7
:100E3600AC02AD037BFF7A2779A40210789004DA1E
:100E4600E0FBA3E0FAA3E0F9740712069A9004DA2D
:100E5600E0FBA3E0FAA3E0F9120654FF7E0090043B
:100E6600D7E0FBA3E0FAA3E0F8AC02AD037BFF7A80
:100E76002779B90210789004DAE0FBA3E0FAA3E040
:100E8600F9740812069A9004DAE0FBA3E0FAA3E0EC
:100E9600F9120654FF7E009004D7E0FBA3E0FAA304
:100EA600E0F8AC02AD037BFF7A2779C00210789098
:100EB60004DAE0FBA3E0FAA3E0F9740812069A90BC
:100EC60004DAE0FBA3E0FAA3E0F9120654FF7E0081
:100ED6009004D7E0FBA3E0FAA3E0F8AC02AD037BF5
:100EE600FF7A2779C80210789004DAE0FBA3E0FACB
:100EF600A3E0F9740812069A9004DAE0FBA3E0FA7C
:100F0600A3E0F9120654FF7E009004D7E0FBA3E0AD
:100F1600FAA3E0F8AC02AD037BFF7A2779D0021082
:100F2600789004DAE0FBA3E0FAA3E0F9740812066D
:100F36009A9004DAE0FBA3E0FAA3E0F9120654FF64
:100F46007E009004D7E0FBA3E0FAA3E0F8AC02AD84
:100F5600037BFF7A2779D80210789004DAE0FBA3A6
:100F6600E0FAA3E0F9740812069A9004DAE0FBA30B
:100F7600E0FAA3E0F9120654FF7E009004D7E0FBE6
:100F8600A3E0FAA3E0F8AC02AD037BFF7A2779E091
:100F96000210789004DAE0FBA3E0FAA3E0F9740902
:100FA60012069A9004DAE0FBA3E0FAA3E0F912062F
:100FB60054FF7E009004D7E0FBA3E0FAA3E0F8AC70
:100FC60002AD037BFF7A2779E80210789004DAE015
:100FD600FBA3E0FAA3E0F9741512069A9004DAE08E
:100FE600FBA3E0FAA3E0F9120654FF7E009004D7B3
:100FF600E0FBA3E0FAA3E0F8AC02AD037BFF7A279F
:1010060079F1806E9004DAE0FBA3E0FAA3E0F974CC
:101016000812069A9004DAE0FBA3E0FAA3E0F912BC
:101026000654FF7E009004D7E0FBA3E0FAA3E0F8A5
:10103600AC02AD037BFF7A28790680369004DAE0AD
:10104600FBA3E0FAA3E0F9740812069A9004DAE02A
:10105600FBA3E0FAA3E0F9120654FF7E009004D742
:10106600E0FBA3E0FAA3E0F8AC02AD037BFF7A282D
:06107600790E12062E2285
:1034E200E5C730E106E4900217F02290021774015A
:0234F200F022C6
:0B31390090060CEBF0A3EAF0A3E9F015
:10314400E4900610F090060FF090060FE0FFC39491
:1031540011503FEF75F00EA42422F9740035F0A845
:1031640001FC7D0190060CE0FBA3E0FAA3E0F97EEC
:10317400007F0E120AF2EF701190060FE004900225
:1031840018F09006107401F0800890060FE004F027
:0731940080B7900610E0FF78
:01319B002211
:102661007E0078E37C017D017B0112062E7B017ADD
:0E2671000179E4900216E024FDFDE434FFFC44
:10267F009004E1EBF0A3EAF0A3E9F0A3ECF0A3EDF3
:01268F00F05A
:1026900074FFA3F0A3F0E4A3F0A3F09004E4E0FE41
:1026A000A3E0FF9004E8E0FCA3E0FDC39FEC9E40A4
:1026B000030227559004E1E0FBA3E0FAA3E0F98DC3
:1026C000828C8312066DFDC4540FFB9004E7E0C4B6
:1026D000F8540FC868FF9004E6E0C454F048FAEFDD
:1026E0004BFBE0C4540F25E0FFE433FE74022FF5EA
:1026F0008274003EF583E06AFFA3E06B9004E6CFAE
:10270000F0A3EFF0ED540FFD9004E6E0FAA3E0C46F
:10271000F8540FC868FFEAC454F048FCEF4DFDEAD6
:10272000C4540F25E0FFE433FE74022FF5827400D9
:102730003EF583E06CFFA3E06D9004E6CFF0A3EFDD
:10274000F09004E9E004F0600302269B9004E8E0C6
:0D27500004F002269B9004E6E0FEA3E0FFEB
:01275D002259
:102C2900900609ECF0A3EDF0900606EBF0A3EAF0AC
:032C3900A3E9F01C
:102C3C004A7002FF22900606E0FBA3E0FAA3E0F93B
:102C4C0012065490060BF0900609E0B4FF08A3E0BE
:102C5C00B4FF037F00227D017C0090060AE024FF74
:102C6C00FF900609E034FFFED3ED9FEC9E50489098
:102C7C000606E0FBA3E0FAA3E02DF9EA3CFA120603
:102C8C0054FFED04FEEFA806088002C333D8FC12F3
:102C9C00069A90060BE0FF900606E0FBA3E0FAA371
:102CAC00E0F98D828C8312066DFEEF6E90060BF0B0
:0C2CBC000DBD00010C80A390060BE0FF92
:012CC80022E9
:0F22C4009004D8EBF0A3EAF0A3E9F0A31208E925
:1022D3009004DF1208F5FFFFFFFF9004E31208F5F7
:1022E300000000009004E71208F5000000009004CD
:1022F300E31208F5000000009004DBE0FCA3E0FD1E
:10230300A3E0FEA3E0FF9004E3E0F8A3E0F9A3E079
:10231300FAA3E0FBC31208954003022421E47F04DF
:10232300FEFDFC9004E3E0F8A3A3A3E012076A9088
:1023330004D8E0FBA3E0FAA3E0F98F828E831208AE
:10234300B99004EB1208E99004E71208F5000000C5
:1023530000E47F20FEFDFC9004E7E0F8A3E0F9A38E
:10236300E0FAA3E0FBC312089540030223FF9004A5
:10237300EBE0FC9004DFE0F8A3E0F9A3E0FAE86CFB
:10238300FCEC54809004DF6022E0FCA3E0FDA3E0BA
:10239300FEA3E0FF78011208A6EF64B7FFEE641D09
:1023A300FEED64C1FDEC6404FC8010E0FCA3E0FDE1
:1023B300A3E0FEA3E0FF78011208A69004DF120851
:1023C300E99004EBE0FCA3E0FDA3E0FEA3E0FF78CB
:1023D300011208A69004EB1208E99004E7E0FCA3BD
:1023E300E0FDA3E0FEA3E02401FFE43EFEE43DFDA7
:1023F300E43CFC9004E71208E90223549004E3E070
:10240300FCA3E0FDA3E0FEA3E02401FFE43EFEE421
:102413003DFDE43CFC9004E31208E90222FB900436
:0C242300DFE0FCA3E0FDA3E0FEA3E0FF6F
:01242F00228A
:0B255C00900497EBF0A3EAF0A3E9F075
:10256700E4A3F078A07C047D017BFF7A287916FE2E
:102577007F3812062EE490049BF0900497E0FBA3AB
:10258700E0FAA3E0F990049BE0F582758300120658
:102597006DFFE4FCFDFE90049BE025E025E024A010
:1025A700F582E43404F5831208E990049BE004F013
:1025B700E0B40EC67B017A0479A07F0E7E007D0011
:1025C7007C001222C490049C1208E990049A7401BA
:1025D700F0E4A3F090049BE0FFC39428503FEF255D
:1025E700E025E02410F582E43401F583E0FCA3E064
:1025F700FDA3E0FEA3E0FF90049CE0F8A3E0F9A3AD
:10260700E0FAA3E0FBC3120895700A90049BE090E0
:102617000000F0803F90049BE004F080B790000139
:10262700E0900000F090049CE0FCA3E0FDA3E0FE36
:10263700A3E0FF900001E0FB04F0EB25E025E02498
:1026470010F582E43401F5831208E9900001E0B443
:092657002802E4F090049AE0FF6F
:012660002257
:102CC900E49004A0F09004D3F09001B0EFF09004E8
:102CD900DA7401F0A37402F0A37415F07B017A0190
:102CE90079B1120B767B017A0179B1900215E0FD79
:102CF90012340C9004E47401F0A37404F0A374D4A6
:102D0900F07B017A0479A11229EF9004D4E07002D2
:102D1900A3E060DF9004D4A3E0FF900216F07A04E8
:102D290079A1122661AD07AC06900216E0FB24E1F9
:102D3900F582E43401F583E0FE74E22BF582E43494
:102D490001F583E0FBEBB5050AEEB504069004A096
:082D59007401F09004A0E0FFFA
:012D6100224F
:082855009004A0EEF0A3EFF0E7
:10285D0078A27C047D017BFF7A28794E7E007F076C
:10286D0012062EE49004A9F09004DCF09004A0E090
:10287D00FCA3E0FDEC9004A5F0EDA3F07B017A0440
:10288D0079A37D047C0012267F9004DDEEF0A3EF8A
:10289D00F09004DDE0FCA3E0FDEC9004A7F0EDA3C7
:1028AD00F07B017A0479A27D0712340C9004E47454
:1028BD0001F0A37404F0A374DFF07B017A0479AA0C
:1028CD001229EF9004DFE07002A3E060DF9004DFD7
:1028DD00A3E0FF900216F07A0479AA122661900403
:1028ED00DDEEF0FCA3EFF0FD900216E0FB24E1F528
:1028FD0082E43401F583E0FE74E22BF582E43401C9
:10290D00F583E0FBEBB5050AEEB504069004A9745A
:07291D0001F09004A9E0FFA6
:012924002290
:101C560053C7FE7F8A7E021233C343C7011235384B
:101C66009004971208E9E4FF122CC9EF702B123585
:101C760038900497E0F8A3E0F9A3E0FAA3E0FBC3E9
:101C8600EF9BFFEE9AFEED99FDEC98FCE47BD07A93
:101C960007F9F8D312089550CD123538900497E01D
:101CA600F8A3E0F9A3E0FAA3E0FBC3EF9BFFEE9AEB
:101CB600FEED99FDEC98FCE47BD07A07F9F8D31297
:101CC600089550057F021233209001E7E030E0329C
:101CD6009001B07401F09004DAF0A37402F0A374DA
:101CE60015F07B017A0179B17F01120B767B017ABF
:101CF6000179B1900215E0FD1200037F8A7E02127F
:101D060033C31235389004971208E97F02122CC9A2
:101D1600EF702B123538900497E0F8A3E0F9A3E0B2
:101D2600FAA3E0FBC3EF9BFFEE9AFEED99FDEC985C
:101D3600FCE47BD07A07F9F8D312089550CD12351A
:101D460038900497E0F8A3E0F9A3E0FAA3E0FBC318
:101D5600EF9BFFEE9AFEED99FDEC98FCE47BD07AC2
:101D660007F9F8D312089550057F03123320123570
:101D7600389004971208E97F03122CC9EF702B12D2
:101D86003538900497E0F8A3E0F9A3E0FAA3E0FB66
:101D9600C3EF9BFFEE9AFEED99FDEC98FCE47BD039
:101DA6007A07F9F8D312089550CD12353890049772
:101DB600E0F8A3E0F9A3E0FAA3E0FBC3EF9BFFEE94
:101DC6009AFEED99FDEC98FCE47BD07A07F9F8D3FE
:101DD60012089550057F0412332012353890049767
:101DE6001208E97F04122CC9EF702B1235389004C3
:101DF60097E0F8A3E0F9A3E0FAA3E0FBC3EF9BFFAB
:101E0600EE9AFEED99FDEC98FCE47BD07A07F9F8A2
:101E1600D312089550CD123538900497E0F8A3E018
:101E2600F9A3E0FAA3E0FBC3EF9BFFEE9AFEED9960
:101E3600FDEC98FCE47BD07A07F9F8D312089550AC
:101E4600057F051233201235389004971208E97F72
:101E560005122CC9EF702B123538900497E0F8A3C1
:101E6600E0F9A3E0FAA3E0FBC3EF9BFFEE9AFEEDD9
:101E760099FDEC98FCE47BD07A07F9F8D312089523
:101E860050CD123538900497E0F8A3E0F9A3E0FAB4
:101E9600A3E0FBC3EF9BFFEE9AFEED99FDEC98FCE9
:101EA600E47BD07A07F9F8D312089550057F06121D
:021EB6003320D7
:011EB8002207
:08172E00450600000000000068
:102DF100E490049CF0900498F0A3F0E490049AF01D
:102E0100A3F020861590049AE475F001120735FEAF
:102E1100C3E5F094B8EE940B40E87F287E001234AD
:102E210053E490049DF030860204F0E490049AF09B
:102E3100A3F030861590049AE475F001120735FE6F
:102E4100C3E5F094D0EE940740E890049CE025E0BF
:102E5100FFF0A3E04F90049CF0900499E004F0701F
:102E610006900498E004F0C3900499E0940890045B
:0B2E710098E09400408590049CE0FF76
:012E7C002233
:102B7E00C2867F017E001233C3D2867F1E7E001274
:102B8E003453D286E49005FFF07F02FE12345320B8
:102B9E0086749005FF7401F0E49005FAF0A3F0201E
:102BAE0086179005FAE475F001120735FED3E5F0AD
:102BBE0094B8EE940B40E8801FE49005FAF0A3F071
:102BCE0030861E9005FAE475F001120735FED3E546
:102BDE00F094B8EE940B40E89006057401F07F0077
:102BEE0022E4900497F0122DF1900497E02400F562
:102BFE0082E43406F583EFF0900497E004F0E0C32E
:102C0E00940540E28012E49005FFF0FE7F05FD7B07
:0A2C1E00017A067900120B167F01FF
:012C28002289
:071736004406110000000051
:0F35290075C80475CBF075CA5F43A820D2AD22D8
:03002B000231F6A9
:1031F600C0E0C0F0C083C082C0D075D000C000C09F
:1032060004C005C006C007C2CF900611E0FCA3E0CB
:10321600FDA3E0FEA3E02401FFE43EFEE43DFDE461
:103226003CFC9006111208E9D007D006D005D00460
:0D323600D000D0D0D082D083D0F0D0E032D4
:0F353800900611E0FCA3E0FDA3E0FEA3E0FF225C
:1034F400E4FFFE75FF800FBF00010EBE09F8BF6038
:01350400F5D1
:0135050022A3
:0400260053D9BF22C9
:10343000E4FFFE75B69075B9800FBF00010EEF6412
:10344000144E70F543B9C0E5B930E5FB75A90375B5
:02345000B28345
:013452002257
:1034720075A49075A56075A61075AE0375D4CF7549
:0C348200D53F75E10175E2C075E3012241
:103506001200261234F4123430123472123243028C
:02351600352955
:10345300E4FDFCC3ED9FEC9E50147B037A00EB1B51
:0E34630070011AEB4A70F70DBD00010C80E5F8
:013471002238
:1033C3007C007D0A1206CEE4FDC3ED9FEC9E5014F3
:1033D3007B867A01EB1B70011AEB4A70F70DBD0077
:0433E300010C80E574
:0133E70022C3
:063555001235060220F30E
:0E3547009000C8E41206AC9000C9E40206AC85
:10348E009000C812066DFF9000C912066DC39F24EE
:08349E00C875F0C884AFF022EC
:102E7D009003C3EDF09003C0EBF0A3EAF0A3E9F0EB
:102E8D009000C912066D2401FFE433FE7C007DC85D
:102E9D001206E09003C0E0FBA3E0FAA3E0F9900076
:102EAD00C812066DB50507E49003C4F0803F90038A
:102EBD00C3E0FF9000C912066DF582758300EF1215
:102ECD0006AC9000C912066D2401FFE433FE7C00B0
:102EDD007DC81206E09003C0E0FBA3E0FAA3E0F981
:102EED009000C9ED1206AC9003C47401F09003C4B8
:022EFD00E0FFF4
:012EFF0022B0
:0B3064009004EEEBF0A3EAF0A3E9F00B
:10306F009000C912066DFE9000C812066DFDB506E0
:10307F0004E4FF804A9004EEE0FBA3E0FAA3E0F93A
:10308F008D8275830012066DFF9004F1E0FBA3E0C3
:10309F00FAA3E0F9EF12069A9004EEE0FBA3E0FA30
:1030AF00A3E0F99000C812066D2401FFE433FE7C03
:0F30BF00007DC81206E09000C8ED1206AC7F013C
:0130CE0022DF
:1034A600746573742074696D657220756172740039
:0434B6000000000012
:1032C20090049A7401F0A37405F0A374CEF07B010C
:1032D2007A0579D01229259005CEE0FEA3E0FF4EB3
:0F32E20060DE7B017A0579D0AD0712000380D141
:1032F1009004E47401F0A37405F0A374E4F07B017D
:103301007A0579E61229EF9005E4E0FEA3E0FF4E8D
:0F33110060DE7B017A0579E6AD0712340C80D1BE
:1024300090049A7401F0A37404F0A374F6F07B0185
:102440007A0479F81229259004F6E0FEA3E0FF4E05
:10245000601E782A7C057D017B017A0479F81206DA
:102460002E7B017A05792A9004F6A3E0FD12340C44
:102470009004E47401F0A37404F0A374F6F07B01FB
:102480007A0479F81229EF9004F6E0FEA3E0FF4EFB
:10249000609E782A7C057D017B017A0479F812061A
:1024A0002E7B017A05792A9004F6A3E0FD12000341
:1024B000E49004F4F0A3F09004F6E0FEA3E0FF90B3
:1024C00004F4E0FCA3E0FDC39FEC9E400302243033
:1024D000742A2DF58274053CF583E0F4706D742B3D
:1024E0002DF58274053CF583E06418705E742C2D24
:1024F000F58274053CF583E06422704F74392DF940
:1025000074053CFA7B0112255CEF6401703D786B29
:102510007C057D017B017A05795CFE7F0B12062E1E
:1025200078767C057D017B017A0579677E007F04E2
:1025300012062E90057A740DF0A3740AF07B017ACE
:1025400005796B7D111200030224309004F5E0043C
:0C255000F070069004F4E004F00224B7E0
:102FF70078BA7C057D017BFF7A3479A67E007F1441
:1030070012062E1235389005B21208E9123538909B
:1030170005B61208E99005B2E0F8A3E0F9A3E0FAD3
:10302700A3E0FBA3E0FCA3E0FDA3E0FEA3E0C39BBA
:10303700FFEE9AFEED99FDEC98FCE47BF47A01F93A
:10304700F8C312089550C57B017A0579BA7D0F122E
:0D30570000031235389005B21208E980AF71
:1030CF00122B7EE4900615F0A3F0900615E0FEA3F8
:1030DF00E0FFC39405EE64809480501F74002FF9B5
:1030EF0074063EFA7B017D01120003900616E00480
:1030FF00F070D7900615E004F080CFE4900615F03D
:10310F00A3F0C3900616E0941E900615E064809419
:10311F008050AD7F647E001233C3900616E004F03A
:0A312F0070E0900615E004F080D86F
:102F00002348756D6964697479203D2025332E311D
:102F1000662354656D7065726174757265203D201D
:102F200025332E31660052464944204352432050F7
:102F30006C6561736520696E707574203A0D0A00C6
:102F4000435243203D2025780D0A000090000000E8
:102F50000000000000000000000000000000000071
:102F60000000000000000000000000000000000061
:102F70000000000000000000000000000000000051
:1018E800900497EBF0A3EAF0A3E9F0A3ECF0A3EDE2
:0118F800F0FF
:1018F900E4A3F0789D7C047D017BFF7A2F794BFE70
:101909007F0312062E90049AE07004A3E06403603A
:1019190003021C50900497E0FBA3E0FAA3E0F9123C
:10192900065464AA702190000112066DB401189042
:10193900000212066DB4AA0F90049C7401F053C7FB
:10194900FEA3F0FB0219EC900497E0FBA3E0FAA3D5
:10195900E0F912065464AA702290000112066DB4CF
:10196900021990000212066DB4AA1090049C740129
:10197900F043C701A304F07B018068900497E0FB62
:10198900A3E0FAA3E0F912065464AA7026900001B4
:1019990012066DB4031D90000212066DB4AA1490CC
:1019A900049C7401F0A37403F07B017A04799DFD12
:1019B900021C4D900497E0FBA3E0FAA3E0F912069C
:1019C9005464AA702790000112066DB4041E900099
:1019D9000212066DB4AA1590049C7401F0A3740454
:1019E900F07B017A04799D7D03021C4D900497E0F8
:1019F900FBA3E0FAA3E0F912065464AA703D900033
:101A09000112066D6405703390000212066D64AA16
:101A1900702990049C04F0A37405F07B017A047981
:101A29009D7D031200037F09122CC9EF60F87F0A1C
:101A3900122CC9EF6003021C5080F3900497E0FB5D
:101A4900A3E0FAA3E0F912065464AA703D900001DC
:101A590012066D6406703390000212066D64AA7056
:101A69002990049C04F0A37406F07B017A04799D03
:101A79007D031200037F09122CC9EF60F87F0A1257
:101A89002CC9EF6003021C5080F3900497E0FBA37C
:101A9900E0FAA3E0F912065464AA706D90000112ED
:101AA900066D6407706390000212066D64AA70598E
:101AB90090049C04F0A37407F07B017A04799D7D5E
:101AC900031200037F0C122CC9EF60F87F0D122C52
:101AD900C9EF60F87F0E122CC9EF60F87F0F122C46
:101AE900C9EF60F87F10122CC9EF60F87F11122C32
:101AF900C9EF60F87F09122CC9EF60F87F0A122C30
:101B0900C9EF6003021C5080F3900497E0FBA3E047
:101B1900FAA3E0F912065464AA704590000112066E
:101B29006D6408703B90000212066D64AA703190D2
:101B3900049C04F0A37408F07B017A04799D7D0369
:101B49001200037F0B122CC9EF60F87F09122CC910
:101B5900EF60F87F0A122CC9EF6003021C5080F372
:101B6900900497E0FBA3E0FAA3E0F912065464AAF3
:101B7900703D90000112066D6409703390000212E5
:101B8900066D64AA702990049C04F0A37409F07B83
:101B9900017A04799D7D031200037F09122CC9EF94
:101BA90060F87F0A122CC9EF6003021C5080F39081
:101BB9000497E0FBA3E0FAA3E0F912065464FE607F
:101BC90003021C5090000112066D64FE70799000AA
:101BD9000212066DC39423506E90049C7401F07F29
:101BE90013122CC9EF60F87F14122CC9EF60F8901A
:101BF9000497E0FBA3E0FAA3E0F990000212066D56
:101C090075F064A4FFAEF0122855EF60E27F091267
:101C19002CC9EF60F87F0A122CC9EF60F890049D77
:101C290074EFF0A374FEF0900497E0FBA3E0FAA32D
:101C3900E0F990000212066D90049FF07B017A048E
:0C1C4900799D7D0312000390049CE0FFD5
:011C5500226C
:0B1EB900900497EBF0A3EAF0A3E9F01F
:101EC40012353890049A1208E9900497E0FBA3E0D5
:101ED400FAA3E0F9742312069A7B007ACA799A78F5
:101EE4003B90049AE0FCA3E0FDA3E0FEA3E0FF1214
:101EF40007F5EF2430FF900497E0FBA3E0FAA3E09A
:101F0400F9900001EF1206AC7B007AE179F57805CF
:101F140090049AE0FCA3E0FDA3E0FEA3E0FF120717
:101F2400F5E47B0AFAF9F81207F5EB2430FF900484
:101F340097E0FBA3E0FAA3E0F9900002EF1206ACED
:101F44007B807A967998780090049AE0FCA3E0FD6F
:101F5400A3E0FEA3E0FF1207F5E47B0AFAF9F81206
:101F640007F5EB2430FF900497E0FBA3E0FAA3E02D
:101F7400F9900003EF1206AC7B407A42790F7800A7
:101F840090049AE0FCA3E0FDA3E0FEA3E0FF1207A7
:101F9400F5E47B0AFAF9F81207F5EB2430FF900414
:101FA40097E0FBA3E0FAA3E0F9900004EF1206AC7B
:101FB4007BA07A867901780090049AE0FCA3E0FD86
:101FC400A3E0FEA3E0FF1207F5E47B0AFAF9F81296
:101FD40007F5EB2430FF900497E0FBA3E0FAA3E0BD
:101FE400F9900005EF1206ACE47B107A27F9F8901B
:101FF400049AE0FCA3E0FDA3E0FEA3E0FF1207F5D2
:10200400E47B0AFAF9F81207F5EB2430FF90049701
:10201400E0FBA3E0FAA3E0F9900006EF1206ACE4BB
:102024007BE87A03F9F890049AE0FCA3E0FDA3E0CE
:10203400FEA3E0FF1207F5E47B0AFAF9F81207F5AC
:10204400EB2430FF900497E0FBA3E0FAA3E0F990BF
:102054000007EF1206ACE47B64FAF9F890049AE006
:10206400FCA3E0FDA3E0FEA3E0FF1207F5E47B0A76
:10207400FAF9F81207F5EB2430FF900497E0FBA37C
:10208400E0FAA3E0F9900008EF1206ACE47B0AFA48
:10209400F9F890049AE0FCA3E0FDA3E0FEA3E0FFBE
:1020A4001207F5E47B0AFAF9F81207F5EB2430FF7E
:1020B400900497E0FBA3E0FAA3E0F9900009EF1283
:1020C40006ACE47B0AFAF9F890049AE0FCA3E0FD7C
:1020D400A3E0FEA3E0FF1207F5EB2430FF90049782
:0F20E400E0FBA3E0FAA3E0F990000AEF0206ACDC
:10328800742312069AED75F0648475F00A84E5F0EB
:1032980024309000011206ACED75F00A8475F00A2E
:1032A80084E5F024309000021206ACED75F00A8433
:0A32B800E5F024309000030206AC9C
:0B2AB900900497EBF0A3EAF0A3E9F013
:102AC400900601E0FF900600E0FE2FFF900602E072
:102AD4002FFFA3E02FFFA3E06F7047EEFE900601E7
:102AE400E07C002400FDEC3EFCE412012BE4FBFA44
:102AF4007920784112008990049E1208E990060218
:102B0400E0FEA3E07C002400FDEC3EFCE412012B7B
:102B1400E4FBFA7920784112008990049A1208E9BA
:102B2400801490049E1208F50000000090049A128C
:102B340008F5000000009004A574FFF0A3742FF0C2
:102B4400A37400F090049EE0FCA3E0FDA3E0FEA3C8
:102B5400E0FF9004A81208E990049AE0FCA3E0FDC9
:102B6400A3E0FEA3E0FF9004AC1208E9900497E010
:0A2B7400FBA3E0FAA3E0F90210E170
:103518007F09122CC9EF60F87F0A122CC9EF60F8F6
:013528002280
:10339D00E4900617F07F13122CC9900617E004F085
:1033AD00EF7006E0C3940A40EC900617E0B40A05EE
:0533BD007F091233201E
:0133C20022E8
:1020F300121C567F14122CC9EF60F87FC47E09129C
:102103002855EF60F67F09122CC9EF60F87F0A1299
:102113002CC9EF60F81235389004931208E9123590
:1021230038900493E0F8A3E0F9A3E0FAA3E0FBC33B
:10213300EF9BFFEE9AFEED99FDEC98FCE47BB87AF9
:102143000BF9F8C3120895500C123538900493120A
:1021530008E9122B7E90049A7401F0A37403F0A390
:1021630074C7F07B017A0379C91229259003C7E06C
:10217300FEA3E0FF4E603278FB7C037D017B017A96
:102183000379C912062E7B017A0379FB9003C7E01A
:10219300FCA3E0FD1218E8EF700F7B017A0379FBD3
:1021A3009003C7A3E0FD12340C9004E47401F0A380
:1021B3007403F0A374C7F07B017A0379C91229EF82
:1021C3009003C7E0FEA3E0FF4E700302212178FBDA
:1021D3007C037D017B017A0379C912062EE4900307
:1021E300C5F0A3F09003C7E0FEA3E0FF9003C5E0B2
:1021F300FCA3E0FDC39FEC9E400302212174FB2D51
:10220300F58274033CF583E0F460030222B374FCAB
:102213002DF58274033CF583E0641860030222B356
:1022230074FD2DF58274033CF583E06422600302A0
:1022330022B3740A2DF974043CFA7B0112255CEF76
:102243006401706C7B017A047938900000E0FD1220
:1022530032887A04792D121EB97B017A04797012BF
:102263002AB9783C7C047D017B017A04792D7E00B8
:102273007F0B12062E78477C047D017B017A04795B
:10228300387E007F0412062E784B7C047D017B018F
:102293007A0479707E007F2312062E90046E740DEB
:1022A300F0A3740AF07B017A04793C7D34120003B5
:1022B3009003C6E004F070069003C5E004F0022129
:0122C300E733
:102F800078807C057D017BFF7A2F794E7E007F3231
:102F900012062E7BFF7A2F79261233E890049A745A
:102FA00001F0A37405F0A3747CF07B017A057980AD
:102FB00012292590057CE0FCA3E0FD4C60DE7B013E
:102FC0007A05798012267F90057EEEF0A3EFF090CF
:102FD00004A574FFF0A3742FF0A37440F0A3EEF0E7
:102FE000A3EFF07B017A0579801210E17B017A056D
:072FF00079801233E880A58F
:03355B00256400E4
:10173D004402190000000044021D0000000060CAB0
:10174D000227000000000000000000000000000063
:10175D00000000000000000000000000000000007C
:10176D00000000000000000000000000000000006C
:10177D00000000000000000000000000000000005C
:10178D00000000000000000000000000000000004C
:10179D00000000000000000000000000000000003C
:1017AD00000000000000000000000000000000002C
:1017BD00000000000000000000000000000000001C
:1017CD00000000000000000000000000000000000C
:1017DD0000000000000000000000000000000000FC
:1017ED0000000000000000000000000000000000EC
:1017FD0000000000000000000000000000000000DC
:10180D0000000000000000000000000060CA02F1AE
:10181D0000000000000000000000000000000000BB
:10182D0000000000000000000000000000000000AB
:10183D00000000000000000000000000000000009B
:10184D00000000000000000000000000000000008B
:10185D00000000000000000000000000000000007B
:10186D00000000000000000000000000000000006B
:10187D00000000000000000000000000000000005B
:10188D00000000000000000000000000000000004B
:10189D00000000000000000000000000000000003B
:1018AD00000000000000000000000000000000002B
:1018BD00000000000000000000000000000000001B
:1018CD00000000000000000000000000000000000B
:0A18DD000000000000000000000001
:10324300D28E758920758840759810D2ACD2AF752F
:103253008DCC758E0175E50C75B43075B5FF75D2DF
:103263007075AC4375F70275E7029002217401F0A3
:10327300A37402F0A37427F0A37401F0A37402F003
:05328300A374F1F0222C
:10000300C2ACE4FFEFC39D5014120654F599309926
:0F001300FDC299740129F9E43AFA0F80E7D2ACE3
:0100220022BB
:1033E800E4FFC2AC120654FE6017EFC39464501198
:1033F8008E993099FDC299740129F9E43AFA0F803F
:03340800E3D2AC60
:01340B00229E
:0300230002002EAA
:10002E00C0E0C0F0C083C082C0D075D000C000C098
:10003E0001C002C003C004C005C006C00730981935
:10004E00C2987B017A027927AD99122E7DBF0109E4
:10005E001235389002191208E9D007D006D005D013
:10006E0004D003D002D001D000D0D0D082D083D023
:04007E00F0D0E032AC
:10340C00E4F5E7FFEFC39D5017120654F5D3E5D250
:10341C0030E1FB53D2FD740129F9E43AFA0F80E450
:03342C0075E7023F
:01342F00227A
:10334E00E4FFF5E7120654FE601AEFC394645014BE
:10335E008ED3E5D230E1FB53D2FD740129F9E43A64
:07336E00FA0F80E075E70291
:013375002235
:0300830002319CAB
:10319C00C0E0C0F0C083C082C0D075D000C000C0F9
:0D31AC0001C002C003C004C005C006C0077A
:1031B900E5D25401FFB4011A53D2FE7B017A027998
:1031C900F1ADD3122E7DBF010912353890021D12BF
:0231D90008E903
:1031DB00D007D006D005D004D003D002D001D00048
:0B31EB00D0D0D082D083D0F0D0E032F2
:1034BA007E007FCA7D00900221E0FBA3E0FAA3E030
:0434CA00F9020B16E2
:1034CE007E007FCA7D00900224E0FBA3E0FAA3E019
:0434DE00F9020B16CE
:0B292500900497EBF0A3EAF0A3E9F0A8
:10293000E490049EF0A3F0900221E0FBA3E0FAA350
:10294000E0F912348EEF70030229D7123538900463
:10295000A01208E9900219E0F8A3E0F9A3E0FAA3B5
:10296000E0FB9004A0E0FCA3E0FDA3E0FEA3E0C335
:102970009BFFEE9AFEED99FDEC98FCE47B05FAF9DD
:10298000F8C312089550B09004F17401F0A37404D8
:10299000F0A3749DF0900221E0FBA3E0FAA3E0F91C
:1029A000123064EF6401708F90049DE0FF900497F3
:1029B000E0FBA3E0FAA3E0F990049EE0FCA3E0F5BD
:1029C000828C83EF1206AC90049FE004F070B89004
:1029D000049EE004F080B090049EE0F9A3E0FF9034
:0F29E000049AE0FBA3E0FAA3E0C98FF002074BD3
:0B29EF009004E1EBF0A3EAF0A3E9F094
:1029FA00E49004E8F0A3F0900224E0FBA3E0FAA339
:102A0A00E0F912348EEF7003022AA11235389004CD
:102A1A00EA1208E990021DE0F8A3E0F9A3E0FAA39C
:102A2A00E0FB9004EAE0FCA3E0FDA3E0FEA3E0C320
:102A3A009BFFEE9AFEED99FDEC98FCE47B05FAF912
:102A4A00F8C312089550B09004F17401F0A374040D
:102A5A00F0A374E7F0900224E0FBA3E0FAA3E0F904
:102A6A00123064EF6401708F9004E7E0FF9004E194
:102A7A00E0FBA3E0FAA3E0F99004E8E0FCA3E0F5A8
:102A8A00828C83EF1206AC9004E9E004F070B890EF
:102A9A0004E8E004F080B09004E8E0F9A3E0FF90D5
:0F2AAA0004E4E0FBA3E0FAA3E0C98FF002074BBE
:103320009004A574FFF0A37435F0A3745BF0A3EFD1
:10333000F07B017A04799B1210E17B017A04799B7E
:0E3340007D011200037FE87E031233C380EC90
:03000000022D626C
:0F2D620053D9BF787FE4F6D8FD758121022DACDF
:100086000201A3EC5D046005E859047003020199BE
:10009600120164580460F6EC4860F2EC7004FDFE50
:1000A600FF22C860DB2481C85009C398600250064D
:1000B6000201A09850CAF582E9294B4A7005AB8225
:1000C60002018F75F0007C1A7880C3EF9BEE9AEDE3
:1000D60099400DC3EF9BFFEE9AFEED99FDE842F0C5
:1000E600DC23ACF0D0E0FFD0E0FED0E0FDAB822018
:1000F600E7101BEB60BAEC2CFCEF33FFEE33FEEDA2
:1001060033FD02017BE803F830E705C0F075F00027
:10011600EF2FFFEE33FEED33FD40B830E7C280AA85
:1001260075F020800E75F010800575F0087D007E54
:10013600007F003392D530D503120887EC33401088
:10014600EF33FFEE33FEED33FDEC33FCD5F0ED225D
:0E015600E5F0247EA2D513CC92E7CDCEFF2299
:10107C00E50824A5F582E43404F583E00508229004
:10108C0004A23007039004A5E475F00112092602AE
:10109C0006542000E97F2ED2008018EF540F2490C4
:1010AC00D43440D4FF30040BEF24BFB41A005003E7
:1010BC002461FFE50960021509050CE50C700205B9
:1010CC000B30070E9004A2E475F001120926EF0212
:1010DC00069A0233767403D2078003E4C207F5083C
:1010EC009004A212093DE4F509F50BF50CE5096035
:1010FC00077F201210BF80F5750AFFC201C200C223
:10110C0002C203C205C206C20812108BFF700D305A
:10111C0007057F001210D0AF0CAE0B22B4255FC2B6
:10112C00D5C20412108BFF24D0B40A00501A75F0EB
:10113C000A780930D50508B6FF0106C6A426F620A4
:10114C00D5047002D20380D924CFB41A00EF500416
:10115C00C2E5D2040213C2D20180C6D20080C0D232
:10116C000280BCD2D580BAD20580B47F201210BFC9
:10117C002002077401B5090040F112107CFF121017
:10118C00BF0210F9D208D206809512107CFB121007
:10119C007CFA12107CF94A4B700679C07A147BFFEA
:1011AC0020022EE509602A7E008E827583001206CD
:1011BC006D60060EEE650A70F0C2D5EBC0E0EAC0B9
:1011CC00E0E9C0E0EE121423D0E0F9D0E0FAD0E070
:1011DC00FB120654FF60AAEBC0E0EAC0E0E9C0E0F5
:1011EC001210BFD0E02401F9D0E03400FAD0E0FBBB
:1011FC00E50A0460DCD50AD98087D20280A21214D9
:10120C000560F7E50A7001041201AEA90A600DE54C
:10121C000A600914F50A1214ADEF60F3EA30E70224
:10122C00F404C3995079EAF4250A0430E701E40484
:10123C00F50A800D12140560C1EA050A250A12018F
:10124C00AEEA9004D1F030E701E4250A04D50A0493
:10125C0020050114121423E4C0E01214AD9004D143
:10126C00E0601320E70714F01210A7802204F0D0DE
:10127C00E014C0E07F001210A7E50A600712109E70
:10128C00150A800B30050312109ED0E00210F9D025
:10129C00E00480C4121405609EE50A041201AE90AD
:1012AC0004D1EAF0E50A20050260010424041214BA
:0112BC00230E
:1012BD0074FF04C0E01214AD1210A7E50A20050258
:1012CD00600312109ED0E0B50AE87F451210B19070
:1012DD0004D1E07F2B30E7047F2DF404C0E0121021
:1012ED00BFD0E075F00A84C0F01210A8D0E0121043
:1012FD00A80210F9791080027908C206C208800888
:10130D00D2D5790A8004790AC2D5E50A047002F5AE
:10131D000AE4FAFDFEFF12107CFC7B08200113127B
:10132D00107CFD7B1030000A12107CFE12107CFF29
:10133D007B20EC3382D592D55013C3E43000069F49
:10134D00FFE49EFEE42001039DFDE49CFCE4CBF84C
:10135D00C201EC700CCFCECDCCE824F8F870F38040
:10136D0017C3EF33FFEE33FEED33FDEC33FCEB3300
:10137D00FB994002FB0FD8E9EB300105F8D0E0C432
:10138D0048B201C0E00AEC4D4E4F78207B0070C290
:10139D00EAB50A0040BCC0E0121425D0F0D0E02020
:1013AD000104C4C0E0C4B201C0F01210A8D0F0D541
:1013BD00F0EB0210F91209461196531301581167FB
:1013CD004C11634213054F130D44130D49117C430A
:1013DD0013135512404612A045120A4714E050113E
:1013ED006B2D116F2E11922B11732311902014C997
:1013FD002A112B480000118AE50AB4FF03750A066D
:10140D0012107CFC12107CFD12107CFE12107CFF61
:10141D009004CA0201EB790AA2D520031430050904
:10142D00B910020404B9080104A2D5200602500126
:10143D00042002689202B509005034C0E07F2030CC
:10144D0003197F30A20272067205500F12147CC26E
:10145D0002C206C205C2087F30800F300503E9C005
:10146D00E01210BF300503D0E0F9D0E0B509CC3063
:10147D0005177F30B9100C1210BF7F583004077F4D
:10148D00788003B908031210BF3002057F2D0210BA
:10149D00BF7F202008F87F2B2006F322920280CFF9
:1014AD007F00B40700500B24CAF582E43404F583A1
:1014BD00E0FF22286E756C6C2900D20112107C3071
:1014CD0001F8C201780930D50108F602112B2D5013
:1014DD0043495812107C2403B405004001E49014D4
:1014ED00DB931210B0743A1210B0D20375090402D6
:0214FD001301D9
:10016400E9D2E7C933E833F892D5EDD2E7CD33ECE1
:0701740033FC5002B2D5225A
:10017B00EC30E7100FBF000C0EBE00080DBD0004E5
:10018B000BEB6014A2D5EB13FCED92E7FD2274FF91
:10019B00FCFDFEFF22E480F8A2D574FF13FC7D80EA
:0301AB00E480EFFE
:1001AE00F920E73624F950037907E4F42402FBE53D
:1001BE0082158270021583DBF6E024FB501BE9608A
:1001CE0014E4F0E582158270021583E004F0B40A9F
:0D01DE0008E4F0D9EE7401F00A22C2D52227
:1001EB00ED33EC3392D5FA602AB4FF33EDC2E77BE3
:1001FB00FF60067A027910E4227A02791920D5047D
:10020B007A027914224E614E002B494E46002D493D
:10021B004E4600E47A08F0A3DAFC7B00740722C098
:10022B0083C082ECC0E0EDC0E0EEC0E0EFC0E0EADE
:10023B0075F010A4CAABF075F04DA42BFBE435F0B0
:10024B00FCEA2410FAEB34C5FBEC34D9FCEDC2E725
:10025B00FF75F056A4F42411C5F0F434C58FF0A447
:10026B002AE5F03BE43CF020E71412051ED0E0FF3A
:10027B00D0E0FED0E0FDD0E0FC1200898014F40445
:10028B0012051ED0E0FFD0E0FED0E0FDD0E0FC1266
:10029B0003E8D082D083E0FAEDD2E7CD33EC332400
:1002AB0082FBE4C3CF33CFCE33CECD33CD33DBF3B1
:1002BB007B0775F00A846004F0A31B0AE5F0F0A33A
:1002CB008FF0740AA4FFACF08EF0740AA42CFEAC71
:1002DB00F050010C8DF0740AA42CFDE435F0F0A362
:0502EB00DBDE740722B8
:1002F000020199E86480F8E933E83360110460F0A2
:10030000ED33EC337009E8FCE9FDEAFEEBFF220473
:1003100060DED3EB9FEA9EE99DE8C2E78CF0C2F76E
:1003200095F0400CE8CCF8E9CDF9EACEFAEBCFFB3A
:1003300012016485D0F05804700320D5B3E804702E
:10034000075002B2D50201A392D5EC0460F7E4CCC9
:10035000C0E0C398F8603B94186008400DD0E0FB03
:1003600002017BE4FBFAC9FC8028E830E406E4C91A
:10037000FBE4CAFCE830E305E4C9CACBFCE8540757
:100380006010F8C3E913F9EA13FAEB13FBEC13FC62
:10039000D8F130F52FC3E49CFCEF9BFFEE9AFEED05
:1003A00099FDD0E0FBEF4E4D4C701222DB030201B1
:1003B000A0EC2CFCEF33FFEE33FEED33FDED30E728
:1003C000EB02017BEF2BFFEE3AFEED39FDD0E0FBB7
:1003D00050130BBB00030201A3ED13FDEE13FEEF60
:0803E00013FFEC13FC02017B8A
:1003E800EC4D6011E8497017ED33EC3304600DE40F
:1003F800FCFFFEFD22E933E8330470F8020199128C
:10040800016458046009E4CC24815006285009028C
:1004180001A32840030201A0C0E0EB4A7044B98060
:1004280006D0E0FB02018FEF4E701CBD8008EBFF89
:10043800EAFEE9FD80EBE98DF0A4FEE5F00204D1C7
:10044800E9CDF9EAFEEBFFEF89F0A4FCE5F0CE89EF
:10045800F0A42EFFE435F0CD89F0A42DFEE435F0AC
:100468008067EF4E7005BD80D780C3EF8BF0A4ACDA
:10047800F0EE8BF0A42CFCE435F0F8EF8AF0A42C15
:10048800E5F038FCE433CB8DF0A42CFCE5F03BF828
:10049800EE8AF0A42CFCE5F038F8E433CF89F0A418
:1004A8002CFCE5F038CF3400CE89F0A42FFFE5F01E
:1004B8003EFEE433C98DF0A42EFEE5F039CD8AF076
:1004C800A42FFFE5F03EFEE43DFD33D0E0FB5007EE
:1004D8000BBB000F0201A3EC2CFCEF33FFEE33FE45
:0604E800ED33FD02017B73
:1004EE003F8000004120000042C80000447A000016
:1004FE00461C400047C35000497424004B18968098
:10050E004CBEBC205A0E1BCA6753C21C749DC5AE8E
:10051E00FB60065407601C232312054CEB54386015
:10052E00091205381205471203E8ECF8EDF9EEFA58
:10053E00EFCB22EB12054780F1543803241C9004B4
:10054E00EEFE93FC0EEE93FD0EEE930ECE93FF2277
:102D7100023555E493A3F8E493A34003F68001F2EE
:102D810008DFF48029E493A3F85407240CC8C33363
:102D9100C4540F4420C8834004F456800146F6DF32
:102DA100E4800B01020408102040809014FFE47EAF
:102DB100019360BCA3FF543F30E509541FFEE49327
:102DC100A360010ECF54C025E060A840B8E493A3EE
:102DD100FAE493A3F8E493A3C8C582C8CAC583CA19
:102DE100F0A3C8C582C8CAC583CADFE9DEE780BED1
:0118E7000000
:10055E00E709F608DFFA8046E709F208DFFA803E7F
:10056E0088828C83E709F0A3DFFA8032E309F6086C
:10057E00DFFA8078E309F208DFFA807088828C83D4
:10058E00E309F0A3DFFA806489828A83E0A3F60888
:10059E00DFFA805889828A83E0A3F208DFFA804C62
:1005AE0080D280FA80C680D4806980F28033801039
:1005BE0080A680EA809A80A880DA80E280CA8033A2
:1005CE0089828A83ECFAE493A3C8C582C8CCC5831A
:1005DE00CCF0A3C8C582C8CCC583CCDFE9DEE780EA
:1005EE000D89828A83E493A3F608DFF9ECFAA9F069
:1005FE00EDFB2289828A83ECFAE0A3C8C582C8CCBF
:10060E00C583CCF0A3C8C582C8CCC583CCDFEADED7
:10061E00E880DB89828A83E493A3F208DFF980CC39
:10062E0088F0EF60010E4E60C388F0ED2402B40432
:10063E000050B9F582EB2402B4040050AF232345D9
:06064E0082239005AE734B
:10065400BB010689828A83E0225002E722BBFE02A4
:09066400E32289828A83E49322D7
:10066D00BB010CE58229F582E5833AF583E0225042
:10067D0006E92582F8E622BBFE06E92582F8E2228C
:0D068D00E58229F582E5833AF583E49322A6
:10069A00BB010689828A83F0225002F722BBFE013F
:0206AA00F32239
:1006AC00F8BB010DE58229F582E5833AF583E8F084
:1006BC00225006E92582C8F622BBFE05E92582C830
:0206CC00F22218
:1006CE00EF8DF0A4A8F0CF8CF0A428CE8DF0A42E40
:0206DE00FE22FA
:1006E000BC000BBE0029EF8DF084FFADF022E4CCFE
:1006F000F875F008EF2FFFEE33FEEC33FCEE9DECC7
:10070000984005FCEE9DFE0FD5F0E9E4CEFD22ED0C
:10071000F8F5F0EE8420D21CFEADF075F008EF2F56
:10072000FFED33FD4007985006D5F0F222C398FD47
:050730000FD5F0EA22E4
:10073500C5F0F8A3E028F0C5F0F8E582158270024F
:060745001583E038F022EC
:10074B00BB010A89828A83F0E5F0A3F0225006F7F9
:0F075B0009A7F01922BBFE06F3E5F009F31922F6
:10076A00E88FF0A4CC8BF0A42CFCE98EF0A42CFC2E
:10077A008AF0EDA42CFCEA8EF0A4CDA8F08BF0A4AC
:10078A002DCC3825F0FDE98FF0A42CCD35F0FCEB0B
:10079A008EF0A4FEA9F0EB8FF0A4CFC5F02ECD39D0
:0F07AA00FEE43CFCEAA42DCE35F0FDE43CFC223D
:1007B90075F008758200EF2FFFEE33FECD33CDCCF7
:1007C90033CCC58233C5829BED9AEC99E58298407A
:1007D9000CF582EE9BFEED9AFDEC99FC0FD5F0D657
:1007E900E4CEFBE4CDFAE4CCF9A88222B800C1B981
:1007F9000059BA002DEC8BF084CFCECDFCE5F0CBBF
:10080900F97818EF2FFFEE33FEED33FDEC33FCEBF7
:1008190033FB10D703994004EB99FB0FD8E5E4F9B2
:10082900FA227818EF2FFFEE33FEED33FDEC33FC9F
:10083900C933C910D7059BE99A4007EC9BFCE99A93
:10084900F90FD8E0E4C9FAE4CCFB2275F010EF2FD8
:10085900FFEE33FEED33FDCC33CCC833C810D707D8
:100869009BEC9AE899400AED9BFDEC9AFCE899F813
:0E0879000FD5F0DAE4CDFBE4CCFAE4C8F922A6
:0E088700C3E49FFFE49EFEE49DFDE49CFC2282
:10089500EB9FF5F0EA9E42F0E99D42F0E89C45F0B9
:0108A5002230
:1008A600E8600FEFC333FFEE33FEED33FDEC33FCB0
:0308B600D8F12254
:1008B900BB010DE58229F582E5833AF583020B4EEA
:1008C9005007E92582F8020B42BBFE07E92582F8A9
:1008D900020B5AE58229F582E5833AF583020B6614
:0C08E900ECF0A3EDF0A3EEF0A3EFF02282
:1008F500A8828583F0D083D08212090C12090C12CC
:10090500090C12090CE473E493A3C583C5F0C583F0
:10091500C8C582C8F0A3C583C5F0C583C8C582C84C
:0109250022AF
:10092600F8E0FBA3A3E0F925F0F0E582158270025A
:070936001583E0FA38F022FE
:09093D00EBF0A3EAF0A3E9F022BB
:10094600D083D082F8E4937012740193700DA3A340
:1009560093F8740193F5828883E473740293686054
:06096600EFA3A3A380DF54
:10337600EFB40A07740D123381740A309811A899B4
:10338600B8130CC2983098FDA899C298B811F630B7
:0733960099FDC299F599228F
:10096C00E3F5F009E208B5F06BDFF58067E3F5F02D
:10097C0009E608B5F05EDFF5805A87F009E608B5A0
:10098C00F052DFF6804E87F009E208B5F046DFF64C
:10099C00804288828C8387F009E0A3B5F036DFF6BD
:1009AC00803288828C8387F009E493A3B5F025DF2D
:1009BC00F5802188828C83E3F5F009E0A3B5F0146F
:1009CC00DFF5801088828C83E3F5F009E493A3B5FE
:1009DC00F002DFF4020A9B808780E9809080D4804B
:1009EC003E8015806E807E809D80B7808D80A38038
:1009FC00518074803C020AA789828A83ECFAE493C2
:100A0C00F5F0A3C8C582C8CCC583CCE493A3C8C5F4
:100A1C0082C8CCC583CCB5F076DFE3DEE18070898B
:100A2C00828A83E493F5F0A3E208B5F062DFF480E8
:100A3C005E89828A83E0F5F0A3E608B5F051DFF514
:100A4C00804D89828A83E0F5F0A3E208B5F040DF9F
:100A5C00F5803C89828A83E493F5F0A3E608B5F02F
:100A6C002EDFF4802A8002805789828A83ECFAE494
:100A7C0093F5F0A3C8C582C8CCC583CCE0A3C8C588
:100A8C0082C8CCC583CCB5F006DFE4DEE280007F03
:100A9C00FFB5F0020F2240027F012289828A83EC8B
:100AAC00FAE0F5F0A3C8C582C8CCC583CCE0A3C8D6
:100ABC00C582C8CCC583CCB5F0D5DFE5DEE380CFED
:100ACC0089828A83ECFAE0F5F0A3C8C582C8CCC54C
:100ADC0083CCE493A3C8C582C8CCC583CCB5F0AF96
:100AEC00DFE4DEE280A988F0EF60010E4E60ABED32
:100AFC002402B404005098F582EB2402B404005094
:0A0B0C008E23234582239009E37332
:100B1600EF4E6012EF60010EEDBB010B89828A83F6
:100B2600F0A3DFFCDEFA2289F05007F709DFFCA903
:0C0B3600F022BBFEFCF309DFFCA9F0225A
:0C0B4200E6FC08E6FD08E6FE08E6FF22DF
:0C0B4E00E0FCA3E0FDA3E0FEA3E0FF221A
:0C0B5A00E2FC08E2FD08E2FE08E2FF22D7
:100B6600E493FC740193FD740293FE740393FF22D5
:00000001FF
